:020000040800F2
:1000000000040020B9010008BB010008BB01000882
:10001000BB010008BB010008BB010008BB010008D0
:10002000BB010008BB010008BB01000831DF00086C
:10003000BB010008BB010008BB01000881F10008FA
:10004000BB010008BB010008BB010008BB010008A0
:10005000BB010008BB0100081D3500085D35000824
:100060009D350008E135000825360008BB01000871
:10007000BB010008BB01000851F80008BB010008E3
:1000800069360008BB010008BB010008BB0100087D
:10009000BB010008BB010008BB010008BB01000850
:1000A000BB010008BB0100083DF4000851F4000842
:1000B000BB010008BB010008BB010008BB01000830
:1000C000A1F1000809370008BB010008BD3700088E
:1000D000BB010008BB010008BB010008BB01000810
:1000E00072B6264880F30888254880F30988254899
:1000F00025490860022080F31488BFF36F8F0DF04C
:1001000043FC0DF01DFA4FF0553020491B4A914237
:100110003CBF41F8040BFAE71D49194A91423CBF24
:1001200041F8040BFAE71B491B4A1C4B9A423EBF9D
:1001300051F8040B42F8040BF8E700201849194A5B
:1001400091423CBF41F8040BFAE70DF021FC0DF0A1
:100150001CFC154C154DAC4203DA54F8041B8847BF
:10016000F9E707F07BFA124C124DAC4203DA54F86F
:10017000041B8847F9E70DF009BC000000040020CB
:10018000000C00200000000808ED00E00000002046
:100190000004002000220108000C0020B4110020FF
:1001A000B811002024420020E0000008E000000810
:1001B000E0000008E000000892E700F000F8FEE729
:1001C0002DE9F04FC1F80CD0C3689D46BDE8F08F13
:1001D000002383F311882846A04700200DF0DCFDA2
:1001E000FEE70DF00FFD00DFFEE7000053B94AB94E
:1001F000002908BF00281CBF4FF0FF314FF0FF302F
:1002000000F074B9ADF1080C6DE904CE00F006F809
:10021000DDF804E0DDE9022304B070472DE9F04782
:100220008C460446089E002B40F086808A42154684
:1002300048D9B2FA82F24AB1C2F1200701FA02F3B8
:1002400020FA07F7954047EA030C94404FEA154E11
:10025000BCFBFEF71FFA85F80EFB17C307FB08F976
:10026000210C41EA0343994509D9EB1807F1FF3105
:1002700080F0E180994540F2DE80023F2B44A3EB01
:100280000903B3FBFEF00EFB103300FB08F1A4B230
:1002900044EA0344A14209D92C1900F1FF3380F04C
:1002A000C880A14240F2C58002382C4440EA074091
:1002B0000027641A1EB10023D440C6E90043394622
:1002C000BDE8F087002A54D0B2FA82F2002A40F04A
:1002D000B4800127491B4FEA15481FFA85F9B1FB85
:1002E000F8FE08FB1E1109FB0EF04FEA144C4CEA15
:1002F0000143984207D9EB180EF1FF3102D2984220
:1003000000F2EB808E461B1AB3FBF8F008FB1033AB
:1003100009FB00F9A4B244EA0344A14507D92C190A
:1003200000F1FF3302D2A14500F2DB801846A4EBB6
:10033000090440EA0E40BDE78B4208D9002E75D073
:100340000027C6E9000138463946BDE8F087B3FA10
:1003500083F77FB98B4202D3824200F2BC80841AB9
:1003600061EB030301209C46002EA8D0C6E9004C97
:10037000A5E7FFDEC7F12005BB4022FA05FC4CEAE9
:10038000030C21FA05F44FEA1C4EB4FBFEF91FFAE8
:100390008CF80EFB194420FA05F3B94009FB08FA62
:1003A00019430B0C43EA0444A24502FA07F200FA8F
:1003B00007F30BD91CEB040409F1FF3080F08980AE
:1003C000A24540F28680A9F102096444A4EB0A0424
:1003D000B4FBFEF00EFB104400FB08FA89B241EAC0
:1003E0000444A24508D91CEB040400F1FF316CD28F
:1003F000A2456AD90238644440EA0940A0FB028958
:10040000A4EB0A044C454146CE4655D352D0002EAB
:100410006AD05A1A64EB0E0404FA05F522FA07F3BF
:10042000FC401D43C6E90054002748E737463046E4
:1004300045E718463AE70F4621E79540C2F1200309
:1004400021FA03F04FEA1548B0FBF8F71FFA85F9D7
:1004500008FB170E24FA03FC914007FB09FA4CEA4B
:100460000101080C40EA0E40824504FA02F407D963
:10047000281807F1FF332AD2824528D9023F2844A1
:10048000A0EB0A00B0FBF8FC08FB1C000CFB09F316
:1004900089B241EA00418B4208D969180CF1FF305A
:1004A00011D28B420FD9ACF1020C2944C91A4CEA83
:1004B000074714E74345AAD2B8EB020169EB0C02E7
:1004C00001389646A3E78446F0E7084694E71F46BE
:1004D000D6E781467AE7384646E7AEF1020E2B446E
:1004E00011E702382C4422E73746E8E6704700BFA0
:1004F00008B5062000F008FB01200EF089FC00BFC3
:10050000024B0146186800F09BB900BF000C0020A8
:10051000024B0146186800F03FB900BF000C0020F4
:10052000830770B4CDB23DD0541E0AB30378AB42FA
:100530001FD0431C05E014F1FF3419D30278AA42FE
:1005400017D013F0030F184603F10103F3D1032C66
:1005500011D84CB30378AB420BD00444431C02E0E7
:100560000278AA4205D09C42184603F10103F7D154
:10057000002070BC704702460E02B6B22E4346EA17
:100580000646136810467340A3F1013121EA0303C4
:1005900013F0803F02F10402DCD1043C032C10462E
:1005A000EFD8D6E71446D2E72046E2E7032A70B434
:1005B00012D940EA0105AD0704460B4620D1194681
:1005C000204653F8045B54F8046BAE4218D1043A49
:1005D000032A20461946F2D8541E72B103780A78CD
:1005E0009A4208BF241806D00CE010F8013F11F819
:1005F000012F934206D1A042F7D1002070BC704772
:10060000541EEBE7981A70BC704700BF844641EA5D
:10061000000313F0030349D1403A23D30B6803606E
:100620004B6843608B688360CB68C3600B69036170
:100630004B6943618B698361CB69C3610B6A036258
:100640004B6A43628B6A8362CB6AC3620B6B036340
:100650004B6B43638B6B8363CB6BC3634030403125
:10066000403ADBD230320BD30B6803604B684360F7
:100670008B688360CB68C36010301031103AF3D2BE
:100680000C3205D351F8043B40F8043B043AF9D24C
:10069000043208D0D2071CBF11F8013B00F8013B1F
:1006A00001D30B8803806046704700BF082A13D32C
:1006B0008B07B1D010F00303AED0C3F10403D21AFC
:1006C000DB071CBF11F8013B00F8013BA4D331F854
:1006D000023B20F8023B9FE7043AD9D3013A11F8D4
:1006E000013B00F8013BF9D20B7803704B78437063
:1006F0008B78837060467047F0B4860746D0541EEE
:10070000002A3CD0CAB2034602E014F1FF3436D3CB
:1007100003F8012B9D07F8D1032C29D9CDB245EA66
:1007200005250F2C45EA054533D9A4F110063609F5
:1007300003F1200707EB061703F1100242E9045505
:1007400042E902551032BA42F8D1721C14F00C0F73
:1007500003EB021204F00F0613D0331F23F0030340
:100760000433134442F8045B9342FBD106F00304C4
:100770002CB1C9B21C4403F8011B9C42FBD1F0BC54
:10078000704734461346002CF3D1F8E7144603466D
:10079000C2E71A462646E0E700293AD038B551F8B4
:1007A000043C0C1F002BB8BFE418054600F05AFAB1
:1007B000224B1A682AB1A2420DD9216860188242E0
:1007C00021D0626028461C60BDE8384000F04CBA79
:1007D000A34203D81A465368002BF9D11168501868
:1007E000A04217D022D821686018834203BFD3E902
:1007F00000030918C4E90013636054602846BDE88B
:10080000384000F031BAD2E900020144C4E90012D4
:10081000D8E7704720680144501883421160EDD139
:10082000D3E900030144C2E90013E7E70C2328469B
:100830002B60BDE8384000F017BA00BFB8110020A7
:10084000F8B5CD1C25F0030508350C2D38BF0C2557
:10085000002D064633DBA94231D82A4F00F002FAB8
:100860003A6852B113685B1B04D43FE023685B1BFA
:1008700029D522465468002CF8D1796800293BD04C
:10088000294630460EF0A8FA431C28D0C41C24F098
:100890000304A04205D0211A30460EF09DFA013023
:1008A0001DD02560304600F0DFF904F10B0020F088
:1008B0000700231DC21A01D01B1AA350F8BD0C2239
:1008C00000203260F8BD0B2B05D8A242636811D01E
:1008D0005360E7E7144623601C442560E2E70C23DD
:1008E0003046336000F0C0F90020F8BD0B2BF1D882
:1008F000144653683B60D5E730460EF06DFA7860D9
:10090000BEE700BFB811002038B5124B05461C6881
:10091000A06B18B10023C0E9045338BD1820FFF7BD
:10092000EFFDA06378B101220023C0E904230A4B44
:100930000B24836000230949094A8481C0E900121D
:10094000C0E9045338BD0246064B4221064800F078
:1009500041F900BF000C0020ECDE05000E33CDABEA
:1009600034126DE6302101084821010838B51A4BD0
:100970001C68A26B92B114691849536901FB04F118
:10098000174800FB0313A4FB0045611C1D4445F1FF
:10099000000323F00040C2E9041338BD1820FFF71C
:1009A000AFFD0246A06388B1012400250B21C0E9F8
:1009B00004450C4B0948136003460B4D0B4C9181C9
:1009C0000B49C2E90154C2E9041338BD094B4E2159
:1009D000094800F0FFF800BF000C00202DF451582A
:1009E0002D7F954C0E33CDAB34126DE6ECDE050059
:1009F0002E7F954C302101084821010810B5802137
:100A00000446FFF71DFF606440B10022031F7C30E5
:100A100043F8042F8342FBD1002010BD4FF0FF307C
:100A200010BD00BF436C0BB100207047E6E700BF6C
:100A30001F2970B5054608D8436C16460C464BB1C5
:100A400053F8240043F8246070BD16224FF0FF30A5
:100A50002A6070BDFFF7D2FF08B96B6CF0E74FF06A
:100A6000FF3070BD1F2938B5054620D8426C0C46B2
:100A70006AB152F8213053B1012B16D0591C10D055
:100A80000025204642F824509847284638BD28467D
:100A900000F070F8224601462846BDE8384000F0D4
:100AA00055B8162301202B6038BD002038BD162311
:100AB0004FF0FF302B6038BD1F2921D838B5436C6B
:100AC00005460C4683B153F8242003EB84034AB156
:100AD000511C10D0012A0CD0002520461D609047E3
:100AE000284638BD012038BDFFF788FF28B96B6C58
:100AF000E9E7032038BD022038BD4FF0FF3038BD94
:100B00004FF0FF30704700BF024B01461868FFF7F7
:100B1000A9BF00BF000C0020024B0A46014618681E
:100B2000FFF786BF000C0020034B1868436C0BB125
:100B30000020704762E700BF000C0020024B014616
:100B40001868FFF7B9BF00BF000C002070B50D4654
:100B50000023074C06461146284623600EF060F934
:100B6000431C00D070BD2368002BFBD0336070BDE8
:100B7000204200200EF05CB920F0030110F00300C9
:100B8000C0F1000051F8043B00F1040C4FEACC0C1A
:100B90006FF000021CBF22FA0CF213434FF0010C5D
:100BA0004CEA0C2C4CEA0C4CA3EB0C0222EA03029C
:100BB00012EACC1204BF51F8043B0430F4D0C2F165
:100BC000000102EA0102B2FA82F2C2F11F0200EB56
:100BD000D200704700B50A4C0546206885B01C4617
:100BE000C06852B1074BCDE9013200912B46224635
:100BF000054900F023F8FFF77BFC044B1A46F2E7A7
:100C0000000C00207C2101088C21010888210108AA
:100C100008B513460022FFF7DDFF00BF0CB410B586
:100C200082B004AC54F8042B2346019400F060F821
:100C300002B0BDE8104002B0704700BF0EB430B53E
:100C400082B005AC54F8042B054D014623462868B4
:100C5000019400F04DF802B0BDE8304003B0704799
:100C6000000C0020704700BF704700BF9368013B35
:100C7000002B93600FDA10B49469A34208DB0A29B1
:100C800006D01368581C10601970084610BC7047D5
:100C900010BC00F07BBB1368581C1060197008462C
:100CA000704700BF9BB1F8B513440F4606465D1E62
:100CB000541E01E0AC4208D03A4614F8011F3046F9
:100CC000FFF7D4FF431CF5D1F8BD0020F8BD00208C
:100CD000704700BF936810B5144613B953601846A7
:100CE00010BD00F013FE0023C4E9013310BD00BFA6
:100CF0002DE9F04F9FB08B4690461C46039018B1EB
:100D00008369002B00F0B980A34B9B4500F0BB80AA
:100D1000A24B9B4500F0C980A14B9B4504BF039BA0
:100D2000D3F80CB0BBF80C30180740F1B480DBF8F6
:100D30001030002B00F0AF803023002120228DF8EE
:100D4000323098F8003005940B918DF83120954E93
:100D50000127002B00F08980252B00F017814546E4
:100D600003E0252B00F0A58025466B786C1C002B3A
:100D7000F7D1B4EB080A78D0424653465946039857
:100D8000FFF790FF013070D00B9B6A7853440B93B0
:100D9000002A6AD000234FF0FF3201340693CDE9D8
:100DA00008338DF85B301C93079206E02C46069BB7
:100DB000801B07FA00F0184306902546052215F817
:100DC000011B3046FFF7ACFBAA460028EED1069B7C
:100DD000D90644BF20228DF85B201A0748BF2B227A
:100DE000217848BF8DF85B202A2967D1059A1168C0
:100DF000043200290592C0F29E8009916178A51CF9
:100E00002E2974D0684C03222046FFF789FB002866
:100E100000F087804022069B001B02FA00F003438B
:100E2000069305F101082B78062219465F488DF8D4
:100E30003030FFF775FB002800F083805C4B002BFF
:100E400072D005AB00935A465A4B06A90398AFF3EC
:100E500000808146B9F1FF3F07D00B9B4B440B93B9
:100E600098F80030002B7FF477AFBBF80C305B06AE
:100E700018D40B981FB0BDE8F08F00F027FD464B4B
:100E80009B457FF445AF039BD3F804B0BBF80C300F
:100E900018073FF54CAF5946039800F0D7FA0028E1
:100EA0003FF44AAF4FF0FF30E4E7039BD3F808B0BC
:100EB00038E7B4EB080A3FF46DAF5DE7A1F130020B
:100EC000092A88BFA2469BD8099B01E02C46013520
:100ED000297803EB830302EB4303A1F13002092AD3
:100EE000AA46F3D92E2904F1020509938AD19AF86A
:100EF00001102A292FD1059B0AF102001A68043338
:100F0000002A079205939AF802100AF1030538DBCC
:100F1000254C824603222046FFF702FB00287FF47F
:100F200079AFA84655467EE7059B073323F00703B4
:100F30000833059391E7494243F002030991069370
:100F40005CE705AB00935A461A4B06A9039800F0DC
:100F5000D3F881467EE70023A1F13002092A0793E6
:100F600001D915E05546697803EB830302EB43038F
:100F7000A1F13002092A05F1010AF3D902350793DC
:100F800040E74FF0FF33824607933BE7444601E7D3
:100F9000AA46013536E700BF8C0D01086C0D01082B
:100FA0004C0D0108BC210108C4210108C821010819
:100FB00000000000A50C000810B4044C13460A46BB
:100FC0000146206810BCFFF793BE00BF000C002054
:100FD0002DE9F0470C460969A56891468D42B8BFD6
:100FE0000D46156094F8431006461F46DDF8208034
:100FF00011B16A1CC9F80020236899065CD5D9F89C
:1010000000200232C9F80020236813F0060F1946A9
:101010001DD1E1688A1A002AD8BF194617DD0025BC
:1010200004F1190A05E0E368D9F800209B1AAB42E5
:101030000CDD0123524639463046C047013005F1E8
:101040000105F0D14FF0FF30BDE8F087216894F83A
:101050004330003318BF01238A060AD53021E21835
:1010600082F8431094F845105A1C224482F8431029
:10107000023304F1430239463046C0470130E1D023
:101080002368A26803F00603042B21691DD08A425D
:1010900026DD4FF00009521A914400251A3401E070
:1010A0004D451DDA0123224639463046C0470130FE
:1010B00005F10105F4D1C5E713F0060F13D094F83C
:1010C0004330003318BF0123D3E7D9F80000E368A9
:1010D0008A42A3EB000323EAE379DCDC002BDCDCAF
:1010E0000020BDE8F087E168D9F800208A1A002ABC
:1010F000D8BF194693DCAAE72DE9F0430C46097ED8
:1011000085B06E2906461746984604F1430C0C98A4
:101110006DD039D9732900F0F48044D9752900F0D5
:101120000281782940F00F8178232268DFF854E2A9
:1011300084F845300168150651F8043B016040F120
:10114000A180D10744BF42F020022260002B00F0B2
:1011500093801022002184F8431060680028A0606A
:10116000C0F2C680216821F004012160002B40F00C
:10117000A280002840F0BE806546082A00F0AB80BF
:10118000ACEB0503236141E0632900F0E3801AD84A
:10119000002938D0582940F0D68084F845102268BC
:1011A000DFF8E4E1C6E76F2900F0BD80702940F068
:1011B000CA8078232268DFF8CCE142F02002226066
:1011C00084F84530B6E7642902D0692940F0BB8035
:1011D00022680368110603F1040557D519680560F4
:1011E0000B46002959DB0A22DFF89CE1B5E70368CA
:1011F00022681D1D6169056015061B6802D4500632
:1012000000F1BB801960002365462361CDF80080A2
:101210003B4603AA21463046FFF7DAFE013020D0D4
:101220002A46236939463046C047013019D0226822
:1012300003989207E36819D51A1A002A16DD0025CB
:1012400004F1190904E0E36803981A1AAA420DDDB3
:1012500001234A4639463046C047013005F10105B1
:10126000F1D14FF0FF3005B0BDE8F0839842B8BF30
:10127000184605B0BDE8F0832168102221F0200156
:10128000216067E7500648BF9BB25AE75106A5D5D3
:10129000B3F9003005601946A3E72D2061685B4271
:1012A000002984F84300A16002DB22F004022260DE
:1012B0000A22DFF8D4E0654600E00B46B3FBF2F10A
:1012C00002FB11301EF80000934205F8010DF4D224
:1012D000082A7FF455AF2368DB077FF551AF6268BA
:1012E00023699A423FF74CAF3023013D2B7047E70B
:1012F000002BE0D19EF8003004F1420584F8423022
:101300003BE703686268191D01601D6800212846DB
:10131000FFF706F9002832D0401B606020610023EF
:1013200084F8433072E72268036812F0800F03F1FB
:1013300004051AD01B6805606F290CBF08220A2219
:10134000DFF844E006E7012384F84210236104F14A
:101350004205E4E70122036804F14205191D1B68F8
:10136000016084F842302261D9E712F0400F0DBFCE
:101370001B6805601B880560DEE7198043E760682D
:10138000CCE700BFE4210108D0210108F8B50D46E3
:101390001446064608B1836943B3254B9C422AD0C4
:1013A000244B9C4229D0244B9C4208BFF468A2697C
:1013B000A389A2601A0722D5236903B32268616951
:1013C000D31AEDB299422F4629DD0133A168501C92
:1013D0000139A1602060157062699A4216D0A38914
:1013E000DB0701D50A2D11D03846F8BD00F06EFAA2
:1013F0000F4B9C42D4D17468D9E7B468D7E7214633
:10140000304600F023F838B92369D7E72146304643
:1014100000F032F90028E7D04FF0FF37E4E721462B
:10142000304600F029F90028F6D101232268CDE7E3
:101430008C0D01086C0D01084C0D0108024B0A4689
:1014400001461868FFF7A2BF000C00203B4B70B5A7
:101450001D6806460C460DB1AB69DBB1384B9C42AA
:101460001ED0384B9C424AD0374B9C4208BFEC6898
:10147000B4F90C2093B2190718D5206908B313F0FA
:1014800001022CD000226369A2605B42A36160B3B9
:10149000002070BD284600F019FA294B9C42E0D18B
:1014A0006C68B4F90C2093B21907E6D4DD063CD57C
:1014B000580726D4206942F00803A3819BB2002874
:1014C000DDD103F42072B2F5007FD8D0304621463A
:1014D00000F016FCA389206913F00102D2D199070C
:1014E00058BF6269A2600028D2D1B4F90C301A0644
:1014F000CFD543F04003A3814FF0FF3070BDAC68FF
:10150000B6E7616B51B104F14403994204D030460F
:10151000FFF742F9B4F90C2000236363002320692C
:1015200022F02402C4E90003C5E7092342F0400287
:1015300033604FF0FF30A28170BD00BF000C00206F
:101540008C0D01086C0D01084C0D01082DE9F041CE
:101550008F890C463A07804641D44B68002B59DDF1
:10156000E66A002E53D0002317F48052D8F80050BA
:10157000216AC8F8003051D101234046B047431CCE
:101580005FD0A789E66A216A7F0705D56268636B29
:10159000801A0BB1236CC01A024600234046B047A4
:1015A000461C45D1D8F80030B4F90C20002B55D09A
:1015B0001D2B01D0162B5AD100222369C4E9003219
:1015C000616BC8F8005011B304F14403994202D092
:1015D0004046FFF7E1F800206063BDE8F0810E6946
:1015E000AEB10D680E60B90714BF00236369AD1B6F
:1015F000A3600AE02B463246A76A216A4046B847F4
:101600000028A5EB000506440ADD002DF2DC0020D1
:10161000BDE8F0810B6C002BA2DCF8E7606DB3E74E
:10162000A3894FF0FF3043F04003A381BDE8F08170
:10163000002322696360A3892260DA04C0D5606553
:10164000BEE7D8F80030002B9BD01D2B0CD0162BFA
:101650000AD0A38943F04003A381D9E72169C4E9F3
:101660000013D304ACD5EAE7C8F80050CFE742F046
:101670004002A281CCE700BF0B6923B310B504463A
:1016800082B008B18369BBB1104B994212D0104BA4
:10169000994216D00F4B994208BFE168B1F90C305E
:1016A0002BB1204602B0BDE81040FFF74FBF00202D
:1016B00002B010BD6168F1E7019100F007F90199EE
:1016C000E2E7A168EAE70020704700BF8C0D01083F
:1016D0006C0D01084C0D010820B1054B014618683E
:1016E000FFF7CABF034B0449186800F0B3BA00BF44
:1016F000000C0020480D01087916000800207047F2
:10170000014900F0A7BA00BF791600080020704711
:1017100070B568254A1E05FB02F50E4605F17401F9
:10172000FFF78EF8044640B100210C30666005F1E9
:1017300068022160A060FEF7DFFF204670BD00BF99
:101740001E4B70B51D680646AB6943B34835D5E9F5
:101750000134013B05D51EE0013B5A1C04F168042D
:1017600019D0B4F90C20002AF6D10025144B656677
:10177000C4E90055A560C4E90455A5612946E360A4
:10178000082204F15C00FEF7B7FFC4E90D55C4E977
:101790001255204670BD2C682CB12546D7E7284647
:1017A00000F010F8D2E704213046FFF7B1FF0446FD
:1017B00028600028F1D10C233360EAE7480D0108C6
:1017C0000100FFFF2DE9F84F0023334AC0E912332F
:1017D00012680365904208BF0123304908BF836146
:1017E00081620546FFF7ACFF68602846FFF7A8FF57
:1017F000A86028460024FFF7A3FF04236E68E86072
:101800002146F3607466C6E90044B460C6E9044446
:10181000B46106F15C000822FEF76EFFDFF888B0C5
:10182000AF68DFF888A0DFF88890DFF888801C4B6D
:10183000C6E9086BC6E90AA9C6F830802146FB60F4
:1018400008227C66C7E90044BC60C7E90444BC6167
:1018500007F15C00FEF750FFEE68124BC7E9087B0A
:10186000C7E90AA9C7F830802146F3607466C6E963
:101870000044B460C6E90444B46106F15C00082287
:10188000FEF73AFF0123C6E9086BC6E90AA9C6F8C4
:101890003080AB61BDE8F88F480D010801170008E2
:1018A0000900010012000200AD1E0008D51E00084C
:1018B000151F0008351F0008024B0349186800F087
:1018C000C9B900BF480D010879160008836903B93A
:1018D00078E77047704700BF704700BF704700BF90
:1018E000704700BF024B0349186800F08FB900BF72
:1018F000000C0020FD160008024B0349186800F098
:1019000085B900BF000C00200D1700089368002B5C
:1019100000F0FC802DE9F04FB1F90C300C469BB281
:10192000190783B0824690462BD522694AB313F03B
:101930000202D8F8006033D000273D46D4F828B022
:10194000216ADFF8C492C5B14D452B463A4628BFFF
:101950004B465046D847002840F3CE80D8F8083090
:1019600007441B1A2D1AC8F80830002B00F0B3806A
:10197000D4F828B0216A002DE6D1D6E900750836E2
:10198000E1E721465046FFF761FD002840F037812E
:10199000B4F90C30D8F800609BB213F00202CBD13E
:1019A00013F0010940F0B4804D46A7682068002D6F
:1019B00055D09A0540F1C080AF42BB4600F2EE80A0
:1019C00013F4906F2FD0D4E9041707EB4707A0EB6F
:1019D000010B07EBD777681C7F105844B8423A4692
:1019E00084BF07463A465B0540F1F08011465046F9
:1019F000FEF726FF002800F0FC805A46216901907E
:101A0000FEF704FEA289019B22F4906242F080025C
:101A1000A281A7EB0B0203EB0B006761AB462F46DD
:101A200023612060A2605A46494600F0B3F923685A
:101A3000A2685B44AB460025D71BA7602360D8F89B
:101A40000870D944A7EB0B07C8F80870002F42D0E4
:101A5000B4F90C30A7689BB22068002DA9D1D6E953
:101A600000950836A3E70BF1080353F8047C9B4666
:101A700053F8086C0833002FF7D03A460A21304655
:101A8000FEF74EFD002854D00130A0EB06094B466E
:101A900020682169BB4228BF3B468842626903D95E
:101AA000A5681544AB421ADC9A4200F381801346C4
:101AB000A56A3246216A5046A847051E1CDDB9EBCF
:101AC00005096ED00120D8F808302E445B1B7F1B1F
:101AD000C8F8083013BB002003B0BDE8F08F3146D2
:101AE0002A4600F057F9236821462B4423605046CC
:101AF000FFF7C2FD0028E2D0B4F90C304FF0FF3000
:101B000043F04003A38103B0BDE8F08F002070478D
:101B100033469146104617464E469B46002FA2D0AC
:101B20000028B4D13A460A213046FEF7F9FC0028D5
:101B3000AAD17B1C9946ABE72369834217D362691C
:101B4000AA4214D82F4BA76A9D4294BF2B466FF030
:101B5000004393FBF2F3216A02FB03F350464A462B
:101B6000B847B0F1000BC7DDA5EB0B0567E7AF4247
:101B700028BF2F4649463A4600F00CF9A368226870
:101B8000DB1B3A44BB46A3602260002BECD121460C
:101B90005046FFF771FD0028E6D0ADE72F46AB4673
:101BA00041E721465046FFF767FD00288BD0A3E7A9
:101BB0001A4631461D46019300F0ECF8A1682268F0
:101BC000019BC91A1344A160236078E7504600F0D6
:101BD00047F9034600287FF41CAF21695046FEF701
:101BE000DBFD0C22B4F90C30CAF8002023F080038E
:101BF00084E70C22B4F90C30CAF800207EE74FF0DD
:101C0000FF3069E7FEFFFF7F00FCFF7F2DE9F04119
:101C100010F148071AD088460026D7E90154013D43
:101C20000ED4A389013D012B06D9B4F90E3001333E
:101C300002D02046C04706436B1C04F16804F0D173
:101C40003F68002FE9D13046BDE8F0813E4630467E
:101C5000BDE8F0812DE9F84310F148061ED0884612
:101C600007464FF00009D6E90154013D10D4A3897D
:101C7000013D012B08D9B4F90E30013304D02146BF
:101C80003846C04749EA00096B1C04F16804EED1EC
:101C90003668002EE7D14846BDE8F883B14648468D
:101CA000BDE8F88370B50C46B1F90E1096B0002966
:101CB00016461D4613DB6A460DF09BF800280EDB26
:101CC000019A4FF4806302F47042A2F50052B2FA16
:101CD00082F2002052092A60336016B070BD0022E3
:101CE000A3892A601B0604D540230020336016B068
:101CF00070BD4FF480630020336016B070BD00BF2C
:101D00008A890B46920706D5012103F147025961E2
:101D10001A601A61704770B582B001AB6A460C4612
:101D20000646FFF7BFFF009905463046FEF788FDDF
:101D3000B4F90C3070B1164A0099B262019A43F0BE
:101D40008003A3812060C4E904018AB92B43A381E5
:101D500002B070BD9A05FBD4012123F0030304F106
:101D6000470243F00203A381616122602261EFE731
:101D70003046B4F90E100DF048F810B9B4F90C3033
:101D8000E4E7A38923F0030343F001031BB2DDE77B
:101D9000011700088842F0B40DD98B1883420AD984
:101DA000841832B1224613F8014D994202F8014DD0
:101DB000F9D1F0BC70470F2A0ED80346541E002AF2
:101DC000F7D001340C44013B11F8012BA14203F878
:101DD000012FF9D1F0BC704740EA01039B073AD1CB
:101DE000A2F110073F0901F1200606EB071601F1E9
:101DF000100300F1100453F8105C103344F8105C29
:101E000053F81C5C103444F81C5C53F8185C44F81C
:101E1000185C53F8145CB34244F8145CEBD17B1C9F
:101E20001B0112F00C0F194402F00F05034415D0EA
:101E30000E46043DAD0803EB850C1C1F56F8047BD1
:101E400044F8047F6445F9D10135AD002B442944A1
:101E500002F00302B2E7541E0346B2E72A46ADE79A
:101E600009B3F8B51446CAB106460D4600F066F847
:101E7000A04202D32F463846F8BD21463046FEF731
:101E8000DFFC07460028F6D022462946FEF7BEFBB7
:101E900030462946FEF780FC3846F8BD2746FEF757
:101EA0007BFC3846F8BD1146FEF7CABC10B50C469F
:101EB000B1F90E100CF085FF002803DB636D0344BD
:101EC000636510BDA38923F48053A38110BD00BFB7
:101ED000002070472DE9F041B1F90C409846E30528
:101EE0000D461746B1F90E10064609D424F4805465
:101EF000AC8143463A463046BDE8F0410CF068BF3D
:101F0000022300220CF062FFB5F90C40B5F90E1067
:101F1000ECE700BF10B50C46B1F90E100CF056FFFF
:101F2000A389421C0EBF23F4805343F480536065A1
:101F3000A38110BDB1F90E100CF04CBF51F8043C58
:101F4000181F002BBCBF0B58C01870470E4A002347
:101F5000114610B5147C84420FD11C225343CA1879
:101F6000906848B1CB58FF2818BF43434FF0010099
:101F700018BF5B000133536010BD01330B2B02F11E
:101F80001C02E7D10020F7E7E00E0020F0B50A4D73
:101F900000242E462F7C874207D11C2000FB0464BE
:101FA000012061762276A376F0BD01340B2C05F179
:101FB0001C05EFD10020F7E7E00E0020094A30B5FC
:101FC00000231446157C854205D11C22012002FB0A
:101FD0000343996030BD01330B2B02F11C02F1D198
:101FE0000020F7E7E00E0020094A30B50023144630
:101FF000157C854205D11C22012002FB0343596058
:1020000030BD01330B2B02F11C02F1D10020F7E7A8
:10201000E00E002070B50B4C00232546267C86423E
:1020200009D11C204343E818E95000238260C360B3
:102030004374012070BD01330B2B04F11C04EDD15E
:102040000020F7E7E00E002070B500252E462B4C4F
:102050006368002B4FD0E06808BB637CB3FA83F35E
:102060005B0963740AF026FFD4E900239342E06021
:102070002BD266606674E66063690BB1207C98477A
:10208000207CFF2824D100221146104608F0D2FC03
:1020900001350B2D04F11C04DAD1012070BD0AF0CA
:1020A0004FFF23689842D8D26368002BE4D02046C3
:1020B00002F0F8FE0028EBD0637C207CB3B1FF284F
:1020C0000CD1A27E217E607EE0E79B1A6360EBE785
:1020D0006228DDD800231A46194604E06228D7D8C2
:1020E000A37E227E617E07F0FFFDD1E7FF28CAD0E4
:1020F0006228CDD8EFE76374E360C9E7E00E002003
:1021000007B503788DF8003043788DF80130837877
:102110008DF8023003798DF80330C37868468DF866
:1021200004300EF079FC03B05DF804FB08B5074BF2
:102130005A78032A07D858680AF002FFC72894BFC4
:102140000020012008BD0020FCE700BFA40C0020F7
:102150007047000010B5144C202220464FF48041F7
:102160000CF0D7FF204620224FF400410CF0D1FFA5
:10217000002280214FF080400CF0CBFFFFF7E8FFFA
:1021800000BF00BF00BF00BF00BF00BF00BF00BF57
:1021900000BF00BF00BF00BF00BF00BF00BF00BF47
:1021A00000BF00BF10BD00BF0008004008B501F02F
:1021B00045FB08BD08B5054C20780DF00DFF2078D3
:1021C000FFF7F4FF05200BF0ECFDF5E7C03D002024
:1021D00010B5084C236803F07142074B134323608A
:1021E0000AF068FE054B18602068BDE8104004F056
:1021F0007EBD00BFC03D00200001010EC4110020C3
:1022000010B5064C0122204602210CF082FF022369
:10221000A361BDE8104001F003BC00BF0004004012
:1022200001207047124B10B51C789CB9114B1B78DC
:10223000042B0FD104F048FC04F05CFC04F00EFC0D
:1022400004F088FC20460AF0DBFC2046BDE8104084
:102250000AF0F2BC0EF0E4FB48B10DF0B3FE00282A
:10226000FBD1BDE810404CF250300BF09ABD10BDD0
:10227000C03D0020CC410020002370B50D460B70FE
:1022800004462A4E00283AD00AF014FE284B30604B
:102290001A6912F4804F1A4602D01B691E0435D405
:1022A0001369590402D413691B0431D4204A1369F9
:1022B000C3F380332BB1136913F4004F14BF002311
:1022C00002231C4A1278511E042923D9062A23D03E
:1022D000002A0CBF03200020174A14B91178994234
:1022E0001CD1181A18BF0120022B137018D0032B11
:1022F00018D0012B18D102232B70044604E030685B
:102300000AF01EFE3228BFD8204670BD0323D8E74E
:102310000123D6E70120DFE70220DDE72046E3E7DF
:102320000323E9E70123E7E70023E5E7D4110020D1
:1023300000080040C03D0020CA110020084B9A78D8
:10234000012A07D0022A09D0064B1868B0FA80F09B
:102350004009704758780128F6D170470120FCE702
:10236000A40C00203813002008B5054B9B78013BD6
:10237000012B02D9FFF7E2FF08BD0120FCE700BFF7
:10238000A40C002008B50AF095FD014B986008BD2B
:10239000A40C002010B5094C2378207063700AF05B
:1023A00089FD6060FFF7EEFF00F054FEBDE81040CD
:1023B0000022034B53201A700EF08EBAA40C00209A
:1023C000D01100202DE9F0410C46154607460028A3
:1023D00041D0B1FA81F35B099BB15A4E5A4A337826
:1023E000002C3CD00221012B91610AD030460CF028
:1023F0006FFE30460CF034FA5448554B83600AF0B7
:10240000D5FBA74201D0FFF70DFF524E3378013BB9
:10241000012B04D80320FFF7BDFF0023B3704E4EFD
:102420003378A34200D11DB100224C4B9A619A83AC
:10243000347024B1631E042B747098BFB47030687C
:1024400004F055FC3378062B76D8DFE803F07319D7
:1024500036404A545E000B1C18BF0123BCE74FF402
:102460000031042B9161CCD03D4BDFF8E0801C7033
:102470003C4B3046C8F808300AF0CEFF4046BEE775
:10248000312075B10EF028FA52200EF025FA012005
:102490000EF02EFA4EF2694143F22D400EF09EFAF4
:1024A00051200EF019FAFFF76DFF2A4621463846F3
:1024B00001F05CFF0120BDE8F0813220002DF0D05A
:1024C0000EF00AFA52200EF007FA0220E0E733205D
:1024D000002DE6D00EF000FA52200EF0FDF9032098
:1024E000D6E73420002DDCD00EF0F6F952200EF0A5
:1024F000F3F90420CCE73520002DD2D00EF0ECF912
:1025000052200EF0E9F90520C2E73020002DC8D096
:102510000EF0E2F914480EF02DFA14480EF044FAC9
:102520004EF2694143F22D400EF058FA52200EF05F
:10253000D3F9B5E71120B4E711200EF0CDF9FFF77C
:1025400047FEB0E7CC410020000400409411002079
:1025500001210008A40C0020C03D0020640C0020D4
:10256000102E0020DDD400083B0E01083E0E0108AD
:10257000002313B50DF107018DF80730FFF77CFE3E
:10258000044690B19DF80730013B032B0DD8DFE8DE
:1025900003F002060F1200221146094B02E000224E
:1025A000074B99781878FFF70DFF204602B010BD51
:1025B00000220621F1E7024B00225978F2E700BF22
:1025C000C03D002013B5124C20460DF08DFC0123B8
:1025D000A37704F089FB0F4C206008B9FFF7F8FDE2
:1025E000E37843F00103E3700AF064FC0A4BFF2236
:1025F000186000234FF4A87100930848084B0BF0B3
:102600009DFBFFF7A7FD0120FFF7B2FF02B010BD51
:10261000640C0020C03D0020C4110020D81100200F
:10262000B521000848B1074A1378013B012B07D8B0
:1026300093782BB90320FFF7ADBE0122024B1A702D
:10264000704700BFA40C0020D0110020014B187867
:10265000704700BFA40C0020014B9870704700BF6A
:10266000A40C0020014B9878704700BFA40C0020F8
:10267000014BD870704700BFA40C00200122014B11
:102680001A707047D0110020F8B51C4C1C4DE27830
:10269000A968C2F3420219B9FFF774FE0020F8BD21
:1026A000184B53F8227023782BB9174B1B78042B47
:1026B00001D1FFF767FE154E327892B100233370D7
:1026C0004FF080431B69E278DB0963F30002237853
:1026D000E27073B102F02EF80028DFD101F0DAF8D1
:1026E000DDE7002FDAD0A8680AF02AFCB842E5D26C
:1026F000D4E7054B1B78042BECD1CDE7C03D00207F
:10270000A40C0020E80D0108CC410020D0110020CD
:102710000C4B10B55A781946012A03D0022A08D06A
:10272000002005E09C78012C03D101F01BF9204624
:1027300010BD48680AF004FCC728F1D9FFF7FEFD78
:10274000F6E700BFA40C002008B5074BDB780BB1FF
:10275000022B04D10220FFF71DFE002008BD03203C
:10276000FFF718FE0120F9E7A40C002038B50A4D48
:102770000024EB78033B012B08D80320FFF70AFE67
:102780002046AC7001F096F8012038BD0220FFF71A
:1027900001FE2046F9E700BFA40C002010B50A4C4A
:1027A000E378032B0AD3042B08D80320FFF7F2FDAC
:1027B0000020A07001F09EF8012010BD0220FFF75C
:1027C000E9FD0020F9E700BFA40C002070B59B4C88
:1027D0009B4D2068B8B10AF0B3FBB0F5FA6F12D385
:1027E0000026552026600EF077F857200EF074F87A
:1027F00070200EF071F8287832460146B0FA80F069
:102800004009FFF7DFFD2B7823B18E4B93F8202092
:102810008D4B1A702368DBB98C4E30680AF090FB40
:1028200040F6B733984213D92B788BB10DF0CAFB21
:1028300070B9844CA37F5BB10AF03CFB306053203D
:102840000EF04AF894F8213013B970200EF044F8D5
:102850004FF080431B69EA78DB097D4C63F300028B
:102860000020EA70FFF784FE2378032B1ED8DFE8F0
:1028700003F0022857ACE36833B1984720B1012038
:10288000FFF788FD0023A370236933B1984720B177
:102890000120FFF77FFD0223A370636933B19847DE
:1028A00020B10120FFF776FD0123A3700DF00EFF8C
:1028B000684B1B78002B00F0BF80BDE8704003F030
:1028C00043B9A369002BF1D098470028EED002F05D
:1028D0002FFB614C207008BB06F052F800F001009D
:1028E000207008F075FE2A785C4B1A700022554B58
:1028F0009A772A685A4B134063B95A4C2378012BB4
:1029000008D00222584B20469A610CF0E1FB204689
:102910000BF0A6FF0220FFF73DFDC7E70120DDE732
:10292000E369002BC2D098470028BFD000224F4B4C
:102930001A704FF080434FF400129A612A68484B96
:102940001340B3F1807F0FD0A37843B3022B0BD891
:102950006378022B08D0FFF765FC11200DF0BCFF57
:102960000DF030FB0028FBD100F07EFF0023E37068
:102970003A4B2A781B789A4208D12A68384B134080
:10298000B3F1807F02D0A07800F068FCA378012B1F
:1029900018D0A3B1022B89D1FFF7E8FE86E7294BB7
:1029A0005B7E002BE0D111200DF096FF0DF00AFBAD
:1029B0000028FBD147F230500BF0F3F9D4E7FFF7D2
:1029C000C3FE73E7FFF7EAFE70E7236A002B3FF4CC
:1029D0006DAF984700283FF469AF0122194B9A77F1
:1029E0001D4B1B782BB14FF0804320229A6108F0D9
:1029F000D5FD0120FFF7BCFD024628B92B789BB11D
:102A000069780846FFF7DEFC0024184B1C7000F0C4
:102A10001FFFFFF7B7FC00F01DFB2046FFF7BAFCD5
:102A200053200DF059FF41E70E4A1278012AEBD1ED
:102A30001A4619466878E5E770BD00BFC41100204A
:102A4000C03D0020640C0020102E0020CC1100207E
:102A5000A40C0020C9110020C0110020C8110020C2
:102A6000FF000001CC41002000040040D0110020F4
:102A70000120704708B5FFF7FBFF08BD37B50446D6
:102A80000D46FFF77FFC29462046FFF7F3FF60B1B4
:102A9000074B1A784AB1074B20461B78D909009199
:102AA000C3F30013A9780DF035FE03B030BD00BFAD
:102AB000C03D0020E83D002000B50B4B8FB093F8DF
:102AC00021300A4A322101A805F0B7F801A809F01F
:102AD000BBFB0DF073FA09F0B7FB054809F0B4FB36
:102AE0000FB05DF804FB00BF640C0020080E010865
:102AF000190E01082B4B13B51A7804464AB12A4B1C
:102B000001211B78DB09009300230DF003FE02B0C6
:102B100010BD0028FBD0031FDBB2A02B12D8234B23
:102B2000014618680AF0C2F820B1204603F08EFF73
:102B300004F010F8204603F081FF02B0BDE8104019
:102B400004F008B800F12003DBB2072B07D800F02F
:102B500007040120A040C0B203F0A6FFEDE700F19A
:102B60005B03DBB2022B06D8114AD05C02B0BDE891
:102B700010400AF045B800F15803DBB21A2B07D811
:102B80000C4A32F8130002B0BDE810400AF054B805
:102B90003334E4B2122CBAD8012102B0BDE810409F
:102BA00003F0BAB8C03D0020E83D00202C10002002
:102BB000AC0D0108B00D0108244B13B51A7804467A
:102BC0004AB1234B1B78DB090093002319460DF013
:102BD000A1FD02B010BD0028FBD0031FDBB2A02B6B
:102BE00006D803F033FF02B0BDE8104003F0B2BFD7
:102BF00000F12003DBB2072B07D800F00704012007
:102C0000A040C0B203F058FFEDE700F15B03DBB278
:102C1000022B05D8104602B0BDE8104009F0F0BF05
:102C200000F15803DBB21A2B05D8104602B0BDE8FC
:102C300010400AF001B83334E4B2122CC9D811465E
:102C400002B0BDE8104003F067B800BFC03D0020EF
:102C5000E83D00202DE9F3410546C0B1114E327820
:102C6000C2B10127DFF84080284602F0E6FF0446A3
:102C700098F80030E030DB0900933278002301211E
:102C800080B207FA04F40DF045FDA543ECD102B083
:102C9000BDE8F08103F008FF02B0BDE8F04103F0A9
:102CA00059BF00BFC03D0020E83D00202DE9F341A1
:102CB0000546C0B1114E3278C2B10127DFF840801D
:102CC000284602F0BAFF98F800300446DB0900936A
:102CD0000023E0303278194680B207FA04F40DF090
:102CE00019FDA543ECD102B0BDE8F08103F0E4FE8C
:102CF00002B0BDE8F04103F02DBF00BFC03D002091
:102D0000E83D00202DE9F3410546C0B1114E32786F
:102D1000C2B10127DFF84080284602F08EFF04464A
:102D200098F80030E030DB0900933278002301216D
:102D300080B207FA04F40DF0EDFCA543ECD102B02B
:102D4000BDE8F08103F0C6FE02B0BDE8F04103F03B
:102D500001BF00BFC03D0020E83D00202DE9F34148
:102D60000546C0B1114E3278C2B10127DFF840806C
:102D7000284602F062FF98F800300446DB09009311
:102D80000023E0303278194680B207FA04F40DF0DF
:102D9000C1FCA543ECD102B0BDE8F08103F0A2FE76
:102DA00002B0BDE8F04103F0D5BE00BFC03D002039
:102DB000E83D00202DE9F04104460E4601F0BCFB41
:102DC000E8B92378013B142B50D8DFE803F00B1B44
:102DD0004A646A747777777CCC82868C959EA1A4AE
:102DE000ADB6BF00002363700C23A370624B314665
:102DF0001B782046002B40F0BB800AF075FB0120B9
:102E0000BDE8F0816378013B032B2FD8DFE803F0A6
:102E1000020C0F230AF04EF8030EA370030CE370AC
:102E2000030A23716071E1E708F071FEF4E72546BB
:102E3000A77804F11B08052FD8D8F8B204F0D6FA09
:102E4000030CEB70030A2B7168710335454507F1DC
:102E50000107F0D1CAE70023A370E3702371637107
:102E6000C4E76378022B04D0052B10D0FF23237016
:102E7000BCE7E378A07840EA0320237940EA0340E6
:102E8000637940EA036000BA08F044FEAEE7A07838
:102E900008F06AFEAAE7E278A178607809F0CEFA35
:102EA000BEE722796379A17843EA02236078E27869
:102EB00009F0DAFA9AE709F027FB97E7314620464E
:102EC00008F033FF92E7002008F007FE08F02DFE1F
:102ED0008CE709F0A3FB607088E709F0A1FB030A07
:102EE0006370A07082E76078A378221DE17843EADE
:102EF000002009F098FB79E76078A378221DE1783B
:102F000043EA002009F0A9FB70E709F0B9FB6DE77F
:102F100009F088FADFE76078A378221DE17843EAB8
:102F2000002009F03BFB61E76078A378221DE1787F
:102F300043EA002009F049FB58E7E278A178003223
:102F400018BF0122607809F0A4FA69E7E2782179D4
:102F50006379003243EA012318BF0122A178607827
:102F600009F0B6FA42E70123044A637013703DE7A3
:102F70000DF0AEFD43E700BFC03D0020C9110020A9
:102F800010B54378044613B1FF23237011E0837812
:102F9000013B032BF8D8DFE803F0021A284103783D
:102FA000072B07D0082BEFD1294BDB78C3F3420363
:102FB000C37010BDC1780729FBD8BDE81040244B71
:102FC000DA7861F34302DA70186803F090BE037890
:102FD000072B05D0082BD7D101F0BDFBE070E8E747
:102FE000C078BDE8104001F087BC0378072B0AD0F9
:102FF000082BC9D142790179C07801F0AEFBA071EC
:10300000000AE071D5E7C2798379017943EA0223A6
:10301000BDE810404279C07801F0B5BB0378072BBA
:103020000BD0082BB0D12379C078A21D617943EA77
:103030000020BDE8104001F0BBBB2379C078A21D81
:10304000617943EA0020BDE8104001F0CCBB00BF2D
:10305000C03D002008B509F02DFF014B186008BDE8
:1030600028130020174B10B51C789CB9164B1B7801
:10307000052B08D0022B06D009F01CFF134B18605B
:10308000134B1C7010BD4FF080431B691B0605D409
:10309000FFF7F4FABDE81040FFF7DCBF0B4B1868F0
:1030A0000028F7D009F04CFF41F657339842E9D990
:1030B000FFF7D0FFBDE810400122054B1A70FFF763
:1030C000DDBA00BFC03D0020CC4100202813002005
:1030D0002C1300202DE9F0411A4C804625781DB1B3
:1030E00001242046BDE8F081FFF7B0FA013801283D
:1030F00005D80320FFF74EF92846FFF7ADFA2778E9
:10310000002FEDD1104D2B78052BE9D1B5F84C30BF
:103110009B0702D50D4E34782CB9B8F1FF0F94BF40
:1031200000240124DDE7FFF791FA0328D8D837708F
:10313000FFF790FF28460BF03FFC284601F03CFAD1
:10314000CFE700BFC03D0020CC4100202C13002061
:10315000704700001A4B70B59C6C0F2644F4C06495
:103160009C649B6C012301F003048B4021F003015C
:1031700001F1804101F5A0518D68A400C0F38320C6
:10318000A04006FA04F425EA040528438860D843E1
:103190000C4912F0010F8C6814BF1C4304408C6072
:1031A00012F0020FCA6814BF1A430240CA60054AEF
:1031B000536111680B43136053680340536070BD43
:1031C000000C0140001800400F281FD8DFE800F075
:1031D000080C0F121518181818181B1B1B1B1B1B8B
:1031E000062108460BF027BE06210720FAE7062134
:1031F0000820F7E706210920F4E706210A20F1E775
:1032000006211020EEE706212120EBE77047012080
:103210007047000008B5FFF7FAFFE0B1012207216F
:103220004FF08040FFF796FF0720FFF7CDFFFFF735
:1032300019FA03220E210848FFF78CFF0E20FFF732
:10324000C3FF054803220F21FFF784FFBDE80840B4
:103250000F20FFF7B9BF08BD000800402DE9F04777
:103260003023054683F31188FFF7D4FF00264FF083
:103270000108854FDFF83C9257F8040B95B1012DFA
:103280004DD148454BD120F00F0A00F00F0008FA4D
:1032900000F421460522504624040BF03AFFCAF8F8
:1032A000184001E0441CEED10136112EE4D1062471
:1032B0000127764EDFF8009256F8040B002D3AD025
:1032C000012D40F0D380484540F0D08000F00F0140
:1032D000202207FA01F120F00F000BF01AFF00BFC7
:1032E00000BF00BF00BF00BF00BF00BF00BF00BFE6
:1032F00000BF00BF00BF00BF00BF00BF00BF00BFD6
:1033000000BF56F8040C022200F00F08414620F0DE
:103310000F00FFF71FFF4046FFF756FF0DE0411C6F
:10332000C2D000F00F01202208FA01F120F00F00B6
:103330000BF0EFFEB8E7421CC8D1013CBCD12246DD
:103340004FF4006152480BF0E4FE00BF00BF00BF25
:1033500000BF00BF00BF00BF00BF00BF00BF00BF75
:1033600000BF00BF00BF00BF00BF00BF00BF0322FF
:103370000B214748FFF7EEFE0B20FFF725FF84F3F4
:10338000118872B60120434A136823F001031360C9
:10339000414B424A5A610022A30003F1604303F506
:1033A0006143D3F80011D5B2012D94BF002101F083
:1033B000010109B1C3F880010132202AF1D10134A1
:1033C000082CE8D1364C636843F000736360354BDA
:1033D0001A6802F009021A601A6842F46C3242F06C
:1033E00004021A6040F2B3321A622F4B43F0010319
:1033F0009847236943F00403236130BF2B4B43F00C
:10340000010398472369234A23F0040323611368C7
:10341000274C43F001031360E36943F08003E36149
:10342000A36C43F40073A3640AF08AF804F012F862
:1034300040F282324FF4006115480BF06AFEE36CF3
:1034400043F00803E364E36CA36C43F48053A36488
:10345000A36CE36C43F01003E364E36CFFF778FEC6
:10346000002383F3118862B6BDE8F087431C3FF464
:1034700064AF00F00F01402207FA01F120F00F00C5
:103480000BF047FE59E700BF5C0E0108FC0E010877
:103490000008004010E000E000180040FFFF0700B7
:1034A00000ED00E000000140D40E0108A00E01086C
:1034B000000C0140030800400D0800400120704747
:1034C00001207047831E10B504460D2B1BD8DFE882
:1034D00003F0071A1A1A1A121A1A1A141A181616B8
:1034E0000420FFF7C5F82046FFF7E8FF10B120469B
:1034F000FFF7E6FF10BD0320F3E70220F1E7072006
:10350000EFE70520EDE70120EBE701238B400342C5
:1035100002D00846FFF7D6BF7047000008B50D4B34
:103520005A69D20706D51A68002022F001021A60F3
:10353000FFF7C8FF4022084BC3F88020BFF34F8F2E
:10354000BFF36F8F0122034B5A61BDE808400AF0B8
:103550001DBD00BF0018004000E100E008B50D4BA4
:10356000586910F0020006D01A68012122F0020208
:103570001A60FFF7CAFF8022074BC3F88020BFF311
:103580004F8FBFF36F8F0222024B5A61BDE8084094
:103590000AF0FCBC0018004000E100E008B50E4B4A
:1035A000586910F0040006D01A68022122F00402C3
:1035B0001A60FFF7AAFF4FF48072084BC3F880200F
:1035C000BFF34F8FBFF36F8F0422034B5A61BDE8E7
:1035D00008400AF0DBBC00BF0018004000E100E03A
:1035E00008B50E4B586910F0080006D01A68032180
:1035F00022F008021A60FFF788FF4FF40072084BB0
:10360000C3F88020BFF34F8FBFF36F8F0822034BA7
:103610005A61BDE808400AF0B9BC00BF001800407C
:1036200000E100E008B50E4B586910F0100006D01C
:103630001A68042122F010021A60FFF766FF4FF4A7
:103640008062084BC3F88020BFF34F8FBFF36F8FAA
:103650001022034B5A61BDE808400AF097BC00BF36
:103660000018004000E100E038B5254B5C69A20677
:1036700004F4787507D51A68052122F020021A6033
:103680002846FFF742FF600608D51D4A0621136849
:10369000284623F040031360FFF737FF210608D5C3
:1036A000174A07211368284623F080031360FFF7A9
:1036B0002CFFE20508D5124A08211368284623F496
:1036C00080731360FFF721FFA30508D50C4A092179
:1036D0001368284623F400731360FFF716FF4FF4B6
:1036E0008032084BC3F88020BFF34F8FBFF36F8F3A
:1036F0004FF47872024B5A61BDE838400AF046BC7C
:103700000018004000E100E038B52A4B5C69620512
:1037100004F47C4507D51A680A2122F480621A60F5
:103720002846FFF7F2FE230508D5224A0B2113682D
:10373000284623F400631360FFF7E7FEE00408D592
:103740001C4A0C211368284623F480531360FFF7AA
:10375000DCFEA10408D5174A0D211368284623F47E
:1037600000531360FFF7D1FE620408D5114A0E2101
:103770001368284623F480431360FFF7C6FE230432
:1037800008D50C4A0F211368284623F40043136020
:10379000FFF7BBFE0222084BC3F88420BFF34F8F14
:1037A000BFF36F8F4FF47C42024B5A61BDE8384043
:1037B0000AF0ECBB0018004000E100E008B50E4B39
:1037C000586910F4802006D01A68122122F4802251
:1037D0001A60FFF79AFE0822084BC3F88420BFF353
:1037E0004F8FBFF36F8F4FF48022034B5A61BDE8B8
:1037F00008400AF0CBBB00BF0018004000E100E029
:1038000010B5074C23784BB901F0B0FB02F033FA46
:1038100009F0D2F902F030FA01232370012010BD23
:103820002E13002010B5044C23781BB101F0E0FCEE
:1038300000232370012010BD2E130020024B1B78A3
:103840000BB10DF013B87047311300200120704701
:1038500008B5044B1B780BB9FFF7D2FF01F0C6FB8C
:1038600008BD00BF2E13002008B5064B1B780BB116
:10387000FFF7D8FF0023044A1370044A1360FFF7D0
:10388000E5FF08BD2E1300203C130020401300204C
:103890000120704708B5FFF7FBFF08BD014B187802
:1038A000704700BF2F130020014B1870704700BFF6
:1038B0002F130020014B1870704700BF2F130020FA
:1038C000014B1878704700BF30130020084B10B52B
:1038D0000446187058B9FEF7B9FE022807D803202D
:1038E000FEF758FD2046BDE81040FEF7B5BE10BDFE
:1038F00030130020FFF7EABF024B187880F0010078
:10390000FFF7E4BF301300200122014B1A7070470B
:1039100030130020084B1A78084B1B784BB982F003
:103920000102A0F5A443203B1F2B8CBF10460120B1
:1039300070470022F5E700BF301300202F1300204E
:1039400000231946054A93721360054A01330B2B75
:10395000917242F80C1BF9D1704700BF2010002073
:10396000C80C002008B503F0E7FDFFF7E9FF0022CF
:10397000014B1A6008BD00BF3813002001EB410263
:1039800001460148FCF742BEC43D0020104B70B414
:103990001B78104D13F0010369780F4806D02B787F
:1039A00070BC03EB43031844FFF7E8BFAA78EE7836
:1039B00002EB42040444964204F10304EFD90132BD
:1039C00004F8023C04F8033C04F8013CD2B2F2E7EC
:1039D0001C3E002038100020C43D002038B501F006
:1039E000A7FA48B90446002320461A46194601346E
:1039F00006F07AF95B2CF6D15B25074CA378227888
:103A000061782846013506F06FF9632D04F103044F
:103A1000F4D1012038BD00BFC43D00200120704713
:103A200008B5FFF7EDFEFEF7CDFD01F0B9FA48B19C
:103A3000012220214FF080400BF06BFB4FF08043C0
:103A400020229A6108BD000008B500230E4A1370B9
:103A50000E4A13700E4A136004F092FF78B901F019
:103A600067FA60B907F0C4FD4FF080434FF40012CD
:103A70009A6101F04FFFBDE8084003F0DAB94FF05A
:103A800080432022F4E700BF2D13002032130020D2
:103A90003413002008B503F091F906F0F3F803F0B1
:103AA0001CF90022084B1880084B1A7005F016FB11
:103AB00004F02EFF05F0FAFA01F002FB18B1BDE8A0
:103AC0000840FFF7C1BF08BDE83D002035250020B4
:103AD00037B504460D4601F005FB002800F0BD8017
:103AE000002D00F0BA8047F604639C4200F0858008
:103AF00029D847F601639C425BD00AD847F60343B6
:103B00009C4200F0A780B4F5FC4F3CD0284603B09F
:103B100030BD47F602639C425DD047F603639C428A
:103B2000F4D100230DF1070101208DF80730FEF7D5
:103B3000A3FB9DF80730042B02D013F0FD0FE5D155
:103B40000122042130E047F612639C427BD00BD85F
:103B500047F605639C4263D047F611639C42D5D17A
:103B60000020FFF7B3FED1E747F613639C426ED007
:103B700047F643639C42C9D10122394B1A70002297
:103B8000384B1A60C2E700230DF1070101208DF8C0
:103B90000730FEF771FB9DF80730042B02D013F0BD
:103BA000FD0FB3D1012211462F4B1878FEF70AFC06
:103BB000ACE700230DF1070101208DF80730FEF777
:103BC0005BFB9DF80730042B02D013F0FD0F9DD155
:103BD00001220221E8E700230DF1070101208DF801
:103BE0000730FEF749FB9DF80730042B02D013F095
:103BF000FD0F8BD101220321D6E700230DF1070130
:103C000001208DF80730FEF737FB9DF80730042BB5
:103C100003D013F0FD0F7FF479AF01220521C3E734
:103C200000230DF1070101208DF80730FEF724FB7A
:103C30009DF80730DA1E012A02D9002B7FF466AF07
:103C400001220621B0E70122084B1A705EE7FFF758
:103C500053FE5BE7FFF71EFF58E7054656E700BF38
:103C60003213002034130020C03D00203013002008
:103C700070B51A4CFEF7AAFD206858B1A37A4BB96B
:103C800009F05EF96368984204D301212089A1728A
:103C9000FFF71EFF00250126114C206858B1A37ABA
:103CA0004BB909F04DF96368984204D3A67201211B
:103CB0002089FFF70DFF01350B2D04F10C04ECD129
:103CC000084B1A783AB100221A700CF07BF90028E0
:103CD000FBD1FFF7DFFE01F08FF970BD201000204F
:103CE000C80C00204413002008B5064B1B780BB904
:103CF000FFF786FD4FF0804320229A61BDE808401F
:103D000001F0BCB82E1300202DE9F7430D46C04A40
:103D100089780446136891B1032B00D80133BD4E56
:103D20001360FEF72FFB33899C4204D1AF7857B163
:103D300009F0C0F83060B84B0027984629E0002B06
:103D4000EDD0013BEBE7B37A0BB93360F3E73946CB
:103D50002046FFF7BDFEB77237600028EBD1002484
:103D6000F1E07E4308EB0607BB7A13B948F806304A
:103D70001DE049462046FFF7ABFE87F80A9048F859
:103D800006900028EBD012E001370B2F03F10C0353
:103D90000DD01A899442F7D195F802900C26B9F10A
:103DA000000FDED009F086F87E4348F80600294669
:103DB0002046FFF7AFFD0028D1D02946204601F06C
:103DC00025FA0028CBD047F609639C4200F0A58174
:103DD00069D847F603639C4200F026812AD8B4F5DF
:103DE000FC4F00F0BE8009D847F620039C4200F04B
:103DF0006C8147F603439C42B1D009E047F601636A
:103E00009C4200F0CD8047F602639C4200F0E480C3
:103E10002946204600F090FD0028A0D029462046E3
:103E2000FFF758F900289AD020462946FEF726FECB
:103E3000044688E047F606639C4200F02D8123D8B3
:103E400047F604639C4200F00B8147F605639C42F1
:103E5000DED1AB78002B82D0704C2278062A3FF45A
:103E60007EAF00230DF1070101208DF80730FEF72A
:103E700003FA9DF80730DA1E012A02D9002B7FF4DD
:103E80006EAF0022062187E047F607639C4265D0AB
:103E900047F608639C42BBD1AB780BB105F010F933
:103EA00004F06EFD1EE147F60F639C4200F0518165
:103EB00025D847F60C639C4200F03D810FD847F6A9
:103EC0000A639C4200F0308147F60B639C429FD10D
:103ED000AB78002B3FF443AF04F084FE3FE747F696
:103EE0000D639C4200F02E8147F60E639C428FD1F9
:103EF000AB78002B3FF433AF04F038FE2FE747F6E2
:103F000041639C4218D010D847F610639C4200F0E1
:103F1000278147F640639C427FF47AAFAB78002B51
:103F20003FF41DAFFEF7C8FD19E747F642639C4218
:103F30000DD047F643635EE7AC78394B14B10122EC
:103F40001A700CE71C70204603B0BDE8F083AB7814
:103F5000002B3FF404AFFEF791FB00E7AA78314B4A
:103F6000EEE7AB78002B3FF4FAAE2C4C2278012A16
:103F70003FF4F5AE00230DF1070101208DF8073065
:103F8000FEF77AF99DF80730042B03D013F0FD0FEC
:103F90007FF4E5AE002201212078FEF713FADEE679
:103FA000AB78002B3FF4DBAE1C4C2278022A3FF4A6
:103FB000D6AE00230DF1070101208DF80730FEF782
:103FC0005BF99DF80730042B03D013F0FD0F7FF44D
:103FD000C6AE00220221DFE7AB78002B3FF4BFAE74
:103FE0000E4C2278032A3FF4BAAE00230DF10701EC
:103FF00001208DF80730FEF73FF99DF80730042BBC
:1040000003D013F0FD0F7FF4AAAE00220321C3E713
:104010003813002020100020C80C0020C03D0020D4
:10402000311300202D130020AB78002B3FF497AE06
:104030004F4C2278042A3FF492AE00230DF1070181
:1040400001208DF80730FEF717F99DF80730042B93
:1040500003D013F0FD0F7FF482AE002204219BE712
:10406000AB78002B3FF47BAE414C2278052A3FF41D
:1040700076AE00230DF1070101208DF80730FEF721
:10408000FBF89DF80730042B03D013F0FD0F7FF4ED
:1040900066AE002205217FE7AB78002B3FF45FAED0
:1040A000334C2278002A3FF45AAE00230DF1070169
:1040B00001208DF80730FEF7DFF89DF80730012B5F
:1040C0003FF64DAE0022114666E7AB78002B3FF479
:1040D00046AE00F02DFF80F00100C0B200F030FFCE
:1040E00000F026FF30B107F06BFA4FF0804320223A
:1040F0009A6134E604F044FC00287FF430AE00F00E
:1041000017FF044600287FF42AAE07F071FA4FF03B
:1041100080434FF400129A6115E7AB78002B3FF40F
:104120001EAE04F0A9FF1AE6AB78002B3FF417AEE1
:1041300004F0AEFF13E6AB78002B3FF410AE04F0B2
:1041400065FD0CE6AB78002B3FF409AE04F0FCFCF7
:1041500005E6AB78002B3FF402AE04F01BFDFEE554
:10416000AB78002B3FF4FBAD04F028FDF7E500BF72
:10417000C03D0020014B1878704700BF3C13002061
:1041800001207047F8B505460C46574E574F21465B
:104190002846FFF7F5FF50B1062C08D8DFE804F0F9
:1041A00004084F91919E9E0000224F4B1A60F8BD6B
:1041B000326862BBA5F12B03092B0DD8DFE803F0B1
:1041C000220C0C0C0C0C0C1D18050022FF231146B0
:1041D0003420FDF7DBFE01224FF4FA712846FDF78B
:1041E00019FF2846FDF7B2FE08F064FE3060DEE7F6
:1041F0000022FF2311463320EBE70022FF23114664
:104200003220E6E70023FF2219462B20E1E7104683
:1042100008F096FE47F22F53984203D90524344BF9
:104220001C70B4E77B7E0BB10324F8E7314B1B789D
:10423000002B4FD02846BDE8F840FDF787BE306818
:1042400090BBA5F12B03092BB1D801A252F823F0A2
:104250009F420008AF410008AF410008AF4100088D
:10426000AF410008AF410008AF4100089542000887
:104270008B420008794200080022FF2311463420B7
:10428000FDF784FE0122C821A8E70022FF23114682
:104290003320F5E70022FF2311463220F0E7002308
:1042A000FF2219462B20EBE708F04AFE47F22F5376
:1042B000984201D90624B2E77B7E002BB6D00424B5
:1042C000ADE7FF224FF4FA612846FDF7A3FE28462A
:1042D000FDF73CFE0022064B1A7068E70022044BF3
:1042E0001A70FEF7CBF9A5E740130020640C0020FC
:1042F0003C130020C03D0020014B1978FFF742BF5E
:104300003C1300200120704770B506460D4634204E
:104310000021FDF769FE10B90024204670BD002180
:104320003320FDF761FE0028F6D000213220FDF792
:104330005BFE0028F0D000212B20FDF755FE002861
:10434000EAD029463046FFF7DDFF04460028E3D0D7
:104350000022044B29461D70034B30461A60FFF7BC
:1043600011FFDAE73C1300204013002070B50C4623
:104370001546FDF755FF064680B17CB1134B5B7EB9
:1043800013BB013C052C09D8DFE804F0030C12082C
:1043900008182DB102213420FFF7B6FF304670BD5A
:1043A0000121F8E715B102213320F5E70121FBE7F0
:1043B00015B102213220EFE70121FBE715B10221FF
:1043C0002B20E9E70121FBE71E46E7E7640C00200C
:1043D00008B5094B1B786BB9FEF738F950B9074B94
:1043E0001A783AB1064A527E22B95978BDE8084097
:1043F000FDF7E8BF08BD00BF3C130020C03D002012
:10440000640C0020704700002DE9FF47454E05462B
:104410000F46FFF7F7FFFFF7DBFF3478002C32D0B1
:10442000414D2B6813B908F045FD2860286808F055
:1044300087FD41F28733984205D9337801333370D1
:1044400008F038FD28603378013B032B17D8DFE8EC
:1044500003F0020C101400229620114606F0EAFA2E
:104460000024204604B0BDE8F087002296211046C3
:10447000F4E7002196220846F0E79622F6E70024AA
:1044800034702C60EDE7294B1B78BBB939462846C0
:10449000FFF7A4FA0028E3D039462846FFF7BEFA12
:1044A0000028DDD03946284600F02EFE04460028BC
:1044B000D6D039462846FDF7C7FDD2E7002320466F
:1044C0001A461946013405F00FFC5B2CF6D1002486
:1044D000DFF85CA0DFF85C900DF104080A26514675
:1044E00032464046FCF792F899F81F30E2B2B3FB2F
:1044F000F6F6964214F8080011D9312B03D900239F
:104500009622194605E01D2B4FF00003F8D81A46F5
:104510009621013405F0E8FB0A2CDFD1B6E7002331
:104520001A46EEE732130020341300202D1300202A
:104530002C0C0108640C002070B505460E46FDF7F2
:1045400021FFFEF783F810B10320FDF723FF2B783E
:104550000A2B0ED10124084B31461C70074B28460C
:104560001B781BB908F0C0FF204670BD0CF0B0FAF4
:10457000FAE70020F9E700BF44130020C03D002007
:10458000012810B5044611D002280AD1FEF75EF8C2
:104590000138012805D80320FDF7FCFE0020FEF7B6
:1045A0005BF82046BDE8104008F02CBC014B1870A9
:1045B000F7E700BF90110020014809F0F2BB00BFEF
:1045C000A08601000D4BF0B51B688BB1222249007B
:1045D00002FB00100A4901220E461D5A31F8027BE7
:1045E000D4B2AF4205D104F0070236F812201A52B5
:1045F000F0BD0132092AF1D10022F8E7481300206A
:10460000581201082DE9F04385B004460E4607F024
:1046100089F84FF022084FF000092D4D2D4F68808A
:10462000E0B2864250D92C4900230EE01CF801EB81
:10463000BEF1FF0F01D086451CD00132112AF5D101
:104640000133062B01F111013CD08C460022EDE72D
:10465000012B08D1012A06D16B88ADF804908DF8A2
:104660000630019819E06B88ADF800108DF8023023
:10467000009812E0396829B308FB031333F81210CD
:1046800033F8123049BADAB21B0AE1D1002AEAD172
:10469000ADF808208DF80A20029803F0AFFEC0F3B1
:1046A00007238DF80C00C0F307408DF80D308DF80E
:1046B0000E009DF80E309DF80C209DF80D10204640
:1046C00005F012FB0134ABE705B0BDE8F08300BF95
:1046D0004C0D002048130020500D002041EA020339
:1046E000184310B405D10146CC22094810BCFCF790
:1046F00003B8002411230648013B13F0FF030170A7
:1047000042702044F8D12234CC2CF3D110BC704735
:104710004C13002010B5064A0B461478012C05D125
:1047200058780978FFF74EFF204610BD0020FCE7BF
:104730004C0D0020024B1878431E584258417047D8
:104740004C0D0020CC23584301EB01110A442230C8
:1047500000EB4200704704207047032838B510D89A
:1047600005290ED8102A0CD8FFF7ECFF054603F0F8
:1047700071FA0446681C03F06DFA44EA002080B226
:1047800038BD0020FCE7032870B51C460FD805296A
:104790000DD8102A0BD8FFF7D5FF0546E1B203F07C
:1047A000C1FA210A681CBDE8704003F0BBBA70BDB5
:1047B0002DE9F843002405460F461646A14600F1B0
:1047C0002208BC4208EB040001D1BDE8F8832B1994
:1047D000B3F54C7F04DA03F03DFA30550134F0E7CD
:1047E00006F80490FAE72DE9F04105460E4690469A
:1047F000002400F12207B44207EB040001D1BDE818
:10480000F0812B19B3F54C7F03DA18F8041003F08C
:1048100089FA0134EFE70000032806D8CC2202FB16
:1048200000F10248223103F063BA70474C130020B4
:10483000032838B50CD8084A00231478012C07D176
:104840005578A84206D11370FFF7E6FF204638BD21
:104850000020FCE71846FAE74C0D0020032806D894
:10486000CC2202FB00F10248223103F089BA7047E2
:104870004C130020074B084A10B51A600023074C60
:104880002370607006F04EFF60806078BDE81040D5
:10489000FFF7E4BF481300204C1300204C0D00200C
:1048A000032808B50CD8074A5070FFF7D7FF06F069
:1048B000CFFE2D2802D02D2006F0C7FE012000E0FB
:1048C000002008BD4C0D0020032810B510D8094B5E
:1048D000197869B9012458701C70FFF7BFFF06F002
:1048E000B7FE2D2802D02D2006F0AFFE204600E0B6
:1048F000002010BD4C0D0020032810B5044609D837
:10490000FFF7ACFF2046FFF793FF2046BDE81040BD
:10491000FFF7C6BF10BD000008B5054802F0F6F964
:10492000BDE808404FF44C722221024803F0E0B980
:10493000140F01089E16010808B50B4B0A461B7898
:10494000012B0CD1A0F5A44020381F2809D9887864
:1049500020B150780978FFF735FE002008BD01200E
:10496000FCE71846FAE700BF4C0D002070B504467E
:104970000078FF2801D106F06BFE0C4900220D469D
:1049800011F8016BD3B2864203D00132102AF7D15D
:1049900013462278FF2A13BFFF22013303F00F03CF
:1049A0002270E85CBDE8704006F04FBE7612010848
:1049B00038B50B780546FF2B0C4602D106F048FEB1
:1049C0002070284638BD38B540F2563440F266357E
:1049D00020460021013403F068F9AC42F8D138BD1B
:1049E00010B506F035FE0023054911F8014BDAB287
:1049F000844203D00133102BF7D11A46104610BD64
:104A00007612010810B50446FFF7EAFF2146BDE81B
:104A1000104000F2563003F048B908B5FFF7E0FF48
:104A200000F2563003F016F9072888BF002008BDB1
:104A300070B506F00DFE0723124A12F8011B8142E1
:104A40001DD0013B13F0FF03F7D10725FFF7E5FF6A
:104A50000130B0FBF5F405FB14040B4B13F81450B4
:104A600003EB44035E7806F05DFE314602462846BD
:104A700006F031FEE0B2BDE87040FFF7C3BF062587
:104A8000E4E700BF861201086812010838B5FFF795
:104A90006DFFFFF7C2FF074B13F8104003EB400315
:104AA0005D7806F03FFE294602462046BDE83840C4
:104AB00006F011BE681201082DE9FF411C4B1B785E
:104AC00033B30024002320461A461946013405F06A
:104AD0000BF95B2CF6D10024DFF85C80154F01AE9A
:104AE0000A2541462A463046FBF790FDFB7FE2B29D
:104AF000B3FBF5F5954200D8AAB9312B305D0BD93F
:104B0000002396221946013405F0EEF80A2CE7D16D
:104B1000012004B0BDE8F0811D2B4FF00003F0D858
:104B20001A469621EFE70023305D1A461946EAE758
:104B300018140020640C0020360C010870B5414E9A
:104B40000446F378404913F0010F404A1AD0404B15
:104B50001B7873B93F4D2B6001250D70157019211D
:104B60001A46FDF713FAFF22C8212046FDF752FA34
:104B700031E0137833B9374A136001220A701922E1
:104B80001946EEE7344D0023E87F0F2844D8137010
:104B90000A78002A37D01A4619212046FDF7F6F97F
:104BA00001224FF47A712046FDF734FAEB7F93B976
:104BB000284D2B6813B908F07DF92860286850B19A
:104BC00008F0BEF94EF66023984204D90023012074
:104BD0002B60FEF769FEF278204D12F0010F2B7862
:104BE0001F4A24D04FF4802191612BB91D4B96228E
:104BF0005978187806F06CFD01232B702046BDE82B
:104C00007040FDF7A3B9114613462046FDF7BEF9E3
:104C1000FF224FF4FA71C6E70E48137003600120BB
:104C20000B4A0870137019461A46204699E704216A
:104C300091612BB10B4B9A785978187806F04BFD9F
:104C40000023DAE7C03D0020DF0E00201914002009
:104C50001A1400201C140020640C00202C140020C6
:104C6000000C0040DF3D002070B5334D06462C7827
:104C7000042C4CD8DFE804F0035A1F505A0007F008
:104C8000A3FF2E4BC0F34005187800F0D6FF022892
:104C900018BF2B4B294618BF1C78304618BFC4F3E9
:104CA000001422460023FDF771F9FF22322130461D
:104CB000FDF7B0F92BE0142301201A461946FDF741
:104CC00065F9142300201A461946FDF75FF91423ED
:104CD00002201A461946FDF759F90322FA2101204C
:104CE000FDF798F90322FA210020FDF793F903223A
:104CF000FA210220FDF78EF90120FDF727F90020A7
:104D0000FDF724F90220FDF721F901232B7030462D
:104D1000BDE87040FDF71AB91423FB201A46194666
:104D2000FDF734F90122FA21FB20C1E700232B70A3
:104D3000FFF79AFFEBE700BF211400203614002094
:104D4000E83D0020FF2810B504461CD10E4BD3F8D7
:104D5000303123F07F43B3F5DC4F0DD100226E23B9
:104D60001146FDF713F920460121FDF727F92046EA
:104D7000BDE81040FDF7EAB8B3F5DC0F03D100231E
:104D80006E221946EDE710BDE00E002013B503F0CA
:104D9000CBFD0128374C0CD103F01EFEC0F30723D6
:104DA00010F0FF008DF8053013D1DBB2C3B103233F
:104DB000237023780133DBB20B2B237020D1002327
:104DC000237004F073F923782B4AD05C04F050F977
:104DD00022E0782810D005D8282809D0502809D0FA
:104DE0000923E5E7A02809D0C828F9D10823DFE77F
:104DF0000423DDE70523DBE70623D9E70723D7E70D
:104E00000A2BDED103F0E8FDFF21C0F307420020AA
:104E100003F0FFFE03F092FD03F0DEFD2378C0F304
:104E20000742092B24D8DFE803F01D2323050C0FCC
:104E30001215181BFF21002002B0BDE8104003F03E
:104E4000E8BEFF212820F7E7FF215020F4E7FF21EB
:104E50007820F1E7FF21A020EEE7FF21C820EBE753
:104E60000021E8E7FF2002B0BDE8104003F096BD46
:104E7000C820F8E728140020141000204FF08043C9
:104E800020229A617047000008B5054B0021187078
:104E9000FB20FDF7A9F8BDE80840FB20FFF7E4BEC2
:104EA0002114002010B5037C022B0AD0FB2B11D05B
:104EB0001D4B1B7833BBFFF73DFC80F00100C0B2F7
:104EC00007E01A4B1B78032B1CD0174B187880F087
:104ED000010010BD154B1B78032B13D1447C9CB1F2
:104EE000142302201A46194604F0FEFE1423002063
:104EF0001A46194604F0F8FE14231A4619460120F2
:104F000004F0F2FE0020E4E7234622462146022078
:104F100004F0EAFE234622462146204604F0E4FE41
:104F2000234622462146EAE72A14002021140020C5
:104F3000024B187800F00100704700BFE43D0020EC
:104F400010B5094C227860F30002D307227008D50F
:104F500004F0ACF8216840F25230BDE8104002F095
:104F6000FDBE03F0EBFCF5E7E43D002010B50122A7
:104F70004FF400714FF080400AF0CBF84FF08043BF
:104F80004FF40072054C9A612046012204210AF078
:104F9000C0F804230120A36110BD00BF000C004035
:104FA00038B501224FF400714FF080400AF0B1F89B
:104FB0004FF080444FF400730A4DA361284601224C
:104FC00004210AF0A6F804232046AB6120224FF406
:104FD00000410AF09EF82369034AC3F3C0331370FB
:104FE000012038BD000C00401A14002008B507F05D
:104FF00061FF012008BD00004FF080431B69294A72
:1050000010B5C3F3C0331370FDF720FB60B9264C15
:10501000206807F095FFB0F57A7F05D907F04AFFC1
:10502000206053200BF058FC204B1B78DBB1002490
:10503000002320461A461946013404F055FE4C2C34
:10504000F6D1FF2320461A461946013404F04CFEDF
:105050004F2CF6D1002320461A461946013404F09D
:1050600043FE632CF6D1124B1A68124B1340B3F176
:10507000807F08D1104B1B78042B02D101220F4BEB
:105080001A70012010BD002BFBD10B4A1278042AA4
:10509000F7D00A4A11780029F3D01370FEF734FCD8
:1050A000EFE700BF1A140020241400202014002071
:1050B000C03D0020FF000001CC4100202B14002047
:1050C00008B51023FF201A461946FCF75FFF03229C
:1050D000FA21FF20FCF79EFFFF20FCF737FF01209D
:1050E00008BD000047F65563984207D121B1054B32
:1050F000197829B901221A70084670470121FBE787
:105100000021F9E720140020274B73B51B780546D2
:105110000E46E3B145F20403ADF8043096238DF852
:105120000630019803F06AF9204BC0F30724C0F35E
:1051300007421870C1B220465C709A7005F07AFC84
:1051400031462846FFF7B8FC012002B070BD07F0D9
:105150003BFD10F0020F164C1AD0207820B9142312
:105160001A46194604F0C0FD124B187800F065FD90
:10517000022814D0104B1B78DB0610D52378002BA7
:10518000DED114231A461946012004F0ADFDD7E7FD
:105190002378002BE8D11A4619461846E2E723780F
:1051A000002BCDD1EEE700BF2A140020DC3D00200B
:1051B0002114002036140020E83D002010B5012203
:1051C0004FF400714FF0804009F0A3FF4FF080438F
:1051D0004FF00072054C9A6104210122204609F02B
:1051E00098FF4FF48023A36110BD00BF000C004066
:1051F00008B5FFF7E3FF012008BD0000024B40F2B5
:105200005230196802F0AABDE43D0020F8B5B44F51
:1052100006463B780D463BB18B782BB100221146F8
:1052200010463A7005F006FC45F223239E423AD020
:1052300045F221239E4200F0FC82AA4B1C7834B137
:10524000A6F5FC43513B022B01D90024E6E047F6CA
:1052500002639E4200F0118178D847F623039E42F4
:1052600000F08A8130D845F202239E4200F0278266
:105270000BD8E72E00F05981B6F5A44F00F0F0816D
:10528000E32E00F03B810124C8E047F213039E4265
:1052900000F00F8147F621039E4200F02D8245F277
:1052A00023239E42EFD1AC78002CECD1FFF742FAD9
:1052B0000028E8D08C4B1A78002A00F0CB821C70B2
:1052C000294645F22320C3E247F62A039E4200F016
:1052D00087812AD847F628039E4200F0A58100F274
:1052E0006D8147F627039E42CDD1804B1B78032B5F
:1052F000ABD0AB78002BC6D07D4E7E4D347814F009
:10530000010440F082810120FFF71AFE3378DB07A9
:1053100005D506F055F94FF0804320229A61AB780D
:10532000013BDBB2942B90D956E1B6F5FC4F00F06F
:10533000838000F29580B6F5F84FA4D1AC78002CAC
:10534000A1D002F00FF807F013FE67E047F64C63B8
:105350009E4200F0288236D847F609639E425FD00D
:105360001AD847F606639E4200F0948047F607631A
:105370009E4200F0F18047F605639E4283D15B4B6D
:105380001B78032B3FF461AFAB78002B3FF47BAF6E
:10539000594B1B78062B5BE047F64A639E4200F0B0
:1053A000CE8100F2EE8147F61E639E427FF46BAF22
:1053B000AC78002C7FF449AFA82000F03DFBA8207A
:1053C00000F050FB2AE047F651639E4200F0448211
:1053D00013D847F64E639E4200F0E480C0F0F5819A
:1053E00047F64F639E427FF44EAFAB78002B3FF4FD
:1053F0002CAF62200BF070FA27E747F653639E420A
:1054000000F04C82C0F03A8247F654639E4200F0AE
:10541000558247F65564341B18BF01242046F8BD59
:10542000324B1B78032B3FF410AFAB78002B3FF4CB
:105430000CAFFFF7ABFC08E72C4B1B78032B3FF4BA
:1054400004AFAB78002B3FF41EAF2B4B1B78012B26
:105450007FF419AFFEF78EFE041C18BF0124DDE7B0
:10546000224B1B78032B3FF4F0AEAB78002B3FF4BC
:105470000AAF214B1B78022BEAE71C4B1B78032B4E
:105480003FF4E3AEAB78002B3FF4FDAE1A4B1B7834
:10549000032BDDE7154B1B78032B3FF4D6AEAB781F
:1054A000002B3FF4F0AE144B1B78002B7FF4EBAED7
:1054B000D0E70E4B1B78032B3FF4C7AEAC78002C23
:1054C0003FF4E1AE00236E211A46FF20FCF75EFD9B
:1054D0000121FF20FCF772FDFF20FCF737FD9DE75F
:1054E0002A14002020140020291400202114002058
:1054F000E43D0020DF3D0020C03D0020C04B187877
:1055000000F09BFB02287FF4BEAEBE4B1B78D90691
:105510007FF5B9AEFFF70EF900287FF4B4AEE320B3
:10552000AC78B4B100F088FA78E7B54B187800F0A1
:1055300084FB02287FF4A7AEB24B1B78DA067FF516
:10554000A2AEFFF7F7F800287FF49DAEAC78E72015
:10555000E7E700F087FA96E6AB4B1B78032B3FF4A6
:1055600074AEAA4B1B782BB1AB78A94A03F00103A8
:1055700013706AE60023F8E7A34B1B78032B3FF474
:1055800064AEAB78002B3FF47EAEFFF751FA06F025
:10559000A5F8A04BC0F307221870C0F307405A705B
:1055A000987052E6984B1B78032B3FF44EAEAB78C5
:1055B000002B3FF44AAE01233B7046E6924B1B782A
:1055C000032B3FF442AEAC78002C3FF45CAE06F007
:1055D00037F9FF287FF457AE0220FFF755FC1DE78F
:1055E000894B1B78032B3FF430AEAB78002B3FF494
:1055F0004AAE06F025F933283FF645AE0220FFF704
:1056000043FC332006F014F91FE606F08BF87728E8
:1056100005D90220FFF738FC9623AB70FEE606F0B2
:1056200081F81E30A870F9E6774B1B78032B3FF406
:105630000CAEAC78002C3FF426AE06F073F81E28B2
:10564000744D09D80220FFF71FFC002211461046B6
:1056500005F0F0F90023E0E706F064F81E38E1E712
:10566000694B1B78032B3FF4F0ADAB78002B3FF474
:10567000ECAD00213820FCF7B7FC614C0322FA2185
:105680003720FCF7C7FC3720FCF760FC207800F0DF
:10569000D4FA02287FF4D9AD207800F0CEFA30B9E0
:1056A000022000F039FA002000F013FECDE520784A
:1056B00000F0C3FA02287FF4C8AD0020F1E7524B96
:1056C0001B78032B3FF4C1ADAB78002B3FF4BDAD8D
:1056D00000213720FCF788FC494C0322FA213820AE
:1056E000FCF798FC3820FCF731FC207800F0A5FA94
:1056F00002283FF4AAADCFE7AB78EBB1464C0020CF
:10570000FFF7C2FB607800F00F00FFF7A7F86078A2
:1057100000F00F00FFF78CF80022404BA01C1A701D
:10572000FFF7B4F905F0DAFF3A4BC0F3072218701F
:10573000C0F307405A709870FFF760FD85E5AB78BD
:10574000002B3FF482AD344C607800F00F00FFF77F
:1057500085F8607800F00F00FFF76AF80020A11CC0
:10576000FFF726F9637860F303036370FFF746FDE4
:10577000607800F00F00FFF793F80020FFF784FB3C
:1057800063E5AB78002B3FF460AD234C607800F00C
:105790000F00FFF763F8607800F00F00FFF748F89C
:1057A000A11C0120DCE7AB78002B3FF44EAD1A4C76
:1057B000607800F00F00FFF751F8607800F00F00FC
:1057C000FFF736F8A11C0220CAE7AB78002B3FF4A4
:1057D0003CAD05F03DFF2D287FF437ADFEF7AAFF65
:1057E00004460D4B587800F00F00CCB9FFF76CF869
:1057F000204622462146FEF771FF0320EDE600BF5A
:1058000036140020E83D002021140020C03D002077
:1058100018140020DF3D0020E43D00202914002062
:10582000FFF706F80020FFF72FFB0024284B1C7021
:10583000F4E5AC78002C7FF426ADFEF77BFF002862
:105840003FF421AD224B1A7822B1294630461C7014
:10585000FEF760FF0124E9E7AB78002B3FF413ADBE
:10586000002C3FF410AD0BF078F860200BF034F80A
:105870000122052100200BF061F8CFE5AB78002B69
:105880003FF401AD002C3FF4FEAC0BF066F8602055
:105890000BF022F8012205211320ECE7AB78002B56
:1058A0003FF4F1AC002C3FF4EEAC0BF056F8602066
:1058B0000BF012F8012205212720DCE7AB78002B42
:1058C0003FF4E1AC002C3FF4DEAC0BF046F8A5E56C
:1058D0002914002008B50020FFF7D6FA0A4A1388D9
:1058E00023F4706323F0010343F001031380FF23CB
:1058F00093700023054A1370054A1370FFF763F88D
:10590000BDE80840FFF77ABCE43D00202B140020DE
:105910002914002010B540F2523002F0B9F9144CAD
:10592000206008B9FFF7D6FF607800F00F00FEF79F
:10593000A1FFFF22C8210220FCF76CFB0220FCF72C
:1059400005FBFF22C821FB20FCF764FBFB20FCF7D2
:10595000FDFA0020FFF798FA05F0C0FE054BC0F3F2
:1059600007221870C0F3074098705A70012010BDCC
:10597000E43D0020DF3D00200520704704280DD8BD
:1059800005290BD8102A09D8662301EB011103FB66
:105990000010034B104433F810007047012070478B
:1059A000A212010805207047042808D839B9054B10
:1059B00082F0010202EB400233F81200704701202E
:1059C000704700BF8E120108A0F58073B3F5F85F31
:1059D00010B526D210F4805F00F4007400F48073D8
:1059E00000F4806100F400620DD0002B0CBF002099
:1059F00010200CB140F0200009B140F040000AB185
:105A000040F0800010BD181C18BF01200CB140F000
:105A1000020009B140F00400002AF3D040F0080071
:105A2000F0E70020EEE710B50C46FFF7CDFF234668
:105A3000BDE8104018470000A0F1E003072B10B5A7
:105A4000044600D940B920460449FFF7ECFFE0B214
:105A5000BDE81040FDF74EB80149F6E7552C0008A7
:105A6000052D000810B50446C0B2FDF7A5F8A4F155
:105A7000E003072B00D92CB903492046BDE81040AC
:105A8000FFF7D1BF0149F8E7AD2C00085D2D0008F4
:105A900001207047704708B5FFF7FCFF08BD000004
:105AA00013B502AB03E903000F4B1B78B3B99DF8A4
:105AB0000230009873B16AB100F0BEFC04460146A2
:105AC000009800F079FC2046009902B0BDE8104033
:105AD00001F036BB00F090FC0446F4E7009800F0BB
