:020000040800F2
:1000000000040020B9010008BB010008BB01000882
:10001000BB010008BB010008BB010008BB010008D0
:10002000BB010008BB010008BB01000865E1000836
:10003000BB010008BB010008BB0100089FF30008DA
:10004000BB010008BB010008BB010008BB010008A0
:10005000BB010008BB0100082D3700086D37000800
:10006000AD370008F137000835380008BB0100083B
:10007000BB010008BB01000869FA0008BB010008C9
:1000800079380008BB010008BB010008BB0100086B
:10009000BB010008BB010008BB010008BB01000850
:1000A000BB010008BB01000855F6000869F600080E
:1000B000BB010008BB010008BB010008BB01000830
:1000C000BDF3000819390008BB010008CD3900084C
:1000D000BB010008BB010008BB010008BB01000810
:1000E00072B6264880F30888254880F30988254899
:1000F00025490860022080F31488BFF36F8F0DF04C
:100100004BFD0DF027FB4FF0553020491B4A914223
:100110003CBF41F8040BFAE71D49194A91423CBF24
:1001200041F8040BFAE71B491B4A1C4B9A423EBF9D
:1001300051F8040B42F8040BF8E700201849194A5B
:1001400091423CBF41F8040BFAE70DF029FD0DF098
:1001500024FD154C154DAC4203DA54F8041B8847B6
:10016000F9E707F05FFB124C124DAC4203DA54F88A
:10017000041B8847F9E70DF011BD000000040020C2
:10018000000C00200000000808ED00E00000002046
:10019000000400202C240108000C0020B4110020D1
:1001A000B811002030420020E0000008E000000804
:1001B000E0000008E000000892E700F000F8FEE729
:1001C0002DE9F04FC1F80CD0C3689D46BDE8F08F13
:1001D000002383F311882846A04700200DF0F6FE87
:1001E000FEE70DF027FE00DFFEE7000053B94AB935
:1001F000002908BF00281CBF4FF0FF314FF0FF302F
:1002000000F076B9ADF1080C6DE904CE00F006F807
:10021000DDF804E0DDE9022304B070472DE9F04782
:10022000089E0D4604468846002B4DD18A429446CE
:1002300068D9B2FA82F252B101FA02F3C2F1200196
:1002400020FA01F10CFA02FC41EA030894404FEA5B
:100250001C41B8FBF1F71FFA8CFE01FB178807FB66
:100260000EF0230C43EA084398420AD91CEB03031F
:1002700007F1FF3580F01E81984240F21B81023F5A
:1002800063441B1AB3FBF1F001FB103300FB0EFEBD
:10029000A4B244EA0344A6450AD91CEB040400F1C5
:1002A000FF3380F00981A64540F20681644402389C
:1002B0000021A4EB0E0440EA07401EB10023D44005
:1002C000C6E90043BDE8F0878B4208D9002E00F054
:1002D000EE800021C6E900050846BDE8F087B3FAC4
:1002E00083F100294AD1AB4202D3824200F2FC8062
:1002F000841A65EB030301209846002EE2D0C6E97C
:100300000048DFE702B9FFDEB2FA82F2002A40F0CD
:100310009180A1EB0C0001214FEA1C471FFA8CFED3
:10032000B0FBF7F307FB1300250C45EA00450EFB75
:1003300003F0A84208D91CEB050503F1FF3802D2EF
:10034000A84200F2CE8043462D1AB5FBF7F007FB1A
:1003500010550EFB00FEA4B244EA0544A64508D998
:100360001CEB040400F1FF3502D2A64500F2B68072
:100370002846A4EB0E0440EA03409EE7C1F12007A3
:100380008B4022FA07FC4CEA030C25FA07FA4FEAE5
:100390001C49BAFBF9F820FA07F309FB18AA8D40AB
:1003A0001FFA8CFE1D4300FA01F308FB0EF02C0C23
:1003B00044EA0A44A04202FA01F20BD91CEB0404FD
:1003C00008F1FF3A80F08880A04240F28580A8F1D1
:1003D00002086444241AB4FBF9F009FB104400FB42
:1003E0000EFEADB245EA0444A64508D91CEB040450
:1003F00000F1FF356CD2A6456AD90238644440EA60
:100400000840A0FB0295A4EB0E04AC42C846AE46E1
:1004100056D353D0002E69D0B3EB080264EB0E0420
:1004200022FA01F304FA07F71F43CC40C6E900742F
:10043000002147E70CFA02FCC2F1200125FA01F382
:100440004FEA1C4720FA01F195400D43B3FBF7F149
:1004500007FB11331FFA8CFE280C40EA034001FB16
:100460000EF3834204FA02F408D91CEB000001F1F8
:10047000FF382FD283422DD902396044C01AB0FB15
:10048000F7F307FB1300ADB245EA004503FB0EF09E
:10049000A84208D91CEB050503F1FF3816D2A84283
:1004A00014D9023B6544281A43EA014138E7314632
:1004B000304607E72F46E4E61846F9E64B45A9D251
:1004C000B9EB020865EB0C0E0138A3E74346EAE7F7
:1004D000284694E74146D1E7D0467BE7644402389A
:1004E00047E7023B65442FE7084606E73146E9E661
:1004F000704700BF062008B500F028FB01200EF071
:1005000097FD00BF024B0146186800F0B5B900BF67
:10051000000C0020024B0146186800F047B900BFEC
:10052000000C00205FFA81FC810710D00346511EA9
:100530002AB90AE09A0718460AD0013905D31846A5
:1005400013F8012B6245F5D1704700207047114622
:1005500003290CD80029F8D00346014401E08B425E
:10056000F3D0184613F8012B6245F8D1ECE70246A8
:1005700010B54CEA0C2444EA0444104603680432E3
:100580006340A3F1013E2EEA030313F0803F04D140
:10059000043903291046F0D851B10346014401E063
:1005A0008B4205D0184613F8012B6245F8D110BDD7
:1005B000002010BD032A10B516D940EA010C1CF02A
:1005C000030F04460B4622D119462046D1F800E01D
:1005D000D0F800C00433F44504F1040417D1043A00
:1005E000032A20461946EFD8541EA2B100F1FF3C61
:1005F000013901E0C3180CD01CF801EF11F8012FEC
:10060000A4EB0C039645F5D0AEEB020010BD541ED2
:10061000ECE7184610BD104610BD00BF844641EA05
:10062000000313F0030349D1403A23D30B6803605E
:100630004B6843608B688360CB68C3600B69036160
:100640004B6943618B698361CB69C3610B6A036248
:100650004B6A43628B6A8362CB6AC3620B6B036330
:100660004B6B43638B6B8363CB6BC3634030403115
:10067000403ADBD230320BD30B6803604B684360E7
:100680008B688360CB68C36010301031103AF3D2AE
:100690000C3205D351F8043B40F8043B043AF9D23C
:1006A000043208D0D2071CBF11F8013B00F8013B0F
:1006B00001D30B8803806046704700BF082A13D31C
:1006C0008B07B1D010F00303AED0C3F10403D21AEC
:1006D000DB071CBF11F8013B00F8013BA4D331F844
:1006E000023B20F8023B9FE7043AD9D3013A11F8C4
:1006F000013B00F8013BF9D20B7803704B78437053
:100700008B78837060467047830730B548D0541E9D
:10071000002A3FD00346CAB201E0013C3AD303F8B5
:10072000012B9D07F9D1032C2DD9CDB245EA052522
:100730000F2C45EA054536D9A4F1100222F00F0C22
:1007400003F1200EE6444FEA121C03F1100242E9C5
:10075000045542E9025510327245F8D10CF10102FC
:1007600014F00C0F03EB021204F00F0C13D0ACF1D9
:10077000040323F003030433134442F8045B93425D
:10078000FBD10CF003042CB1CAB21C4403F8012BBA
:100790009C42FBD130BD64461346002CF4D1F9E7EE
:1007A00003461446BFE71A46A446E0E7002952D0A4
:1007B00038B551F8043C0C1F002BB8BFE4180546AF
:1007C00000F0F0FA2B4A1368002B45D0A3420CD955
:1007D00021686018834228D0636028461460BDE811
:1007E000384000F0E1BAA3420FD81A465B68002BEC
:1007F000F9D11168501884421DD034D3636054601D
:100800002846BDE8384000F0CFBA11685018A04221
:1008100015D028D8216860188342EFD118685B682A
:100820000144C4E900135460EAE718685B680144B6
:10083000C4E90013D1E7236819441160E0E7206898
:100840000144501883421160DAD1D3E90003014416
:10085000C2E90013D4E77047284663601460BDE81E
:10086000384000F0A1BA0C2328462B60BDE8384080
:1008700000F09ABAB8110020F8B5CD1C25F0030598
:1008800008350C2D38BF0C25002D064623DBA94268
:1008900021D8264F00F086FA3A6822B3144603E0C6
:1008A00063682246FBB11C4623685B1BF8D40B2B04
:1008B00015D8636894420CBF3B605360304600F02B
:1008C00073FA04F10B00231D20F00700C21A01D0B7
:1008D0001B1AA350F8BD0C2300203360F8BD236021
:1008E0001C442560EAE77968D1B1294630460EF00C
:1008F00083FB431C01460CD0C41C24F00304A0421B
:1009000005D03046611A0EF077FB013001D025602A
:10091000D4E70C233046336000F046FA0020F8BDDF
:1009200030460EF069FB7860DFE700BFB8110020A9
:1009300038B5124B04461D68AA6B1AB10023C2E9F0
:10094000044338BD1820FFF7DDFD0246A86378B1E7
:1009500000210B2301209381C2E90401084B0949BE
:10096000094DC2E9011300231560C2E9044338BDF3
:100970004221064B064800F0CDF900BF000C0020D4
:10098000ECDE050034126DE60E33CDAB5C230108BE
:100990007423010838B5194B1C68A26B8AB113691E
:1009A0001749546903FB01F1164800FB0411A3FB2E
:1009B0000030013341EB0001C2E9043121F0004075
:1009C00038BD1820FFF79EFD0246A06388B10124C0
:1009D00000250B230A480C49C2E904451160014671
:1009E0000A4D0B4C93810B4BC2E90154C2E904310F
:1009F00038BD4E21084B094800F08CF9000C00204E
:100A00002DF451582D7F954C0E33CDAB34126DE63D
:100A1000ECDE05002E7F954C5C2301087423010851
:100A200038B5446C0CB1002038BD80210546FFF775
:100A300023FF0246686430B1031F7C3243F8044F41
:100A40009342FBD1EFE74FF0FF3038BD1F29F8B5D7
:100A5000054608D8466C0C4617464EB156F8240099
:100A600046F82470F8BD16234FF0FF302B60F8BD18
:100A70008021FFF701FF0646686440B10021031F93
:100A800000F17C0543F8041F9D42FBD1E6E74FF0DF
:100A9000FF30F8BD1F2938B5054620D8426C0C46FA
:100AA0006AB152F8213053B1012B16D0591C10D025
:100AB0000025204642F824509847284638BD28464D
:100AC00000F0F8F8224601462846BDE8384000F01C
:100AD000DDB8162301202B6038BD002038BD162359
:100AE0004FF0FF302B6038BD1F292BD8426C38B532
:100AF0000C46054682B152F8243002EB84024BB119
:100B0000591C1AD0012B16D0002520461560984795
:100B1000284638BD012038BD8021FFF7ADFE0246D2
:100B2000686460B10020131F02F17C0143F8040FD8
:100B30009942FBD1DFE7032038BD022038BD4FF0DA
:100B4000FF3038BD4FF0FF30704700BF38B5144B51
:100B50001F281D681FD86A6C044662B152F8203005
:100B60004BB1012B15D0591C0FD0002542F8205055
:100B70009847284638BD284600F09CF82246014692
:100B80002846BDE8384000F081B8162301202B60CC
:100B900038BD002038BD16234FF0FF302B6038BD24
:100BA000000C0020124B1F2870B51E6808D80D4697
:100BB000716C044649B151F8240041F8245070BDCD
:100BC00016234FF0FF30336070BD80213046FFF7B1
:100BD00053FE0146706440B10022031F00F17C0CFB
:100BE00043F8042F6345FBD1E5E74FF0FF3070BDBC
:100BF000000C002038B50B4B1D686C6C0CB100204C
:100C000038BD80212846FFF737FE686438B1031FDE
:100C100000F17C0243F8044F9342FBD1EFE74FF021
:100C2000FF3038BD000C002038B5174B1F281D6859
:100C300027D86A6C044682B152F8243002EB840251
:100C40004BB1591C1BD0012B17D000252046156035
:100C50009847284638BD012038BD80212846FFF737
:100C60000BFE0246686460B10020131F02F17C0194
:100C700043F8040F8B42FBD1DEE7032038BD02208E
:100C800038BD4FF0FF3038BD000C002070B5002695
:100C9000074D0446084611462E600EF0D1F9431C5C
:100CA00000D070BD2B68002BFBD0236070BD00BF4F
:100CB000C01100200EF0CCB920F0030110F00300A9
:100CC000C0F1000051F8043B00F1040C4FEACC0CD9
:100CD0006FF000021CBF22FA0CF213434FF0010C1C
:100CE0004CEA0C2C4CEA0C4CA3EB0C0222EA03025B
:100CF00012EACC1204BF51F8043B0430F4D0C2F124
:100D0000000102EA0102B2FA82F2C2F11F0200EB14
:100D1000D2007047144600B51A460A4B0D461B68B0
:100D200085B0DE6803464CB107490191304607495A
:100D30000294009500F022F8FFF7DCFB04490C4612
:100D4000F3E700BF000C0020A8230108B823010826
:100D5000B423010808B513460022FFF7DBFF00BFEC
:100D60000CB400B583B004AB53F8042B019300F02E
:100D700057F803B05DF804EB02B070470EB400B54D
:100D8000074A82B003AB0146106853F8042B019365
:100D900000F046F802B05DF804EB03B0704700BF06
:100DA000000C0020704700BF704700BF9368013BF4
:100DB000002B936005DAD2F818C0634507DB0A29D7
:100DC00005D01368581C106008461970704700F071
:100DD00069BB00BF9BB1F8B5134406460F46541ECD
:100DE0005D1E01E0AC4208D03A46304614F8011FBF
:100DF000FFF7DCFF431CF5D1F8BD0020F8BD002053
:100E0000704700BF936810B5144613B91846536075
:100E100010BD00F031FE0023C4E9013310BD00BF56
:100E20002DE9F04F0E4692461C4607469FB018B17A
:100E30008369002B00F0A880954B9E4200F0AA80A9
:100E4000944B9E4200F0B580934B9E4208BFFE68D3
:100E5000B389180740F1A3803369002B00F09F800D
:100E6000002320220B9330239AF8001005940125CB
:100E70008A4C8DF831208DF8323000297DD0D14652
:100E80000B4604E019F8013F002B00F09480252B5D
:100E9000F8D1B9EB0A0B40F0918099F80030002BA3
:100EA0006BD000234FF0FF3209F10109CDE9072390
:100EB000069309938DF85B301C9304E0001B05FA40
:100EC00000F018430690CA460522204619F8011B77
:100ED000FFF728FB069B0028F0D1D90644BF20224B
:100EE0008DF85B201A0748BF2B229AF8001048BFE4
:100EF0008DF85B202A2972D1059A116804320029E5
:100F00000592C0F2A08009919AF801100AF1010A35
:100F10002E2976D0DFF8889103224846FFF702FB9E
:100F200048B14022069BA0EB090002FA00F00343FF
:100F30000AF1010A06931AF8011B062259488DF896
:100F40003010FFF7EFFA002800F08380564B002B9B
:100F50006CD005A9009132463846544B06A9AFF330
:100F600000800390039B013307D00B9B039A9AF8F0
:100F7000001013440B93002981D1B3895B0615D46B
:100F80000B981FB0BDE8F08F00F056FD404B9E421D
:100F90007FF456AF7E68B38918073FF55DAF3146E1
:100FA000384600F0E1FA00283FF45AAF4FF0FF3026
:100FB000E7E7BE684CE7B9EB0A0BDED0D046CAF1D2
:100FC000010A03E0934538D918F8011F3246384624
:100FD000FFF7ECFE01300AEB0802F3D1CDE7A1F1F7
:100FE0003002092A94D8099B1AF8011F03EB8303E6
:100FF00002EB4303A1F13002092AF5D92E29099306
:1010000088D19AF801102A292DD1059B0AF10200F6
:101010001A680433002A0593B8BF4FF0FF339AF8DB
:10102000021007928246B8BF079373E7059B073308
:1010300023F007030833059397E70B9A99F80030DC
:101040005A440B922BE7494243F00203099106935D
:101050005AE705A9009132463846144B06A900F01C
:10106000CBF803907EE70023A1F13002092A0AF1B0
:10107000010A07933FF64EAF1AF8011F03EB8303F3
:1010800002EB4303A1F13002092AF5D9079341E7A6
:101090009C0F01087C0F01085C0F0108E823010880
:1010A000F0230108F423010800000000D50D00081A
:1010B0008C4600B586461346034A714610685DF8B3
:1010C00004EB6246FFF7ACBE000C00202DE9F047B0
:1010D00091461E460A698B680C469A42B8BF1A466A
:1010E000C9F8002091F843300546DDF8208013B19F
:1010F0000132C9F80020226891065DD5D9F8003088
:101100000233C9F80030226812F0060F11461ED1D2
:10111000E168CB1A002BD8BF114618DD002704F177
:10112000190A06E0D9F80030E268A2EB030CBC45CE
:101130000CDD0123524631462846C047013007F1F5
:101140000107EFD14FF0FF30BDE8F087216894F838
:101150004330003B18BF01238A060AD53021E2182C
:1011600082F8431094F845105A1C2244023382F846
:1011700043103146284604F14302C0470130E1D014
:10118000236803F00603042B1DD0A3682269934251
:1011900025DD00279B1A1F4404F11A09002401E0F1
:1011A000BC421CDA01234A4631462846C04701307A
:1011B00004F10104F4D1C5E712F0060F12D0003B90
:1011C00018BF0123D5E7D9F80030E1682269C91AB0
:1011D000A36821EAE1779342DCDC0029DCDC002013
:1011E000BDE8F087E168D9F80030CB1A002BD8BFF2
:1011F000114693DCABE700BF2DE9F04317460A7EAA
:1012000085B00C46064698460C9D01F1430C002A19
:1012100033D0A2F15803D9B2202967D8202B65D842
:10122000DFE813F0DD006400640064006400640023
:1012300064006400640064006400A3006E00640045
:101240006400640064006E00640064006400640074
:1012500021007F00BF0064006400AE0064007F00D6
:1012600064006400E40023681A0640F102812B68E0
:101270006269191D29601B681A600023E146236119
:101280003B4621463046CDF8008003AAFFF71EFFFB
:10129000013020D04A46394630462369C0470130E4
:1012A00019D02368E0689B07039919D5431A002BCE
:1012B00016DD002504F1190904E0E0680399431ADA
:1012C000AB420DDD01234A4639463046C047013066
:1012D00005F10105F1D14FF0FF3005B0BDE8F08315
:1012E0008842B8BF084605B0BDE8F083012384F802
:1012F000422004F142092361002384F84330BFE710
:101300002368190602D45A0600F1BF8029680A68CA
:10131000043129601146002A6ADB0A25DFF87CE1E6
:1013200010E02368180640F19A802B68191D296087
:1013300019686F2A0CBF08250A25DFF860E1002331
:1013400084F843306268002AA2607DDB236823F0C2
:1013500004032360002959D1002A77D1E146082DE2
:1013600063D0ACEB090323618AE701222B6804F107
:101370004209196804332B6084F842102261BBE7EC
:101380002B6800211A1D2A60D3F800906268484635
:10139000FFF7C8F800287FD0A0EB0900606020614B
:1013A000AAE7236843F0200323607822DFF8F0E007
:1013B00084F845202A68111D2960190642D45D066B
:1013C00040D51188D80744BF43F02003236000298B
:1013D00043D12368102523F020032360AFE758236F
:1013E000DFF8B8E084F845302368E3E72368DCE7FA
:1013F0002D2284F8432062684942002AA26002DB61
:1014000023F0040323600A25DFF890E0E146B1FBF6
:10141000F5F30A4605FB131019461EF80030AA42E0
:1014200009F8013DF3D2082D9BD12368D90798D53F
:10143000626823699A4294DC302309F1FF3989F804
:1014400000308EE71168BDE70029DFD19EF800303B
:1014500004F1420984F8423081E710256FE713F068
:10146000400F2B6803F1040129600CBF196819882B
:101470005FE713F0400F2B68626903F104012960F4
:101480001B6814BF1A801A60F7E62A68B2F90010C8
:1014900004322A600A463EE7606880E7FC230108C0
:1014A00010240108F8B506460D46144608B18369B4
:1014B00043B3254B9C422AD0244B9C4229D0244B39
:1014C0009C4208BFF468A269A389A2601A0722D5CA
:1014D000236903B322686169D31AEDB299422F469A
:1014E00029DD0133A1680139A160511C216015700B
:1014F00062699A4216D0A389DB0701D50A2D11D063
:101500003846F8BD00F098FA0F4B9C42D4D174686D
:10151000D9E7B468D7E72146304600F025F838B956
:101520002369D7E72146304600F024F90028E7D0A8
:101530004FF0FF37E4E72146304600F01BF9002862
:10154000F6D101232268CDE79C0F01087C0F01082A
:101550005C0F010803460A46024908681946FFF76E
:10156000A1BF00BF000C00203C4B70B51D680646B3
:101570000C460DB1AB69E3B1394B9C421FD0394BDE
:101580009C424DD0384B9C4208BFEC68B4F90C30FB
:1015900018079AB219D5216911B312F001002FD0A2
:1015A00000256069A5604042A06100292ED000207E
:1015B00070BD284600F040FA294B9C42DFD16C6890
:1015C000B4F90C3018079AB2E5D4D1063ED55207CB
:1015D00028D4216943F00803A3819AB20029DCD101
:1015E00002F42070B0F5007FD7D02146304600F0DD
:1015F000FFFBB4F90C3021699AB212F00100CFD18F
:10160000950758BF6069A0600029D0D1120658BF65
:101610000846CDD543F040034FF0FF30A38170BDA5
:10162000AC68B3E7616B51B104F14402914204D05C
:101630003046FFF7BBF8B4F90C3000226263002299
:10164000216923F02403C4E90012C3E7092243F00F
:10165000400332604FF0FF30A38170BD000C0020CA
:101660009C0F01087C0F01085C0F0108F8B58B89FD
:101670000C46190707463BD46268002A55DDE66A26
:10168000002E50D000223D683A6013F4805250D1B1
:1016900001233846216AB047421C5CD0A389E66A20
:1016A0005B0705D56368C01A636B0BB1236CC01A66
:1016B0000246216A00233846B047411C3BD13B68B3
:1016C000002B38D01D2B01D0162B4BD100232269C3
:1016D000C4E90023616B3D6029B304F144039942DE
:1016E00002D03846FFF762F8002318466363F8BD5E
:1016F0002669C6B19A0718BF0023256808BF636929
:101700002660AD1BA3600CE02B463246D4F828C0FF
:101710003846216AE047B0F1000CA5EB0C056644A1
:1017200012DD002DF0DC0020F8BD226C002AA6DCC2
:10173000F9E7606DB4E70022236962602360A38942
:10174000DB04C7D56065C5E7A3894FF0FF3043F0E0
:101750004003A381F8BD3B68002B9FD01D2B06D012
:10176000162B04D0A38943F04003A381F8BD0020C9
:101770003D60F8BD38B50B69BBB10C46054608B1F4
:101780008369B3B10D4B9C4211D00D4B9C4213D0D9
:101790000C4B9C4208BFEC68B4F90C302BB12146CD
:1017A0002846BDE83840FFF761BF002038BD6C68AF
:1017B000F2E700F041F9E5E7AC68EDE79C0F0108BE
:1017C0007C0F01085C0F010838B540B3036904467B
:1017D000E3B1174B1D680DB1AB69CBB1154B9C4202
:1017E0000FD0154B9C4221D0144B9C4208BFEC6893
:1017F000B4F90C3053B121462846BDE83840FFF714
:1018000035BF6C68B4F90C30002BF4D1002038BD22
:10181000284600F011F9074B9C42E2D1F1E7084B52
:1018200008491868BDE8384000F0BEBAAC68DFE788
:10183000000C00209C0F01087C0F01085C0F0108C0
:10184000580F01087517000800207047014900F083
:10185000ABBA00BF7517000800207047682270B54A
:101860004D1E02FB05F50E4605F17401FFF704F865
:10187000044640B100210C30C4E9016005F1680262
:101880002160FEF741FF204670BD00BF274B2DE9C8
:10189000F0411E680746B36953B34FF00408483659
:1018A000D6E90134013B04D51EE05A1C04F168045A
:1018B0001AD0B4F90C50013B002DF6D11C4B082274
:1018C0002946C4E90055C4E90253C4E904556566D4
:1018D000A56104F15C00FEF717FFC4E90D55C4E9EA
:1018E00012552046BDE8F08135682DB12E46D7E768
:1018F000304600F01FF8D0E74FF4D6713846FEF7B7
:10190000BBFF044668B1056029460546C0F804805F
:101910000C304FF4D072A060FEF7F6FE34602E4615
:10192000BEE70C2330603B60DBE700BF580F0108C7
:101930000100FFFF0023334A2DE9F0471268C0E998
:1019400012339042036508BF01232F4908BF83610A
:1019500081620546FFF79AFF034628466B60FFF752
:1019600095FFA86028460024FFF790FF04236E68C7
:10197000DFF898A0DFF89890DFF89880264FE860AD
:101980000822F3602146C6E90044C6E904447466AF
:10199000B460B46106F15C00FEF7B6FE1F4BC6E909
:1019A000086AC6E90A983763AE680822F3602146E0
:1019B000C6E90044C6E904447466B460B46106F143
:1019C0005C00FEF7A1FE164BC6E9086AC6E90A9854
:1019D0003763EE682146F3600822C6E90044C6E991
:1019E00004447466B460B46106F15C00FEF78CFEDA
:1019F0000123C6E9086AC6E90B87C6F82890AB61DF
:101A0000BDE8F087580F01084D1800085520000860
:101A10007D200008BD200008DD200008090001002D
:101A200012000200024B0349186800F0BDB900BF64
:101A3000580F010875170008836903B97AE77047E2
:101A4000704700BF704700BF704700BF704700BFBE
:101A5000024B0349186800F087B900BF000C002052
:101A600049180008024B0349186800F07DB900BF0F
:101A7000000C0020591800089368002B00F0B78074
:101A80002DE9F04FB1F90C300C4619078046174686
:101A900083B098B225D523691BB310F002033D68CB
:101AA0002DD04FF0000B5E46DFF8B8A2002E00F0FC
:101AB0008B80564533465A4628BF53464046216AD6
:101AC000D4F828C0E047002840F38780BB688344EF
:101AD0001B1A361ABB60002BE8D1002003B0BDE80A
:101AE000F08F21464046FFF73FFD002840F0368149
:101AF000B4F90C303D6898B210F00203D1D110F067
:101B0000010976D14E46002E5AD08205D4F808B08D
:101B100040F1B580B3455A4600F2CD8010F4906F85
:101B200000F0CB8023682169A3EB010B636903EB11
:101B3000430A0AEBDA7A0BF101034FEA6A0A3344EB
:101B40005345524684BF9A465246430540F1EA80C7
:101B500011464046FEF790FE002800F0F9805A46F4
:101B600021690190FEF75AFDA289019B22F490623F
:101B700042F08002A28103EB0B0023613246AAEB04
:101B80000B03B346C4F814A0A3602060B24600263D
:101B90004946019200F0BAF9A3682168019AA3EBC3
:101BA0000B030A44A3602260B868D144A0EB0A008A
:101BB000B860002891D0B4F90C0080B2002EA4D1F6
:101BC000D5E9009608359EE7D5E900B608356DE7FA
:101BD00021464046FFF7CEFD80B3B4F90C304FF0FC
:101BE000FF3043F04003A38103B0BDE8F08F002035
:101BF00070471E46AA46994618461D4656B3002809
:101C000032D04A4620682169B24228BF3246884213
:101C1000636904D9A16803EB010B5A4574DC934254
:101C200065DC2A464046216AD4F828C0E047B0F176
:101C3000000BD2DDB9EB0B09CAD00120BB685D44B3
:101C4000A3EB0B03A6EB0B06BB60002B3FF445AFE9
:101C5000002ED4D10AF1080353F8046C9A4653F8C5
:101C6000085C0833002EF7D032460A212846FEF7DA
:101C700059FC002869D00130A0EB0509C1E72068B4
:101C8000236998421BD86369B34218D86FF0004C9F
:101C9000B44528BFB4469CFBF3FC4A4603FB0CF357
:101CA0004046216AD4F828C0E047B0F1000A94DD2C
:101CB000A6EB0A0678E7B3463246206866E7B345E6
:101CC000DA4628BFB2464946524600F01FF9A368DB
:101CD0002268A3EB0A035244A3602260002BE7D1E1
:101CE00021464046FFF746FD0028E1D075E729462A
:101CF0009346019200F00AF9A368019A9B1AA36027
:101D000023681A44226095E729465A4600F0FEF8F7
:101D1000236821465B4440462360FFF72BFD0028E3
:101D200088D05AE7404600F06DF9034600287FF45A
:101D300022AF40462169FEF739FD0C22B4F90C3080
:101D4000C8F8002023F0800349E7721C914659E748
:101D50000C22B4F90C30C8F8002040E74FF0FF30F7
:101D6000BCE600BF00FCFF7F2DE9F041002688465D
:101D700000F14807D7E90154013D0ED4A389013D84
:101D8000012B06D9B4F90E30013302D02046C047EA
:101D900006436B1C04F16804F0D13F68002FE9D1C1
:101DA0003046BDE8F08100BF2DE9F8434FF000094F
:101DB0000746884600F14806D6E90154013D10D493
:101DC000A389013D012B08D9B4F90E30013304D0A9
:101DD00021463846C04749EA00096B1C04F16804F3
:101DE000EED13668002EE7D14846BDE8F88300BF43
:101DF000F0B58B890C46990797B007D5012204F1FD
:101E00004703C4E90432236017B0F0BDB4F90E10E3
:101E1000054600292DDB6A460DF0FBF8002827DB7C
:101E2000019E4FF4806706F47046A6F50056B6FA98
:101E300086F6394628467609FEF71EFD30B3A3899B
:101E40001A4A43F08003AA62C4E90407A381206010
:101E5000002ED9D02846B4F90E100DF0E6F800286F
:101E6000D2D0A38923F0030343F00103A381CBE77E
:101E7000A38913F0800F14BF40274FF480672846D2
:101E800039460026FEF7F8FC0028D8D1B4F90C300A
:101E90009A05B9D4012123F0030304F1470243F06A
:101EA0000203C4E90421A3812260ADE74D180008B4
:101EB00070B50C46B1F90E10164600291D4696B0B5
:101EC00013DB6A460DF0A5F800280EDB01994FF4EC
:101ED000806301F47041A1F50051B1FA81F1002055
:101EE00049092960336016B070BD0022B4F90C3086
:101EF0002A601B0604D540230020336016B070BD55
:101F00004FF480630020336016B070BD88420DD955
:101F10008B1883420AD900EB020CBAB1624613F85F
:101F200001CD994202F801CDF9D170470F2A0ED8A0
:101F3000034602F1FF3C4AB10CF1010C013B8C4419
:101F400011F8012B614503F8012FF9D1704740EAE0
:101F500001039B074FD1A2F1100370B501F1200CD2
:101F600023F00F0501F1100E00F11004AC441B0921
:101F70005EF8105C0EF1100E44F8105C5EF81C5C0C
:101F8000103444F81C5C5EF8185C44F8185C5EF889
:101F9000145CE64544F8145CEAD1013312F00C0FEE
:101FA00001EB031102F00F0400EB031327D08E4660
:101FB000043C24F003064FEA940C1E441C1F5EF8F8
:101FC000045B44F8045FB442F9D10CF1010402F05F
:101FD000030203EB840301EB840102F1FF3C4AB1ED
:101FE0000CF1010C013B8C4411F8012B614503F805
:101FF000012FF9D170BD034602F1FF3C9CE7224658
:10200000EBE700BFF8B51446F9B1CAB106460D4674
:1020100000F068F8A04202D32F463846F8BD2146AA
:102020003046FEF729FC07460028F6D0224629460E
:10203000FEF7F4FA30462946FEF7B8FB3846F8BDFD
:102040002746FEF7B3FB3846F8BD1146BDE8F84019
:10205000FEF712BC10B50C46B1F90E100CF0C1FF22
:10206000002803DB636D0344636510BDA38923F47B
:102070008053A38110BD00BF002070472DE9F041BF
:102080000C46B1F90C101F46CB05054616460BD47D
:1020900021F48051A1813B4632462846B4F90E1006
:1020A000BDE8F0410CF0A4BFB4F90E1002230022E9
:1020B0000CF09CFFB4F90C10EAE700BF10B50C4619
:1020C000B1F90E100CF092FFA389421C0EBF23F44D
:1020D000805343F480536065A38110BDB1F90E10A5
:1020E0000CF088BF51F8040C0028A0F10400BCBF1C
:1020F0000B58C018704700BF0F4A0023114610B597
:10210000147C844211D11C225343CA18906858B1E0
:10211000CB58FF281FBF58434000013050604FF09C
:10212000010004BF0133536010BD01330B2B02F1DA
:102130001C02E5D10020F7E7E00E0020F0B50A4EC2
:1021400000253446377C874207D11C2000FB054020
:102150004176027683760120F0BD01350B2D06F124
:102160001C06EFD10020F7E7E00E0020094A30B549
:1021700000231446157C854205D11C22012002FB58
:102180000343996030BD01330B2B02F11C02F1D1E6
:102190000020F7E7E00E0020094A30B5002314467E
:1021A000157C854205D11C22012002FB03435960A6
:1021B00030BD01330B2B02F11C02F1D10020F7E7F7
:1021C000E00E002070B50B4C00232546267C86428D
:1021D00009D11C204343E818E95000238260C36002
:1021E0004374012070BD01330B2B04F11C04EDD1AD
:1021F0000020F7E7E00E002070B500252E462B4C9E
:102200006368002B4FD0E06808BB637CB3FA83F3AC
:102210005B0963740AF068FFD4E900239342E0602D
:102220002BD266606674E66063690BB1207C9847C8
:10223000207CFF2824D100221146104608F0E6FC3D
:1022400007354D2D04F11C04DAD1012070BD0AF0D0
:102250008FFF23689842D8D26368002BE4D02046D1
:1022600002F038FF0028EBD0637C207CB3B1FF285C
:102270000CD1A27E217E607EE0E79B1A6360EBE7D3
:102280006228DDD800231A46194604E06228D7D810
:10229000A37E227E617E07F02BFED1E7FF28CAD005
:1022A0006228CDD8EFE76374E360C9E7E00E002051
:1022B00007B503788DF8003043788DF801308378C6
:1022C0008DF8023003798DF80330C37868468DF8B5
:1022D00004300EF0B3FC03B05DF804FB08B5074B07
:1022E0005A78032A07D858680AF042FFC72894BFD3
:1022F0000020012008BD0020FCE700BFA40C002046
:102300007047000010B5144C202220464FF4804145
:102310000DF00FF8204620224FF400410DF009F88F
:10232000002280214FF080400DF003F8FFF7E8FF16
:1023300000BF00BF00BF00BF00BF00BF00BF00BFA5
:1023400000BF00BF00BF00BF00BF00BF00BF00BF95
:1023500000BF00BF10BD00BF0008004008B501F07D
:10236000A5FB08BD08B5054C20780DF043FF20788B
:10237000FFF7F4FF05200BF02EFEF5E7D03D00201F
:1023800010B5084C236803F07142074B13432360D8
:102390000AF0AAFE054B18602068BDE8104004F062
:1023A00088BD00BFD03D00200001010EC8110020F3
:1023B00010B5064C0122204602210CF0BAFF022380
:1023C000A361BDE8104001F06BBC00BF00040040F9
:1023D00001207047124B10B51C789CB9114B1B782B
:1023E000042B0FD104F052FC04F066FC04F018FC3E
:1023F00004F092FC20460AF019FD2046BDE810408A
:102400000AF030BD0EF01EFC48B10DF0E9FE0028C8
:10241000FBD1BDE810404CF250300BF0DCBD10BDDC
:10242000D03D0020DC410020002370B50D4604465D
:10243000284E0B70002838D00AF056FE264B30602C
:102440001A69560402D51A69110435D41A6952045E
:1024500002D41B691E0431D41F4A1169C1F38033B1
:10246000490405D5136913F4004F14BF0023022358
:102470001A4A1278511E042922D9062A22D0002A8B
:102480000CBF03200020164A14B91178994202D1DA
:102490001C1A18BF0124022B137015D0032B15D062
:1024A000012B15D102232B7004E030680AF060FE86
:1024B0003228C1D8204670BD0323D9E70123D7E7CE
:1024C0000120E0E70220DEE70323ECE70123EAE74F
:1024D0000023E8E7D811002000080040D03D00208C
:1024E000CE110020084B9A78012A07D0022A09D081
:1024F000064B1868B0FA80F04009704758780128F8
:10250000F6D170470120FCE7A40C00204013002006
:1025100008B5054B9B78013B012B02D9FFF7E2FF81
:1025200008BD0120FCE700BFA40C002008B50AF09C
:10253000DBFD014B986008BDA40C002010B5094CD0
:102540002378207063700AF0CFFD6060FFF7EEFF24
:1025500000F086FEBDE810400022034B53201A70A5
:102560000EF0D0BAA40C0020D4110020F8B50C460F
:102570001546074660B300293FD0884201D0FFF7D7
:1025800029FF584E3378013B012B04D80320FFF775
:10259000D5FF0023B370544E3378A34200D11DB150
:1025A0000022524B9A619A83347024B1631E042B2B
:1025B000747098BFB470306804F07BFC3378062BDD
:1025C00000F28980DFE803F0852A46505A646E00E5
:1025D0000029D6D00222464B464E9A613378012B11
:1025E000CDD030460CF084FE30460CF04FFA424815
:1025F000424B83600AF0E8FBC1E74FF400323C4BEA
:102600003C489A610378042BB9D03D4B3A4E19707F
:102610003C4BB3600BF008F83046EBE7312075B166
:102620000EF070FA52200EF06DFA01200EF076FADC
:102630004EF2694143F22D400EF0E2FA51200EF0C5
:1026400061FAFFF773FF2A462146384601F09AFFE8
:102650000120F8BD3220002DF1D00EF053FA5220A7
:102660000EF050FA0220E1E73320002DE7D00EF003
:1026700049FA52200EF046FA0320D7E73420002D05
:10268000DDD00EF03FFA52200EF03CFA0420CDE7E8
:102690003520002DD3D00EF035FA52200EF032FA4C
:1026A0000520C3E73020002DC9D00EF02BFA0621FB
:1026B00015480EF075FA182114480EF089FA4EF2FA
:1026C000694143F22D400EF09BFA52200EF01AFAA7
:1026D000B4E71120B3E711200EF014FAFFF750FE13
:1026E000AFE700BFA40C0020D03D0020640C002008
:1026F00000040040DC41002094110020B1220008B9
:10270000202E0020EDD60008BC0F0108C20F0108E2
:10271000002313B50DF107018DF80730FFF784FE94
:10272000044690B19DF80730013B032B0DD8DFE83C
:1027300003F002060F1200221146094B02E00022AC
:10274000074B99781878FFF711FF204602B010BDAB
:1027500000220621F1E7024B00225978F2E700BF80
:10276000D03D002013B5124C20460DF0CBFC0123C8
:10277000A37704F09BFB0F4C206008B9FFF700FE25
:10278000E37843F00103E3700AF0AEFC0A4BFF224A
:10279000186000234FF4A87100930848084B0BF011
:1027A000E7FBFFF7AFFD0120FFF7B2FF02B010BD5E
:1027B000640C0020D03D0020C8110020E011002052
:1027C0006523000848B1074A1378013B012B07D85D
:1027D00093782BB90320FFF7B1BE0122024B1A7088
:1027E000704700BFA40C0020D4110020014B1878C2
:1027F000704700BFA40C0020014B9870704700BFC9
:10280000A40C0020014B9878704700BFA40C002056
:10281000014BD870704700BFA40C00200122014B6F
:102820001A707047D4110020F8B51C4C1C4EE37888
:10283000B268C3F342031AB9FFF778FE0020F8BD6F
:10284000184A52F8235023782BB9174B1B78042BC6
:1028500001D1FFF76BFE154F3B7893B100233B701E
:102860004FF080431B69E278DB0963F300022378B1
:10287000E27073B102F072F80028DFD101F04AF97A
:10288000DDE7002DDAD0B0680AF072FCA842E5D28C
:10289000D4E7054B1B78042BECD1CDE7D03D0020CD
:1028A000A40C002060100108DC410020D41100209D
:1028B00010B50B4B5A78012A03D0022A08D0002009
:1028C00005E09C78012C03D101F08CF9204610BD65
:1028D00058680AF04DFCC728F1D9FFF703FEF6E768
:1028E000A40C002010B5074BD87810F0FD0404D1DB
:1028F0000220FFF723FE204610BD0320FFF71EFE37
:102900000120F9E7A40C002038B50A4D0024EB782B
:10291000033B012B08D80320FFF710FE2046AC70C4
:1029200001F008F9012038BD0220FFF707FE20461C
:10293000F9E700BFA40C002038B50A4D0024EB785D
:10294000033B012B08D80320FFF7F8FD2046AC70AD
:1029500001F010F9012038BD0220FFF7EFFD2046FD
:10296000F9E700BFA40C002070B59B4C9B4D20687C
:10297000B0B10AF0FDFBB0F5FA6F11D30026552077
:1029800026600EF0BFF857200EF0BCF870200EF055
:10299000B9F829783246B1FA81F04009FFF7E6FD2F
:1029A0002B7823B18E4B93F820208E4B1A7023681E
:1029B000DBB98D4E30680AF0DBFB40F6B733984246
:1029C00013D92B788BB10DF00BFC70B9844CA37F1D
:1029D0005BB10AF089FB306053200EF093F894F855
:1029E000213013B970200EF08DF84FF080431B6931
:1029F000EA78DB097D4C63F300020020EA70FFF700
:102A000087FE2378032B1ED8DFE803F0022857AE99
:102A1000E36833B1984720B10120FFF78FFD002311
:102A2000A370236933B1984720B10120FFF786FDD9
:102A30000223A370636933B1984720B10120FFF7E7
:102A40007DFD0123A3700DF057FF694B1B78002B10
:102A500000F0C080BDE8704003F076B9A369002B98
:102A6000F1D098470028EED002F07AFB614C20703C
:102A700008BB06F08FF800F00100207008F0AAFEF5
:102A80002A785D4B1A700022554B9A772A685B4B67
:102A9000134063B95A4C2378012B08D00222594BBA
:102AA00020469A610CF024FC20460BF0EFFF022038
:102AB000FFF744FDC7E70120DDE7E369002BC2D043
:102AC00098470028BFD000224F4B1A704FF0804328
:102AD0004FF400129A612A68484B1340B3F1807F8B
:102AE00010D0A37853B3013B012B0BD86378022B92
:102AF00008D0FFF76FFC11200EF004F80DF070FB0A
:102B00000028FBD100F0F0FF0023E3703A4B2A7855
:102B10001B789A4208D12A68384B1340B3F1807F62
:102B200002D0A07800F0A2FCA378012B19D0022BD0
:102B300014D0002B87D1FFF7D5FE84E7284B5B7EAE
:102B4000002BDFD111200DF0DDFF0DF049FB002837
:102B5000FBD147F230500BF03EFAD3E7FFF7D4FE3B
:102B600071E7FFF7E9FE6EE7236A002B3FF46BAFD6
:102B7000984700283FF467AF0122194B9A771D4B05
:102B80001B782BB14FF0804320229A6108F008FE99
:102B90000120FFF7BDFD30B92A78A2B1697802465D
:102BA0000846FFF7E3FC0024174B1C7000F090FF71
:102BB000FFF7BCFC00F054FB2046FFF7BFFC53209E
:102BC0000DF0A0FF3FE70E4B1B78012BEBD1114618
:102BD0006878E6E770BD00BFC8110020D03D002036
:102BE000640C0020202E0020D0110020A40C002016
:102BF000CD110020C4110020CC110020FF000001E5
:102C0000DC41002000040040D41100200120704766
:102C100008B5FFF7FBFF08BD37B504460D46FFF7C3
:102C200085FC29462046FFF7F3FF60B1074B1A7871
:102C30004AB1074B20461B78D9090091C3F3001312
:102C4000A9780DF07DFE03B030BD00BFD03D00205F
:102C5000F83D002000B50B4B8FB0322193F82130A6
:102C6000094A01A805F005F901A809F0FFFB0DF0DC
:102C7000B3FA09F0FBFB054809F0F8FB0FB05DF86B
:102C800004FB00BF640C0020DA0F0108EB0F010801
:102C90002B4B13B51A7804464AB12A4B01211B78F5
:102CA000DB09009300230DF04BFE02B010BD00289D
:102CB000FBD0031FDBB2A02B12D8234B01461868B0
:102CC0000AF00AF920B1204603F0A2FF04F024F82C
:102CD000204603F095FF02B0BDE8104004F01CB898
:102CE00000F12003DBB2072B07D800F00704012016
:102CF000A040C0B203F0BAFFEDE700F15B03DBB226
:102D0000022B06D8243880B202B0BDE810400AF089
:102D10008DB800F15803DBB21A2B07D80B4A32F8F2
:102D2000130002B0BDE810400AF09CB83334E4B29E
:102D3000122CBAD8012102B0BDE8104003F0ECB863
:102D4000D03D0020F83D00202C1000202A10010862
:102D5000244B13B51A7804464AB1234B1B78DB0980
:102D60000093002319460DF0EBFD02B010BD0028C2
:102D7000FBD0031FDBB2A02B06D803F049FF02B043
:102D8000BDE8104003F0C8BF00F12003DBB2072B01
:102D900007D800F007040120A040C0B203F06EFF86
:102DA000EDE700F15B03DBB2022B05D8104602B061
:102DB000BDE810400AF03AB800F15803DBB21A2B14
:102DC00005D8104602B0BDE810400AF04BB83334C5
:102DD000E4B2122CC9D8114602B0BDE8104003F08D
:102DE0009BB800BFD03D0020F83D00202DE9F34105
:102DF0000446C0B1114E3378C3B10127DFF84080DB
:102E0000204603F01AF8054698F80030E030DB0958
:102E1000009301210023327880B207FA05F50DF006
:102E20008FFDAC43ECD102B0BDE8F08103F01EFF92
:102E300002B0BDE8F04103F06FBF00BFD03D0020FD
:102E4000F83D00202DE9F3410446C0B1114E33781E
:102E5000C3B10127DFF84080204602F0EEFF98F86A
:102E600000300546DB0900930023E0301946327834
:102E700080B207FA05F50DF063FDAC43ECD102B06A
:102E8000BDE8F08103F0FAFE02B0BDE8F04103F0C6
:102E900043BF00BFD03D0020F83D00202DE9F341A5
:102EA0000446C0B1114E3378C3B10127DFF840802A
:102EB000204602F0C2FF054698F80030E030DB09FA
:102EC000009301210023327880B207FA05F50DF056
:102ED00037FDAC43ECD102B0BDE8F08103F0DCFE7D
:102EE00002B0BDE8F04103F017BF00BFD03D0020A5
:102EF000F83D00202DE9F3410446C0B1114E33786E
:102F0000C3B10127DFF84080204602F096FF98F811
:102F100000300546DB0900930023E0301946327883
:102F200080B207FA05F50DF00BFDAC43ECD102B011
:102F3000BDE8F08103F0B8FE02B0BDE8F04103F057
:102F4000EBBE00BFD03D0020F83D00202DE9F04150
:102F500004460E4601F002FC00285CD12378013BB8
:102F6000202B66D8DFE813F02100260060007A00ED
:102F700080008C008F008F008F009400EE009A007C
:102F80009E00A400AF00BA00BD00C000CB00D60078
:102F9000DF0065006500650065006500650065008F
:102FA0006500650065006500F300002363700C2375
:102FB000A37027E06378013B032B3AD8DFE803F0E6
:102FC000020C0F2E0AF090F8030EA370030CE370AE
:102FD000030A2371607115E008F09DFEF4E72546B1
:102FE000A77804F11B08052F0CD8F8B204F0E0FA1A
:102FF000030CEB70030A2B7168710335A84507F1C8
:103000000107F0D15C4B31461B782046002B40F085
:10301000AF800AF071FB0120BDE8F0810023A370AE
:10302000E37023716371EDE76378022B04D0052B05
:1030300010D0FF232370E5E7E378A07840EA03206F
:10304000237940EA0340637940EA036000BA08F05C
:1030500069FED7E7A07808F08FFED3E7E278A17881
:10306000607809F0F9FAB3E762792379A17843EA45
:1030700002235BBAE27860789BB209F003FBC1E7F8
:1030800009F050FBBEE73146204608F056FFB9E78D
:10309000002008F023FE08F050FEB3E709F0CBFB58
:1030A0006070AFE709F0C9FB030A6370A070A9E77D
:1030B0006078A378E17840EA032040BA221D80B20C
:1030C00009F0BEFB9EE76078A378E17840EA032030
:1030D00040BA221D80B209F0CDFB93E709F0DDFB79
:1030E00090E709F0ADFADBE76078A378E17840EA91
:1030F000032040BA221D80B209F05EFB82E76078AF
:10310000A378E17840EA032040BA221D80B209F09A
:103110006AFB77E7E278A178003A18BF012260786D
:1031200009F0C5FA54E762792379A17843EA0223CA
:10313000E2785BBA003A18BF012260789BB209F0CE
:10314000D5FA5FE701230D4A637013705AE762787E
:103150000B4B4AB1A1781A7819B142F080021A706B
:1031600050E761F3C712FAE71B78C3F3C0131FE7F8
:103170000DF0C0FD4FE700BFD03D0020CD11002075
:10318000F83D002010B54378044613B1FF232370A7
:1031900011E08378013B032BF8D8DFE803F0021A33
:1031A00028410378072B07D0082BEFD12B4BDB7876
:1031B000C3F34203C37010BDC1780729FBD8BDE833
:1031C0001040264BDA7861F34302DA70186803F096
:1031D00070BE0378072B05D0082BD7D101F0CFFBA9
:1031E000E070E8E7C078BDE8104001F097BC0378D4
:1031F000072B0AD0082BC9D142790179C07801F098
:10320000C0FBA071000AE071D5E7C279837901792A
:1032100043EA0223BDE810404279C07801F0C7BB01
:103220000378072B0DD0082BB0D12379C0786179B2
:1032300040EA032040BAA21D80B2BDE8104001F070
:10324000CBBB2379C078617940EA032040BAA21D44
:1032500080B2BDE8104001F0DABB00BFD03D0020D5
:1032600008B509F041FF014B186008BD301300207C
:10327000174B10B51C789CB9164B1B78052B08D042
:10328000022B06D009F030FF134B1860134B1C7053
:1032900010BD4FF080431B691B0605D4FFF7BEFA33
:1032A000BDE81040FFF7DCBF0B4B18680028F7D0D3
:1032B00009F05EFF41F657339842E9D9FFF7D0FF96
:1032C000BDE810400122054B1A70FFF7A7BA00BFF6
:1032D000D03D0020DC4100203013002034130020BA
:1032E0002DE9F0411B4C064625781DB101242046EE
:1032F000BDE8F081FFF77AFA0138012805D80320EC
:10330000FFF71CF92846FFF777FA94F80080B8F128
:10331000000FEBD1104D2B78052BE7D1B5F84C30D1
:103320009B0702D50D4F3C7824B9FF2E94BF002493
:103330000124DCE7FFF75AFA0328D7D887F8008082
:10334000FFF78EFF28460BF04DFC284601F046FAA9
:10335000CDE700BFD03D0020DC4100203413002029
:10336000704700001A4B70B59C6C0F2644F4C06483
:103370009C649B6C012301F003048B4021F003014A
:1033800001F1804101F5A0518D68A400C0F38320B4
:10339000A04006FA04F425EA040528438860D843CF
:1033A0000C4912F0010F8C6814BF1C4304408C6060
:1033B00012F0020FCA6814BF1A430240CA60054ADD
:1033C000536111680B43136053680340536070BD31
:1033D000000C0140001800400F281FD8DFE800F063
:1033E000080C0F121518181818181B1B1B1B1B1B79
:1033F000062108460BF02FBE06210720FAE706211A
:103400000820F7E706210920F4E706210A20F1E762
:1034100006211020EEE706212120EBE7704701206E
:103420007047000008B5FFF7FAFFE0B1012207215D
:103430004FF08040FFF796FF0720FFF7CDFFFFF723
:10344000E1F903220E210848FFF78CFF0E20FFF759
:10345000C3FF054803220F21FFF784FFBDE80840A2
:103460000F20FFF7B9BF08BD000800402DE9F04765
:103470003023054683F31188FFF7D4FF4FF000098E
:103480000127874EDFF81C8256F8043B95B1012DC9
:103490004FD143454DD123F00F0A03F00F0307FA34
:1034A00003F421460522504624040BF042FFCAF8DB
:1034B000184001E0581CEED109F10109B9F1110FD2
:1034C000E2D106240127784EDFF8E09156F8040B8C
:1034D000002D3AD0012D40F0D580484540F0D280F3
:1034E00000F00F01202207FA01F120F00F000BF08D
:1034F00020FF00BF00BF00BF00BF00BF00BF00BF74
:1035000000BF00BF00BF00BF00BF00BF00BF00BFC3
:1035100000BF00BF00BF56F8040C022200F00F08E5
:10352000414620F00F00FFF71DFF4046FFF754FF14
:103530000DE0591CC0D003F00F01202207FA01F161
:1035400023F00F000BF0F5FEB6E7421CC8D1013C9A
:10355000BCD122464FF4006155480BF0EAFE00BF93
:1035600000BF00BF00BF00BF00BF00BF00BF00BF63
:1035700000BF00BF00BF00BF00BF00BF00BF00BF53
:1035800000BF03220B214A48FFF7ECFE0B20FFF798
:1035900023FF84F3118872B64FF0E02201201369F3
:1035A00023F001031361434B434A5A610022A300F5
:1035B00003F1604303F56143D3F80011D5B2012D47
:1035C00094BF002101F0010109B1C3F8800101326B
:1035D000202AF1D10134082CE8D1384C636843F03B
:1035E00000736360364B1A6802F009021A601A68A9
:1035F00042F46C3242F004021A6040F2B3321A62B2
:10360000304B43F001039847236943F004032361DF
:1036100030BF2D4B43F0010398474FF0E022236960
:1036200023F0040323611369284C43F00103136161
:10363000E36943F08003E361A36C43F40073A36484
:103640000AF088F803F0E8FF40F282324FF400619C
:1036500017480BF06EFEE36C43F00803E364E36C81
:10366000A36C43F48053A364A36CE36C43F0100396
:10367000E364E36CFFF774FE002383F3118862B602
:10368000BDE8F087431C3FF462AF00F00F01402219
:1036900007FA01F120F00F000BF04BFE57E700BFD7
:1036A0008010010803080040201101080D080040A7
:1036B0000008004000180040FFFF070000ED00E098
:1036C00000000140F8100108C4100108000C01407E
:1036D0000120704701207047C31F10B504460B2B13
:1036E0001AD8DFE803F0111919191319171515194C
:1036F00019060420FFF78CF82046FFF7E9FF10B108
:103700002046FFF7E7FF10BD0320F3E70220F1E7B3
:103710000720EFE70520EDE70120EBE701238B40D1
:10372000034202D00846FFF7D7BF704708B50D4BDC
:103730005A69D20706D51A68002022F001021A60E1
:10374000FFF7CAFF4022084BC3F88020BFF34F8F1A
:10375000BFF36F8F0122034B5A61BDE808400AF0A6
:103760002FBD00BF0018004000E100E008B50D4B80
:10377000586910F0020006D01A68012122F00202F6
:103780001A60FFF7CBFF8022074BC3F88020BFF3FE
:103790004F8FBFF36F8F0222024B5A61BDE8084082
:1037A0000AF00EBD0018004000E100E008B50E4B25
:1037B000586910F0040006D01A68022122F00402B1
:1037C0001A60FFF7ABFF4FF48072084BC3F88020FC
:1037D000BFF34F8FBFF36F8F0422034B5A61BDE8D5
:1037E00008400AF0EDBC00BF0018004000E100E016
:1037F00008B50E4B586910F0080006D01A6803216E
:1038000022F008021A60FFF789FF4FF40072084B9C
:10381000C3F88020BFF34F8FBFF36F8F0822034B95
:103820005A61BDE808400AF0CBBC00BF0018004058
:1038300000E100E008B50E4B586910F0100006D00A
:103840001A68042122F010021A60FFF767FF4FF494
:103850008062084BC3F88020BFF34F8FBFF36F8F98
:103860001022034B5A61BDE808400AF0A9BC00BF12
:103870000018004000E100E038B5254B5C69A20665
:1038800004F4787507D51A68052122F0200228462D
:103890001A60FFF743FF600608D51D4A062113682A
:1038A000284623F040031360FFF738FF210608D5B0
:1038B000174A07211368284623F080031360FFF797
:1038C0002DFFE20508D5124A08211368284623F483
:1038D00080731360FFF722FFA30508D50C4A092166
:1038E0001368284623F400731360FFF717FF4FF4A3
:1038F0008032084BC3F88020BFF34F8FBFF36F8F28
:103900004FF47872024B5A61BDE838400AF058BC57
:103910000018004000E100E038B52A4B5C69620500
:1039200004F47C4507D51A680A2122F480622846EF
:103930001A60FFF7F3FE230508D5224A0B2113680E
:10394000284623F400631360FFF7E8FEE00408D57F
:103950001C4A0C211368284623F480531360FFF798
:10396000DDFEA10408D5174A0D211368284623F46B
:1039700000531360FFF7D2FE620408D5114A0E21EE
:103980001368284623F480431360FFF7C7FE23041F
:1039900008D50C4A0F211368284623F4004313600E
:1039A000FFF7BCFE0222084BC3F88420BFF34F8F01
:1039B000BFF36F8F4FF47C42024B5A61BDE8384031
:1039C0000AF0FEBB0018004000E100E008B50E4B15
:1039D000586910F4802006D01A68122122F480223F
:1039E0001A60FFF79BFE0822084BC3F88420BFF340
:1039F0004F8FBFF36F8F4FF48022034B5A61BDE8A6
:103A000008400AF0DDBB00BF0018004000E100E004
:103A100010B5074C23784BB901F0C0FB02F02BFA2C
:103A200009F0D8F902F028FA01232370012010BD13
:103A30003713002010B5044C23781BB101F0F2FCC1
:103A400000232370012010BD3713002038B5154C1A
:103A500000252378032B22D8DFE803F0020B131B89
:103A60000A2311484370857009F0D8F901232370A7
:103A700038BDF6230C488370457009F0CFF9022356
:103A8000F5E7F62308484370857009F0C7F903236A
:103A9000EDE70A2304484570837009F0BFF92570EB
:103AA000E6E700BF351300204C130020054B1B78C0
:103AB00033B1054B1B780BB9FFF7C8BF0CF0ECBF57
:103AC000704700BF3A130020D03D0020012070470E
:103AD00008B5044B1B780BB9FFF79AFF01F09EFB6A
:103AE00008BD00BF3713002008B5064B1B780BB18B
:103AF000FFF7A0FF0023044A1370044A1360FFF786
:103B0000E5FF08BD371300204413002048130020B0
:103B10000120704708B5FFF7FBFF08BD014B18787F
:103B2000704700BF38130020014B1870704700BF6A
:103B300038130020014B1870704700BF3813002065
:103B4000014B1878704700BF39130020084B10B59F
:103B50000446187058B9FEF749FE022807D803201A
:103B6000FEF7ECFC2046BDE81040FEF745BE10BD58
:103B700039130020FFF7EABF024B187880F00100EC
:103B8000FFF7E4BF391300200122014B1A70704780
:103B900039130020084B1A78084B1B784BB982F078
:103BA0000102A0F5A443203B1F2B8CBF104601202F
:103BB00070470022F5E700BF3913002038130020BA
:103BC00000231946054A93721360054A0333212BDB
:103BD000917242F80C1BF9D1704700BF20100020F1
:103BE000C80C002008B503F087FDFFF7E9FF0022AD
:103BF000014B1A6008BD00BF4013002001EB4102D9
:103C000001460148FCF70ABDD43D0020104B70B4BA
:103C10001C78104D14F0010469780F4806D02B78F9
:103C200070BC03EB43031844FFF7E8BFAB78EE78B2
:103C300003EB430202449E4202F10302EFD9013337
:103C400002F8024C02F8034C02F8014CDBB2F2E736
:103C50002C3E002038100020D43D002038B501F063
:103C60007FFA044640B9002320461A46194601341B
:103C700006F03EF95B2CF6D15B25074C2846A3786D
:103C800022786178013506F033F9632D04F10304DD
:103C9000F4D1012038BD00BFD43D00200120704781
:103CA00008B5FFF7B5FEFEF75DFD01F091FA48B1EA
:103CB000012220214FF080400BF03BFB4FF080436E
:103CC00020229A6108BD000008B500230E4A137037
:103CD0000E4A13700E4A136004F05CFF78B901F0CD
:103CE0003FFA60B907F086FD4FF080434FF40012B1
:103CF0009A6101F00FFFBDE8084003F07CB94FF076
:103D000080432022F4E700BF361300203B1300203D
:103D10003C13002008B503F033F906F0B7F803F0C0
:103D2000BEF80022084B1880084B1A7005F0E6FA1E
:103D300004F0F8FE05F0CAFA01F0DAFA18B1BDE8AD
:103D40000840FFF7C1BF08BDF83D00204525002011
:103D500037B504460D4601F0DDFA002800F0CE80AC
:103D6000002D00F0CB8047F613639C423AD8B4F59F
:103D7000FC4F07D247F603439C4200F0BC80284624
:103D800003B030BDA4F5FC44132CF8D801A353F8BC
:103D900024F000BFFB3D0008273E00084B3E000812
:103DA0006F3E0008953E0008BB3E00087F3D0008BE
:103DB0007F3D00087F3D00087F3D00087F3D0008F3
:103DC0007F3D00087F3D00087F3D00087F3D0008E3
:103DD0007F3D00087F3D0008E13E0008E93E000805
:103DE000F13E000847F643639C42C8D10122444B90
:103DF0001A700022434B1A60C1E7002301200DF125
:103E000007018DF80730FEF70FFB9DF80730042BF4
:103E100002D013F0FD0FB2D1012211463A4B1878AF
:103E2000FEF7A4FBABE7002301200DF107018DF89D
:103E30000730FEF7F9FA9DF80730042B02D013F093
:103E4000FD0F9CD101220221E8E7002301200DF1A2
:103E500007018DF80730FEF7E7FA9DF80730042BCD
:103E600002D013F0FD0F8AD101220321D6E70023EF
:103E700001200DF107018DF80730FEF7D5FA9DF806
:103E80000730042B03D013F0FD0F7FF478AF01222D
:103E90000421C3E7002301200DF107018DF807304D
:103EA000FEF7C2FA9DF80730042B03D013F0FD0F84
:103EB0007FF465AF01220521B0E7002301200DF159
:103EC00007018DF80730FEF7AFFA9DF80730DA1ECC
:103ED000012A02D9002B7FF452AF012206219DE76F
:103EE0000020FFF733FE4AE70122084B1A7046E72D
:103EF000FFF742FE43E7FFF70DFF40E705463EE7C9
:103F00003B1300203C130020D03D0020391300203B
:103F100070B51A4CFEF728FD206858B1A37A4BB94A
:103F200009F026F96368984204D301212089A1721F
:103F3000FFF70EFF00250126114C206858B1A37A27
:103F40004BB909F015F96368984204D3012120891F
:103F5000A672FFF7FDFE0335212D04F10C04ECD110
:103F6000084B1A783AB100221A700CF039F900287F
:103F7000FBD1FFF7CFFE01F057F970BD20100020F4
:103F8000C80C00205113002008B5064B1B780BB954
:103F9000FFF73EFD4FF0804320229A61BDE80840C4
:103FA00001F084B8371300202DE9F7430E46A84AE4
:103FB00089780446136891B1032B00D80133A54DCD
:103FC0001360FEF7B3FA2B899C4204D1B77857B13E
:103FD00009F08AF82860A04B00251F462CE0002B32
:103FE000EDD0013BEBE7AB7A0BB92B60F3E7394639
:103FF0002046FFF7ADFEAF722F600028EBD1002006
:1040000003B0BDE8F08309FB05F507EB050999F856
:104010000A300BB97B511EE041462046FFF798FE5F
:1040200089F80A8047F805800028E8D013E00135B8
:104030000B2D03F10C030ED01A899442F7D196F898
:1040400002804FF00C09B8F1000FDCD009F04CF8F9
:1040500009FB05F5785131462046FFF79BFD002806
:10406000CDD03146204601F0EBF90028C7D047F605
:1040700010639C4236D8B4F5FC4F1BD247F62003A0
:104080009C4200F0248147F603439C42B7D031465E
:10409000204600F063FD0028B1D031462046FFF7EE
:1040A0001FF90028ABD03146204603B0BDE8F043ED
:1040B000FEF7B2BDA4F5FC44013CB3780F2C3CD80C
:1040C000DFE814F0590074008F00AA00D200ED0060
:1040D00038002B01310137013D01430149014F01F6
:1040E00055015B01A4F5FC43403B9AB2032ACED8AC
:1040F000032BCCD801A252F823F000BF0D410008D9
:104100001B41000827410008FF3F0008B378002B3F
:104110003FF475AFFEF79EFD71E7B2784F4B02B1E9
:1041200001221A706BE7B378002B3FF468AFFEF7FB
:1041300075FB64E74A4A137061E7002B3FF45FAFF9
:10414000484C2378012B3FF45AAF002301200DF196
:1041500007018DF80730FEF767F99DF80730042B4B
:1041600003D013F0FD0F7FF44AAF00220121207825
:10417000FEF7FCF943E7002B3FF441AF394C2378BD
:10418000022B3FF43CAF002301200DF107018DF815
:104190000730FEF749F99DF80730042B03D013F0E0
:1041A000FD0F7FF42CAF00220221E0E7002B3FF44B
:1041B00026AF2C4C2378032B3FF421AF00230120A2
:1041C0000DF107018DF80730FEF72EF99DF8073045
:1041D000042B03D013F0FD0F7FF411AF0022032155
:1041E000C5E7002B3FF40BAF1E4C2378042B3FF4A4
:1041F00006AF002301200DF107018DF80730FEF70F
:1042000013F99DF80730042B03D013F0FD0F7FF452
:10421000F6AE00220421AAE7002B3FF4F0AE114CC9
:104220002378052B3FF4EBAE002301200DF10701AD
:104230008DF80730FEF7F8F89DF80730042B03D00F
:1042400013F0FD0F7FF4DBAE002205218FE700BFE6
:104250004013002020100020C80C00203A1300203A
:1042600036130020D03D0020002B3FF4C8AE464C52
:104270002378062B3FF4C3AE002301200DF1070184
:104280008DF80730FEF7D0F89DF80730DA1E012AC6
:1042900002D9002B7FF4B3AE0022062167E7002B82
:1042A0003FF4ADAE384C2378002B3FF4A8AE002588
:1042B00001200DF107018DF80750FEF7B5F89DF8C4
:1042C0000730012B3FF69BAE2A4629464FE7B378CD
:1042D000002B3FF494AE00F043FF80F00100C0B229
:1042E00000F046FF00F03CFF28B107F06BFA4FF0FA
:1042F000804320220FE004F04DFC00287FF47FAEC5
:1043000000F02EFF00287FF47AAE07F073FA4FF02A
:1043100080434FF400129A6171E60BB104F0E0FFA4
:1043200004F038FCE0E7002B3FF469AE04F0B2FF84
:1043300065E6002B3FF463AE04F0BAFF5FE6002BA6
:104340003FF45DAE04F064FD59E6002B3FF457AE38
:1043500004F072FD53E6002B3FF451AE04F00AFD69
:104360004DE6002B3FF44BAE04F016FD47E6002B64
:104370003FF445AE04F024FD41E6002B3FF43FAE90
:1043800004F032FD3BE600BFD03D0020014B187821
:10439000704700BF4413002001207047F8B5054660
:1043A0000C46574E574F21462846FFF7F5FF50B1B0
:1043B000062C08D8DFE804F004084F91919E9E0077
:1043C00000224F4B1A60F8BD326862BBA5F12B0387
:1043D000092B0DD8DFE803F0220C0C0C0C0C0C1D83
:1043E00018050022FF2311463420FDF7A7FE012205
:1043F0004FF4FA712846FDF7E5FE2846FDF77CFEEE
:1044000008F072FE3060DEE70022FF231146332001
:10441000EBE70022FF2311463220E6E70023FF22CC
:1044200019462B20E1E7104608F0A2FE47F22F5371
:10443000984203D90524344B1C70B4E77B7E0BB142
:104440000324F8E7314B1B78002B4FD02846BDE8FA
:10445000F840FDF751BE306890BBA5F12B03092B46
:10446000B1D801A252F823F0B7440008C7430008AE
:10447000C7430008C7430008C7430008C7430008F4
:10448000C7430008AD440008A34400089144000855
:104490000022FF2311463420FDF750FE0122C821DF
:1044A000A8E70022FF2311463320F5E70022FF236F
:1044B00011463220F0E70023FF2219462B20EBE7BC
:1044C00008F056FE47F22F53984201D90624B2E76E
:1044D0007B7E002BB6D00424ADE7FF224FF4FA61B7
:1044E0002846FDF76FFE2846FDF706FE0022064B24
:1044F0001A7068E70022044B1A70FEF78FF9A5E7DF
:1045000048130020640C002044130020D03D0020FC
:10451000014B1978FFF742BF441300200120704778
:1045200070B506460D4634200021FDF735FE10B962
:104530000024204670BD00213320FDF72DFE002809
:10454000F6D000213220FDF727FE0028F0D0002110
:104550002B20FDF721FE0028EAD029463046FFF740
:10456000DDFF04460028E3D00022044B29461D70DD
:10457000034B30461A60FFF711FFDAE744130020BF
:104580004813002070B50C461546FDF721FF06467E
:1045900080B17CB1134B5B7E13BB013C052C09D869
:1045A000DFE804F0030C120808182DB102213420B2
:1045B000FFF7B6FF304670BD0121F8E715B10221C3
:1045C0003320F5E70121FBE715B102213220EFE7A7
:1045D0000121FBE715B102212B20E9E70121FBE7CF
:1045E0001E46E7E7640C002008B5094B1B786BB941
:1045F000FEF7FCF850B9074B1A783AB1064A527EDA
:1046000022B95978BDE80840FDF7B0BF08BD00BF2A
:1046100044130020D03D0020640C002070470000AF
:104620002DE9F04F484F85B005460E46FFF7F6FFDF
:10463000FFF7DAFF3C78002C32D0444D2B6813B9D9
:1046400008F052FD2860286808F092FD41F2873397
:10465000984205D93B7801333B7008F045FD28604E
:104660003B78013B032B17D8DFE803F0020C101452
:1046700000229620114606F0C9FA0024204605B013
:10468000BDE8F08F002296211046F4E70021962223
:104690000846F0E79622F6E700243C702C60EDE730
:1046A0002B4B1B78BBB931462846FFF7D7FA0028B9
:1046B000E3D031462846FFF7F1FA0028DDD0314635
:1046C000284600F039FE04460028D6D03146284658
:1046D000FDF792FDD2E7002320461A461946013421
:1046E00005F006FC5B2CF6D101AC0027A2464FF08A
:1046F0000A08DFF860B0DFF860900A225946504699
:10470000FBF78CFF99F81F30FAB2B3FBF8F1914236
:1047100014D9312B20780AD9002396221946013763
:1047200005F0E6FB0A2F04F10104E6D1BBE71D2BDF
:104730004FF00003F1D81A469621F0E700232078C5
:104740001A461946EBE700BF3B1300203C1300203C
:104750003613002038110108640C002070B505469E
:104760000E46FDF7E3FEFEF741F810B10320FDF71A
:10477000E5FE2B780A2B0ED10124084B31461C7024
:10478000074B28461B781BB908F0B6FF204670BDC2
:104790000CF0B0FAFAE70020F9E700BF511300204F
:1047A000D03D0020012810B5044611D002280AD1BE
:1047B000FEF71CF80138012805D80320FDF7BEFEDE
:1047C0000020FEF719F82046BDE8104008F034BC80
:1047D000014B1870F7E700BF90110020014809F065
:1047E000FABB00BFA08601000E4BF0B51B6893B169
:1047F000222202FB00300C4A0123164630F81150E9
:1048000032F8027BDCB2AF4206D104F0070336F87F
:10481000133020F81130F0BD0133092BF0D1002303
:10482000F7E700BF54130020881401082DE9F7436F
:1048300004460D4607F07AF800274FF022092D4E66
:10484000DFF8B4807080E0B2854250D900232B4A53
:104850000FE01CF801EBBEF1FF0F01D070451BD03B
:1048600001311129F5D10133DBB2062B02F111021E
:104870003BD094460021ECE7012A07D1012B05D15A
:1048800073888DF800708DF8017016E08DF8013096
:104890008DF80010738810E0D8F800202AB309FBC7
:1048A000032333F81120110AD3B2120AE4D1002BEA
:1048B000ECD18DF800308DF801308DF80230009881
:1048C00003F0AEFEC0F307238DF80400C0F30740E9
:1048D0008DF805308DF806009DF8063020469DF8CD
:1048E00004209DF8051005F003FB0134ABE703B08D
:1048F000BDE8F0834C0D002054130020500D002023
:1049000070B40D461143014304D170BCCC220A4857
:10491000FBF7FABE00242226112306FB04F1064809
:10492000013B13F0FF03057042700844F8D10134D5
:10493000062CF1D170BC70475813002010B5064A00
:104940000B461478012C05D158780978FFF74CFFF5
:10495000204610BD0020FCE74C0D0020024B1878CB
:10496000431E5842584170474C0D0020CC235843F9
:1049700001EB01111144223000EB4100704704208B
:104980007047032838B510D805290ED8102A0CD83E
:10499000FFF7ECFF054603F079FA0446681C03F0C4
:1049A00075FA44EA002080B238BD0020FCE70328F5
:1049B00070B51C460FD805290DD8102A0BD8FFF763
:1049C000D5FF0546E1B203F0C9FA210A681CBDE82B
:1049D000704003F0C3BA70BD2DE9F84300240546CA
:1049E0000F461646A14600F12208BC4208EB04001F
:1049F00001D1BDE8F8832B19B3F54C7F04DA03F03D
:104A000045FA30550134F0E706F80490FAE72DE94D
:104A1000F04105460E461746002400F12208B44234
:104A200008EB040001D1BDE8F0812B19B3F54C7FF0
:104A300002DA395D03F092FA0134F0E7032806D870
:104A4000CC22504300F12201014803F06DBA7047B7
:104A500058130020032838B50CD8084900230C78D7
:104A6000012C07D14D78A84206D10B70FFF7E6FF65
:104A7000204638BD0020FCE71846FAE74C0D002020
:104A8000032806D8CC22504300F12201014803F04C
:104A900093BA704758130020074B084A10B51A60A4
:104AA0000023074C2370607006F040FF6080607840
:104AB000BDE81040FFF7E4BF541300205813002056
:104AC0004C0D0020032808B50CD8074A5070FFF79A
:104AD000D7FF06F0C1FE2D2802D02D2006F0B9FE2A
:104AE000012000E0002008BD4C0D0020032810B577
:104AF00010D8094A117869B9012450701470FFF771
:104B0000BFFF06F0A9FE2D2802D02D2006F0A1FE41
:104B1000204600E0002010BD4C0D0020032810B5F9
:104B2000044609D8FFF7ACFF2046FFF793FF204665
:104B3000BDE81040FFF7C6BF10BD000008B505482E
:104B400002F0C6F9BDE808404FF44C722221024839
:104B500003F0EAB943110108CE18010808B50A4666
:104B600009490346087801280CD1A3F5A443203B4A
:104B70001F2B06D9907820B150781178FFF734FEBA
:104B8000002008BD0120FCE74C0D002070B5044654
:104B90000078FF2801D106F05FFE0D4900220D4686
:104BA00011F8016BD3B2864203D00132102AF7D13B
:104BB00013462278FF2A12BFFF22013303F00F03AE
:104BC000E85C18BF2270BDE8704006F042BE00BF2E
:104BD000A614010838B50B780546FF2B0C4602D108
:104BE00006F03AFE2070284638BD38B540F25634FB
:104BF00040F2663520460021013403F072F9AC42E0
:104C0000F8D138BD10B506F027FE0023024605494D
:104C100011F8014BD8B2944203D00133102BF7D1D5
:104C2000184610BDA614010810B50446FFF7EAFFA8
:104C30002146BDE8104000F2563003F052B908B5E5
:104C4000FFF7E0FF00F2563003F020F9082828BFF4
:104C5000002008BD70B506F0FFFD0723124A12F8C8
:104C6000011B81421DD0013B13F0FF03F7D1072444
:104C7000FFF7E5FF0130B0FBF4F304FB13040B4B2B
:104C800013F8145003EB44035E7806F04FFE3146F0
:104C90000246284606F023FEE0B2BDE87040FFF76A
:104CA000C3BF0624E4E700BFB61401089814010846
:104CB00038B5FFF76BFFFFF7C2FF074B13F8104043
:104CC00003EB40035D7806F031FE2946024620469C
:104CD000BDE8384006F003BE981401082DE9F04302
:104CE0001E4B85B01B784BB30024002320461A4688
:104CF0001946013405F0FCF85B2CF6D101AC002517
:104D0000A0460A26DFF85890164F0A224946404628
:104D1000FBF784FCFB7FEAB2B3FBF6F1914200D8CB
:104D2000BAB9312B20780DD90023962219460135C6
:104D300005F0DEF80A2D04F10104E6D1012005B0EA
:104D4000BDE8F0831D2B4FF00003EED81A469621E4
:104D5000EDE7002320781A461946E8E724140020DE
:104D600038110108640C002070B5424E0446F378F7
:104D7000414913F0010F414A1AD0414B1B7873B9D6
:104D8000404D2B6001250D70157019211A46FDF755
:104D9000D5F9FF22C8212046FDF714FA32E0137836
:104DA00033B9384A136001220A7019221946EEE716
:104DB000354DEB7F0F2B4FF0000344D813700A786A
:104DC000002A37D01A4619212046FDF7B7F90122EB
:104DD0004FF47A712046FDF7F5F9EB7F93B9294D31
:104DE0002B6813B908F080F92860286850B108F0E2
:104DF000BFF94EF66023984204D9002301202B60AE
:104E0000FEF792FEF278214D12F0010F2B78204A26
:104E100024D04FF4802191612BB91E4B96225978F2
:104E2000187806F059FD012320462B70BDE870402C
:104E3000FDF762B9114613462046FDF77FF9FF22C0
:104E40004FF4FA71C6E70F481370036001200C4A53
:104E50000870137019461A46204698E7042191619C
:104E60002BB10C4B9A785978187806F038FD00234E
:104E7000DAE700BFD03D0020DF0E0020251400201F
:104E80002614002028140020640C00203814002070
:104E9000000C0040EF3D002070B5334E04463578DD
:104EA000042D4CD8DFE805F0035A1F505A0007F0D4
:104EB00099FF2E4BC0F34006187800F0BEFF022881
:104EC00018BF2B4B314618BF1D78204618BFC5F3BD
:104ED00000152A460023FDF731F9FF223221204632
:104EE000FDF770F92BE0142301201A461946FDF74F
:104EF00025F9142300201A461946FDF71FF914233B
:104F000002201A461946FDF719F90322FA21012059
:104F1000FDF758F90322FA210020FDF753F9032287
:104F2000FA210220FDF74EF90120FDF7E5F80020F7
:104F3000FDF7E2F80220FDF7DFF801233370204689
:104F4000BDE87040FDF7D8B81423FB201A46194677
:104F5000FDF7F4F80122FA21FB20C1E700233370AA
:104F6000FFF79AFFEBE700BF2D140020421400204A
:104F7000F83D0020FF2810B504461CD10E4BD3F895
:104F8000303123F07F43B3F5DC4F0DD100226E2387
:104F90001146FDF7D3F820460121FDF7E7F820463A
:104FA000BDE81040FDF7A8B8B3F5DC0F03D100232E
:104FB0006E221946EDE710BDE00E002013B503F098
:104FC000BDFD0128374C0CD103F010FEC0F30723C0
:104FD00010F0FF008DF8053013D1DBB2C3B103230D
:104FE000237023780133DBB20B2B237020D10023F5
:104FF000237004F06BF923782B4AD05C04F046F957
:1050000022E0782810D005D8282809D0502809D0C7
:105010000923E5E7A02809D0C828F9D10823DFE74C
:105020000423DDE70523DBE70623D9E70723D7E7DA
:105030000A2BDED103F0DAFDFF21C0F30742002086
:1050400003F0FDFE03F084FD03F0D0FD2378C0F3F0
:105050000742092B24D8DFE803F01D2323050C0F9A
:105060001215181BFF21002002B0BDE8104003F00C
:10507000E6BEFF212820F7E7FF215020F4E7FF21BB
:105080007820F1E7FF21A020EEE7FF21C820EBE721
:105090000021E8E7FF2002B0BDE8104003F088BD22
:1050A000C820F8E734140020141000204FF080438B
:1050B00020229A617047000008B5054B0021187046
:1050C000FB20FDF769F8BDE80840FB20FFF7E4BED0
:1050D0002D14002010B5037C022B0AD0FB2B11D01D
:1050E0001D4B1B7833BBFFF739FC80F00100C0B2C9
:1050F00007E01A4B1B78032B1CD0174B187880F055
:10510000010010BD154B1B78032B13D1447C9CB1BF
:10511000142302201A46194604F0EAFE1423002044
:105120001A46194604F0E4FE14231A4619460120D3
:1051300004F0DEFE0020E4E723462246214602205A
:1051400004F0D6FE234622462146204604F0D0FE37
:10515000234622462146EAE7361400202D1400207B
:10516000024B187800F00100704700BFF43D0020AA
:1051700010B5094C237860F300032370DB0708D5D2
:1051800004F0A4F8216840F25230BDE8104002F06B
:1051900001BF03F0DDFCF5E7F43D002010B501226E
:1051A0004FF400714FF080400AF0C3F84FF0804395
:1051B0004FF40072054C9A612046012204210AF046
:1051C000B8F804230120A36110BD00BF000C00400B
:1051D00038B501224FF400714FF080400AF0A9F871
:1051E0004FF080444FF400730A4DA361284601221A
:1051F00004210AF09EF804232046AB6120224FF4DC
:1052000000410AF096F82369034AC3F3C0331370D0
:10521000012038BD000C00402614002008B507F01E
:1052200063FF012008BD00004FF080431B69294A3D
:1052300010B5C3F3C0331370FDF7D8FA60B9264C2C
:10524000206807F095FFB0F57A7F05D907F04CFF8D
:10525000206053200BF056FC204B1B78DBB1002460
:10526000002320461A461946013404F041FE4C2C16
:10527000F6D1FF2320461A461946013404F038FEC1
:105280004F2CF6D1002320461A461946013404F06B
:105290002FFE632CF6D1124B1A68124B1340B3F158
:1052A000807F08D1104B1B78042B02D101220F4BB9
:1052B0001A70012010BD002BFBD10B4A1278042A72
:1052C000F7D00A4A11780029F3D01370FEF75CFC7E
:1052D000EFE700BF26140020301400202C1400201B
:1052E000D03D0020FF000001DC41002037140020E9
:1052F00008B51023FF201A461946FCF71FFF0322AA
:10530000FA21FF20FCF75EFFFF20FCF7F5FE0120ED
:1053100008BD000047F65563984207D121B1054BFF
:10532000197829B901221A70084670470121FBE754
:105330000021F9E72C140020284B73B51B78054693
:105340000E46FBB104238DF8043050238DF8053050
:1053500096238DF80630019803F062F9204BC0F3D4
:105360000742C0F3072418709A70C1B2D2B2E0B2FB
:105370005C7005F04BFC31462846FFF7AFFC01207E
:1053800002B070BD07F02EFD10F0020F154C1AD0C0
:10539000207820B914231A46194604F0A9FD124BAF
:1053A000187800F04AFD022814D0104B1B78DB0659
:1053B00010D52378002BDED114231A46194601207C
:1053C00004F096FDD7E72378002BE8D11A4619465A
:1053D0001846E2E72378002BCDD1EEE73614002003
:1053E000EC3D00202D14002042140020F83D002048
:1053F00010B501224FF400714FF0804009F099FF81
:105400004FF080434FF00072054C9A610421012255
:10541000204609F08EFF4FF48023A36110BD00BF2A
:10542000000C004008B5FFF7E3FF012008BD0000B5
:10543000024B40F25230196802F0ACBDF43D00203E
:10544000F8B5B34F06463B780D463BB18B782BB190
:105450000022114610463A7005F0D8FB45F223238E
:105460009E4200F0E58245F221239E4200F0E08258
:10547000A84B1C7834B1A6F5FC43513B022B01D953
:105480000024CAE047F609639E427ED8B6F5FC4F79
:1054900014D247F62A039E426CD847F620039E4258
:1054A00028D8B6F5A44F00F0F9813FD8E32E00F0DC
:1054B0000381E72E00F017810124AEE0A6F5FC463B
:1054C000092EF9D801A353F826F000BFF5550008BE
:1054D0001F56000839560008B9540008B95400088E
:1054E00071560008535600082F570008B954000899
:1054F000DD550008A6F5F046213E092EDCD801A3B3
:1055000053F826F0FB580008B9540008615700080A
:10551000B9540008B9540008B954000803580008E9
:1055200065580008B5570008D957000847F213031B
:105530009E4200F0AA80BFD845F202239E42BBD112
:10554000754B1B78032B9BD0AB78002B98D0002198
:105550003720FCF721FE714C0322FA213820FCF79A
:1055600031FE3820FCF7C8FD207800F066FC0228E8
:1055700086D0AFE1B6F5F84F9ED1AC78002C9BD029
:1055800001F0D0FF07F00CFE47E047F61E639E4295
:1055900000F0DB80A6F5FC464A3EB3B20B2B8BD85D
:1055A0000B2E89D801A353F826F000BF41590008FB
:1055B00085590008A9590008CD5900088D570008E1
:1055C000A5570008B9540008575A00087B5A00082C
:1055D0009B5A0008BB5A0008815400084E4B1B78A8
:1055E000032B3FF44DAFAB78002B3FF449AFFFF7EF
:1055F000E5FC45E7484B1B78032B3FF441AFAB7804
:10560000002B3FF459AF464B1B78012B7FF454AF6E
:10561000FEF7BCFE041E18BF01242046F8BD3E4B19
:105620001B78032B3FF42CAFAB78002B3FF444AF37
:105630003B4B1B78022BE9E7374B1B78032B3FF4DE
:105640001FAFAB78002B3FF437AF354B1B78032BE4
:10565000DCE7314B1B78032B3FF412AFAB78002B08
:105660003FF42AAF2E4B1B78002B7FF425AFCFE7FA
:10567000294B1B78032B3FF403AFAB78002B3FF48F
:105680001BAF274B1B78062BC0E7234B1B78032B44
:105690003FF4F6AEAC78002C3FF40EAF00236E2141
:1056A0001A46FF20FCF74AFD0121FF20FCF75EFDB2
:1056B000FF20FCF721FDB0E7184B187800F0BDFB88
:1056C00002287FF4F9AE174B1B78D9067FF5F4AEAC
:1056D000FFF744F900287FF4EFAEE320AC781CB369
:1056E00000F0AAFA99E70D4B187800F0A6FB022803
:1056F0007FF4E2AE0B4B1B78DA067FF5DDAEFFF7E9
:105700002DF900287FF4D8AEE720AC78E7E700BF9A
:10571000361400202C1400202D14002042140020E8
:10572000D03D0020F83D002000F09CFAC4E6B94BC3
:105730001B78032B3FF4A4AEB74B1B7803B1AB78B7
:10574000B64A03F0010313709AE6AC78002C7FF49C
:1057500097AEA82000F070FAA82000F083FA5CE76A
:10576000AC4B1B78032B3FF48BAEAB78002B3FF494
:10577000A3AEFFF76FFA06F0B5F8A94BC0F3072206
:105780001870C0F307405A70987079E6A14B1B78E7
:10579000032B3FF475AEAB78002B3FF471AE0123C1
:1057A0003B706DE6AB78002B3FF46AAE62200BF0E5
:1057B000A9F965E6974B1B78032B3FF461AEAC78F3
:1057C000002C3FF479AE06F037F9FF287FF474AE71
:1057D0000220FFF771FC20E78E4B1B78032B3FF470
:1057E0004FAEAB78002B3FF467AE06F025F93328B7
:1057F0003FF662AE0220FFF75FFC332006F014F99B
:105800003EE6844B1B78032B3FF43AAEAB78002B7B
:105810003FF452AE834E824D347814F0010412D11D
:105820000120FFF7A5FC3378DB0705D505F0CAFF9B
:105830004FF0804320229A61AB78013BDBB2942B7E
:105840007FF61EAEC4E706F071F8772805D902206E
:10585000FFF732FC9623AB70DFE606F067F81E30E8
:10586000A870DAE66B4B1B78032B3FF409AEAC78DB
:10587000002C3FF421AE06F059F81E28684D09D8D7
:105880000220FFF719FC00221146104605F0BEF970
:105890000023E0E706F04AF81E38E1E75D4B1B788D
:1058A000032B3FF4EDADAB78002B3FF4E9AD0021C5
:1058B0003820FCF771FC5C4C0322FA213720FCF7FE
:1058C00081FC3720FCF718FC207800F0B6FA02289B
:1058D0007FF4D6AD207800F0B0FA30B9022000F0A5
:1058E0001BFA002000F0F1FDCAE5207800F0A5FACF
:1058F00002287FF4C5AD0020F1E7AB78EBB1494C4D
:105900000020FFF7D9FB607800F00F00FFF7B8F830
:10591000607800F00F00FFF79DF80022434BA01CB9
:105920001A70FFF7C5F905F0DDFF3D4BC0F3072204
:105930001870C0F307405A709870FFF779FD9FE523
:10594000AB78002B3FF49CAD364C607800F00F0034
:10595000FFF796F8607800F00F00FFF77BF8002063
:10596000A11CFFF737F9637860F303036370FFF757
:105970005FFD607800F00F00FFF7A4F80020FFF74C
:105980009BFB7DE5AB78002B3FF47AAD254C60782E
:1059900000F00F00FFF774F8607800F00F00FFF7D9
:1059A00059F80120A11CDCE7AB78002B3FF468AD6F
:1059B0001C4C607800F00F00FFF762F8607800F090
:1059C0000F00FFF747F80220A11CCAE7AB78002BB5
:1059D0003FF456AD05F040FF2D287FF451ADFEF7A2
:1059E000BDFF04460F4B587800F00F0044B9FFF795
:1059F0007DF8204622462146FEF782FF0320E8E696
:105A0000FFF728F80020FFF757FB0024074B1C7016
:105A100003E600BF2D140020D03D002024140020F8
:105A2000EF3D0020F43D00204214002035140020FA
:105A3000AC78002C7FF440ADFEF790FF00283FF4D7
:105A40003BAD234B1A7822B1294630461C70FEF735
:105A500075FF0124DAE7AB78002B3FF42DAD002C65
:105A60003FF42AAD0BF08FF860200BF04BF80122C9
:105A7000052100200BF078F8CFE5AB78002B3FF440
:105A80001BAD002C3FF418AD0BF07DF860200BF03F
:105A900039F8012205211320ECE7AB78002B3FF405
:105AA0000BAD002C3FF408AD0BF06DF860200BF04F
:105AB00029F8012205212720DCE7AB78002B3FF4F1
:105AC000FBAC002C3FF4F8AC0BF05DF8A5E500BF93
:105AD0003514002008B50020FFF7EEFA0A4A1388B3
