:020000040800F2
:1000000000040020B9010008BB010008BB01000882
:10001000BB010008BB010008BB010008BB010008D0
:10002000BB010008BB010008BB0100083D9E0008A1
:10003000BB010008BB010008BB01000809AE0008B5
:10004000BB010008BB010008BB010008BB010008A0
:10005000BB010008BB010008E1AB000809AC0008C7
:1000600031AC000859AC000881AC0008BB010008A5
:10007000BB010008BB010008C9B20008BB010008B1
:10008000A9AC0008BB010008BB010008BB010008C7
:10009000BB010008BB010008BB010008BB01000850
:1000A000BB010008BB010008DDAE0008F1AE00088E
:1000B000BB010008BB010008BB010008BB01000830
:1000C000BB0100080DAD0008BB010008BB01000822
:1000D000BB010008BB010008BB010008BB01000810
:1000E00072B6264880F30888254880F30988254899
:1000F00025490860022080F31488BFF36F8F09F050
:10010000E1FB08F077FF4FF0553020491B4A914240
:100110003CBF41F8040BFAE71D49194A91423CBF24
:1001200041F8040BFAE71B491B4A1C4B9A423EBF9D
:1001300051F8040B42F8040BF8E700201849194A5B
:1001400091423CBF41F8040BFAE709F0BFFB09F00C
:10015000BAFB154C154DAC4203DA54F8041B884722
:10016000F9E703F017FF124C124DAC4203DA54F8D2
:10017000041B8847F9E709F0A7BB00000004002032
:10018000000C00200000000808ED00E00000002046
:100190000004002058C60008000C0020E8120020CF
:1001A000E8120020F4330020E0000008E00000081E
:1001B000E0000008E000000892E700F000F8FEE729
:1001C0002DE9F04FC1F80CD0C3689D46BDE8F08F13
:1001D000002383F311882846A047002009F05CFD26
:1001E000FEE709F0B3FC00DFFEE7000053B94AB9AF
:1001F000002908BF00281CBF4FF0FF314FF0FF302F
:1002000000F00CB8ADF1080C6DE904CE0BF024FB46
:10021000DDF804E0DDE9022304B07047704700BF59
:10022000062008B500F00EFA01200AF05BFB00BFC3
:1002300038B5124B04461D682A6B1AB10023C2E977
:10024000044338BD182000F04BFB0246286378B108
:1002500000210B2301209381C2E90401084B0949C5
:10026000094DC2E9011300231560C2E9044338BDFA
:100270004621064B064800F00DFB00BF000C002095
:10028000ECDE050034126DE60E33CDAB80C5000800
:1002900098C5000838B5194B1C68226B8AB11369E0
:1002A0001749546903FB01F1164800FB0411A3FB35
:1002B0000030013341EB0001C2E9043121F000407C
:1002C00038BD182000F00CFB0246206388B10124E1
:1002D00000250B230A480C49C2E904451160014678
:1002E0000A4D0B4C93810B4BC2E90154C2E9043116
:1002F00038BD5221084B094800F0CCFA000C002010
:100300002DF451582D7F954C0E33CDAB34126DE644
:10031000ECDE05002E7F954C80C5000898C50008CE
:10032000032A30B415D941EA0004A40784460B46D9
:1003300004D0541E0FE0043A032A08D91946604637
:1003400053F8044B5CF8045BA542F4D0F1E7604637
:100350001946541E7AB1431E0139021901E09A422E
:1003600009D013F8010F11F801CF6045F7D0A0EBC9
:100370000C0030BC7047002030BC704788420ED95A
:100380008B1883420BD900EB020C002A6DD0624619
:1003900013F801CD994202F801CDF9D170470F2A27
:1003A0000FD8034602F1FF3C002A5ED00CF1010C8D
:1003B000013B8C4411F8012B614503F8012FF9D161
:1003C000704740EA01039B0750D1A2F1100370B5BA
:1003D00001F1200C23F00F0501F1100E00F11004C3
:1003E000AC441B095EF8105C0EF1100E44F8105C72
:1003F0005EF81C5C103444F81C5C5EF8185C44F831
:10040000185C5EF8145CE64544F8145CEAD10133EC
:1004100012F00C0F01EB031102F00F0400EB0313B9
:1004200028D08E46043C24F003064FEA940C1E4468
:100430001C1F5EF8045B44F8045FB442F9D10CF170
:10044000010402F0030203EB840301EB840102F1D7
:10045000FF3C4AB10CF1010C013B8C4411F8012B1B
:10046000614503F8012FF9D170BD7047034602F1D1
:10047000FF3C9BE72246EAE770B5860747D0541E4B
:10048000002A3ED00346CAB201E0013C39D303F84A
:10049000012B9D07F9D1032C2CD9CDB205EB0525F5
:1004A0000F2C1A4605EB054534D9A4F1100C2CF09D
:1004B0000F0603F1100EB6444FEA1C1CC2E90055AA
:1004C000C2E9025510327245F8D10CF1010214F064
:1004D0000C0F03EB021204F00F0C13D0ACF1040369
:1004E00023F003030433134442F8045B9342FBD12B
:1004F0000CF003042CB1C9B21C4403F8011BA34245
:10050000FBD170BD64461346002CF4D1F9E70346D5
:100510001446C0E7A446E1E738B5C46B0CB100202F
:1005200038BD8021054600F011FA0246E86330B17B
:10053000031F7C3243F8044F9342FBD1EFE74FF0A7
:10054000FF3038BD30B51F29054683B008D8C36BCE
:100550000C4653B153F8240043F8242003B030BDB7
:10056000162303604FF0FF30F8E78021019200F07E
:10057000EDF9019A0346E8630028F3D0011F00F16A
:100580007C05002041F8040FA942FBD1E2E700BF3F
:100590001F2938B505461ED8C26B0C466AB152F801
:1005A000213053B1012B06D0591C10D00021204618
:1005B00042F824109847002038BD284600F0F2F891
:1005C000224601462846BDE8384000F0D7B8162339
:1005D00001202B6038BD16234FF0FF302B6038BD53
:1005E0001F292BD838B5C36B0C460546A3B153F869
:1005F000242003EB84034AB1511C0BD0012A07D0FD
:10060000002520461D609047284638BD012038BD92
:10061000032038BD022038BD802100F097F9034641
:10062000E86340B100201A1F03F17C0142F8040F77
:100630008A42FBD1DBE74FF0FF3038BD4FF0FF308F
:10064000704700BF38B5134B1F281D681DD8EA6BD3
:10065000044662B152F820304BB1012B05D0591C31
:100660000FD0002142F820109847002038BD2846BE
:1006700000F098F8224601462846BDE8384000F0D0
:100680007DB8162301202B6038BD16234FF0FF30B4
:100690002B6038BD000C0020114B1F2870B51E6860
:1006A00008D8F36B04460D464BB153F8240043F8C9
:1006B000245070BD162333604FF0FF3070BD802191
:1006C000304600F043F90346F0630028F4D00021DF
:1006D000021F7C3042F8041F8242FBD1E5E700BFD5
:1006E000000C002038B50B4B1D68EC6B0CB10020E2
:1006F00038BD8021284600F029F9E86338B1031F8E
:1007000000F17C0243F8044F9342FBD1EFE74FF036
:10071000FF3038BD000C002038B5174B1F281D686E
:1007200026D80446E86BA0B150F8242000EB8403DF
:100730004AB1511C0BD0012A07D0002520461D606C
:100740009047284638BD012038BD032038BD02201F
:1007500038BD8021284600F0F9F8E86340B1002157
:10076000031F00F17C0243F8041F9342FBD1DBE737
:100770004FF0FF3038BD00BF000C002070B50026E0
:10078000074D0446084611462E600AF0B3F8431C94
:1007900000D070BD2B68002BFBD0236070BD00BF64
:1007A000F01200200AF0AEB8844641EA000313F0CC
:1007B000030349D1403A23D30B6803604B6843607D
:1007C0008B688360CB68C3600B6903614B694361CD
:1007D0008B698361CB69C3610B6A03624B6A4362B5
:1007E0008B6A8362CB6AC3620B6B03634B6B43639D
:1007F0008B6B8363CB6BC36340304031403ADBD2B9
:1008000030320BD30B6803604B6843608B688360A6
:10081000CB68C36010301031103AF3D20C3205D3DC
:1008200051F8043B40F8043B043AF9D2043208D0B2
:10083000D2071CBF11F8013B00F8013B01D30B8824
:1008400003806046704700BF082A13D38B07B1D0DE
:1008500010F00303AED0C3F10403D21ADB071CBFB0
:1008600011F8013B00F8013BA4D331F8023B20F81A
:10087000023B9FE7043AD9D3013A11F8013B00F853
:10088000013BF9D20B7803704B7843708B788370FF
:1008900060467047144600B51A460A4B0D461B6861
:1008A00085B0DE6803464CB10749019130460749DF
:1008B0000294009500F0E4F8FFF7B2FC04490C46FE
:1008C000F3E700BF000C0020D4C50008E4C5000811
:1008D000E0C5000808B513460022FFF7DBFF00BFA4
:1008E000024B0146186800F031B800BF000C002030
:1008F000024B0146186800F0EBB800BF000C002066
:1009000070B5114E054633680C46BBB121462846EA
:1009100009F0CCFF431C01460CD0C41C24F0030496
:10092000A04205D02846611A09F0C0FF013001D06D
:10093000204670BD4FF0FF34204670BD194609F0C7
:10094000B5FF3060E2E700BFE81200202DE9F84370
:10095000CD1C25F0030508350C2D38BF0C25002DC6
:10096000064618DBA94216D8DFF8DC8000F06EF8E6
:10097000D8F80420A2B1144603E0636822467BB194
:100980001C4623685B1BF8D40B2B1FD8944263686A
:1009900054D053600CE00C2333600020BDE8F88392
:1009A00029463046FFF7ACFF431C044619D00560CA
:1009B000304600F051F804F10B00231D20F0070031
:1009C000C21A1CBF1B1AA350BDE8F88361199442D8
:1009D000256014BF5160C8F80410635163684B6010
:1009E000E6E7D8F804701FB33C467F68002FFBD1C0
:1009F00023683946304604EB030909F057FF814567
:100A000016D123683046ED1A2946FFF779FF0130E9
:100A10000ED02368D8F804202B442360536883B198
:100A2000A34203D01A465B689C42FBD10023B0E787
:100A30000C233046336000F00FF8AEE7C8F80430FE
:100A4000B6E7C8F80470B3E7E8120020014800F0E8
:100A500035B800BF04130020014800F037B800BFCC
:100A6000041300200CB400B583B004AB53F8042B7E
:100A7000019300F0C7F803B05DF804EB02B07047D3
:100A80000EB400B5074A82B003AB0146106853F8B4
:100A9000042B019300F0B6F802B05DF804EB03B04C
:100AA000704700BF000C0020704700BF704700BFB8
:100AB000704700BF704700BF704700BF704700BF5E
:100AC0000120704701207047704700BF704700BF8A
:100AD000002950D038B551F8043C0C1F002BB8BF8A
:100AE000E4180546FFF7B2FF274A13682BB1A3426B
:100AF0000CD92168601883422CD0284663601460AA
:100B0000BDE83840FFF7A8BFA3420FD81A465B687C
:100B1000002BF9D111685018844217D02CD3636090
:100B200054602846BDE83840FFF796BF116850185A
:100B3000A04214D020D8216860188342EFD11868F1
:100B40005B680844C4E900035460EAE723680B4487
:100B50001360E6E718685B6808442060CDE720680A
:100B60000144501883421160DBD1D3E900040144F1
:100B7000C2E90014D5E770470C2328462B60BDE876
:100B80003840FFF769BF00BFEC1200209368013BBB
:100B9000002B936005DAD2F818C0634507DB0A29F9
:100BA00005D01368581C106008461970704700F093
:100BB000B5BE00BF9BB1F8B5134406460F46541EA0
:100BC0005D1E01E0AC4208D03A46304614F8011FE1
:100BD000FFF7DCFF431CF5D1F8BD0020F8BD002075
:100BE000704700BF936810B514461BB91846002320
:100BF000636010BD00F0B0FC0023A36000236360BD
:100C000010BD00BF2DE9F04FA1B08B4691461C46A8
:100C1000049018B1036A002B00F04181DBF86420D6
:100C2000BBF90C30D20702D49F0540F131811E0779
:100C300040F19A80DBF81030002B00F09580002303
:100C400043F220020D9399F800300127954E079446
:100C5000ADF83920002B77D04D4604E015F8013F60
:100C6000002B00F09780252BF8D1B5EB090A40F056
:100C700094802B78002B67D000234FF0FF32013592
:100C8000CDE9092308930B938DF863301E9306E09A
:100C90002546089B801B07FA00F0034308932C4667
:100CA000052214F8011B304600F0E8FEA14600289A
:100CB000EED1089BD80644BF20228DF86320190787
:100CC00048BF2B22297848BF8DF863202A297AD182
:100CD000079A1168043200290792C0F2AD800B9187
:100CE00069782E2900F086806F4C0322204600F0A0
:100CF000C5FE38B14022089B001B8240134309F116
:100D00000109089319F8011B062268488DF838106C
:100D100000F0B4FE002800F09580654B002B7ED0DB
:100D200007A900915A460498624B08A9AFF30080C6
:100D30000390039B013307D00D9B039A13440D933B
:100D400099F80030002B87D1DBF8643013F0010FE5
:100D5000BBF80C3002D19A0540F193805B0616D4A3
:100D60000D9821B0BDE8F08F5946049800F024FE9C
:100D700000283FF464AFDBF86430DD0707D4BBF82C
:100D80000C309C0503D4DBF85800FFF79FFE4FF0B2
:100D9000FF30E6E7B5EB090AD6D009F1FF38059533
:100DA0004546DDF8108001E0A2453FD92C465A4661
:100DB000404615F8011FFFF7E9FE02340130A4EBAD
:100DC0000904F1D1C0E7A1F13002092A88BFA94680
:100DD00087D80B9B00E00134217803EB830302EBFF
:100DE0004303A1F13002092AF5D92E29A1460B931C
:100DF0007FF47AAF99F801102A292DD1079B09F1C8
:100E000002001A680433002A0793B8BF4FF0FF337B
:100E100099F8021009928146B8BF099364E7079BCD
:100E2000073323F007030833079385E70D99059DE2
:100E300051442B780D911DE7494243F002030B9179
:100E400008934DE707A900915A460498194B08A941
:100E500000F0D2F803906CE70023A1F13002092AD8
:100E600009F1010909933FF63FAF19F8011F03EBA0
:100E7000830302EB4303A1F13002092AF5D9099358
:100E800032E7DBF85800FFF721FEBBF80C3065E7CE
:100E9000DBF85800FFF712FEBBF90C30C7E600F094
:100EA0000BFBBBE614C600081CC6000820C60008E1
:100EB00000000000B50B00088C4600B586461346BE
:100EC000034A714610685DF804EB6246FFF79ABE6C
:100ED000000C00202DE9F84F92461F460A698B68E6
:100EE0000C469A42B8BF1A46CAF8002091F843301F
:100EF0000646DDF8289013B10132CAF800202268B6
:100F000091065FD5DAF800300233CAF80030226863
:100F100012F0060F11461DD1E1689942D8BF114663
:100F200018DD4FF0000804F1190B05E0E568DAF868
:100F30000030ED1A45450CDD01235A46394630464E
:100F4000C847013008F10108F0D14FF0FF30BDE88B
:100F5000F88F216894F84330003B18BF01238A06BC
:100F60000AD53021E21882F8431094F845105A1C33
:100F70002244023382F843103946304604F14302DA
:100F8000C8470130E1D0D4E902202368DAF80050E4
:100F900003F00603042B21691BD08A4220DD4FF0A9
:100FA0000008521A904400251A3401E0454517DA2A
:100FB0000123224639463046C847013005F1010574
:100FC000F4D1C2E712F0060F0DD0003B18BF012389
:100FD000D2E7401B8A4220EAE078E2DC0028E2DC2B
:100FE0000020BDE8F88FE168DAF800309942D8BFF8
:100FF000114696DCAEE700BF2DE9F04717460A7EA2
:1010000084B00C46064698460C9D01F1430C002A1C
:1010100035D0A2F15803D9B2202969D8202B67D83E
:10102000DFE813F0E6006600660066006600660012
:1010300066006600660066006600AC007000660030
:101040006600660066007000660066006600660066
:1010500021008300C60066006600B60066008300BB
:1010600066006600EC002B682268181D6169286024
:1010700010061B6802D4520600F1E08019600023BC
:10108000E14623613B4621463046CDF8008003AA65
:10109000FFF720FF013020D04A4639463046236909
:1010A000C047013019D02368E0689B07DDF80C9039
:1010B00018D5484516DD002504F1190A04E0E0685A
:1010C000A0EB0903AB420DDD012352463946304601
:1010D000C047013005F10105F1D14FF0FF3004B0F8
:1010E000BDE8F0874845B8BF484604B0BDE8F08782
:1010F000012084F8422004F142090023206184F891
:101100004330BFE72A682368111D1806296002D4FE
:10111000590600F195801068014600286268C0F207
:1011200093804FF00A0E534815E020682B6810F0AA
:10113000800F53F8041B02D1400648BF89B26F2AC2
:1011400014BF4FF00A0E4FF0080E4A482B600023E0
:10115000626884F84330002AA26051DB236823F0E0
:101160000403236000294BD1002A7BD1E146BEF164
:10117000080F56D0ACEB0903236183E72A680120EE
:10118000116804322A6004F1420984F84210B4E77D
:101190002B6800211A1D2A60D3F800906268484627
:1011A00000F06CFC002863D0A0EB09006060A4E7AD
:1011B000236843F02003236078222F4884F84520D9
:1011C0002A6813F0800F52F8041B03D113F0400F6C
:1011D00018BF89B22A60DA0744BF43F020032360B6
:1011E00019B9236823F0200323604FF0100EAEE7F7
:1011F0005823204884F845302368E1E72368DBE77B
:101200007546E146B1FBF5F30A4605FB131A19468C
:1012100010F80A30AA4209F8013DF3D2BEF1080FD6
:10122000A8D12368DD07A5D5626823699A42A1DCAD
:10123000302309F1FF3989F800309BE719801EE758
:10124000B2F90010084668E72D20002AA26084F851
:10125000430002DB23F0040323600A250548AE4661
:101260004942CEE7037804F1420984F842307EE730
:10127000606842E728C600083CC60008024A0349E5
:10128000034800F0DFBA00BF500C00208D1C00089E
:10129000040C00200C4B416810B59942044601D063
:1012A00000F0F4FCA168094B994202D0204600F0FE
:1012B000EDFCE168064B994204D02046BDE81040A1
:1012C00000F0E4BC10BD00BF141300207C1300200C
:1012D000E413002008B54B6EDA0702D48B899B0516
:1012E00001D5002008BD886DFFF7E8FB002008BD90
:1012F00008B54B6EDA0702D48B899B0501D5002017
:1013000008BD886DFFF7E2FB002008BD2DE9F8431A
:1013100000250423304C3149DFF8C490DFF8C48045
:10132000314F324E0822C4F8381104F15C002946CE
:10133000C4E90335C4E90055C4E90555A5606566EF
:10134000FFF79AF804F15800C4E90849C4E90A878C
:101350002663FFF7ABFB264B2946082204F1C400A5
:101360006367C4E91A55C4E91E552567C4F8CC5013
:10137000C4F88050FFF780F804F1680304F1C0005E
:10138000C4F88830C4E92398C4E92576FFF78EFBBA
:10139000184B294604F596700822C4F8DC30C4E9DD
:1013A0003455C4E93855C4F8D850C4F83451C4F899
:1013B000E850FFF761F804F1D003C4E93E87C4F8B0
:1013C000F49004F59470C4F80061C4F8F030BDE8FE
:1013D000F843FFF76BBB00BF141300207D12000819
:1013E00089180008B1180008F1180008151900083C
:1013F0000900010012000200F8B506462A48FFF76E
:101400005DFB2A4BD3F83831002B43D0284FD7E966
:101410000134013B04D524E05A1C04F1680420D0B7
:10142000B4F90C50013B002DF6D1224B04F15800C9
:10143000E3606566FFF73AFB1B48FFF747FB0822AE
:101440002946C4E90155C4E904552560A56104F1A4
:101450005C00FFF711F8C4E90D55C4E912552046A8
:10146000F8BD3D680DB12F46D1E74FF4D671304637
:10147000FFF76CFA044680B104230560294625462F
:101480000C304FF4D072A0606360FEF7F5FF3C6053
:101490002F46BCE7FFF73AFFB8E703483C60FFF789
:1014A00015FB0C233360DAE710130020141300201F
:1014B000500C00200100FFFF10B504460B48FFF759
:1014C000FDFA236A2BB90A4B0A4AD3F83831226253
:1014D00023B1BDE810400548FFF7F8BAFFF716FF43
:1014E000BDE810400148FFF7F1BA00BF101300201B
:1014F00014130020951200080148FFF7DFBA00BF5F
:10150000101300200148FFF7E1BA00BF10130020BC
:1015100008B50548FFF7D2FABDE808400020034AA5
:10152000034900F08FB900BF10130020500C0020B9
:10153000D512000808B50020044A054900F082F9D8
:10154000BDE808400348FFF7C1BA00BF500C0020B7
:10155000F1120008101300209368002B00F0F080B7
:101560002DE9F04FB1F90CC090461CF0080F8146F0
:101570000C4683B02BD00B694BB31CF00207D8F894
:10158000006032D04FF0000A5546D4F828B0216AE6
:10159000AB4FC5B1BD422B46524628BF3B464846DD
:1015A000D847002840F3C280D8F8083082441B1A7C
:1015B0002D1AC8F80830002B00F0AE80D4F828B0FF
:1015C000216A002DE6D1D6E900A50836E1E72146DB
:1015D000484600F0F1F9002840F0AD80B4F90CC0A5
:1015E000D8F800601CF00207CCD11CF0010A63D1CE
:1015F00057462368A16818468B46002F58D01CF424
:10160000007F00F0B180B9420A4600F2DD801CF490
:10161000906F2FD0216962695D1A02EB420202EBE2
:10162000D2726B1C52103B44934292BF93469B462E
:101630001A461CF4806F00F0E68011464846FFF71A
:1016400085F9002800F0F5802A4621690190FFF70E
:10165000ABF8A289019B22F4906242F08002A28141
:101660005819C4F814B0ABEB05053A46BB462361E4
:10167000A56020603D46002751460192FEF77EFEA0
:10168000A1682368019AA1EB0B011A44A1602260B2
:10169000D8F80830AA445B1BC8F80830002B3BD0B0
:1016A0002368A16818468B46B4F90CC0002FA6D158
:1016B000D6E900A708369EE73846BB463D46002DD2
:1016C00040D0002845D03A46D4E904C32068AA4255
:1016D00028BF2A466045A16804D901EB030A524598
:1016E00000F38280934272DC5A464846216AD4F85D
:1016F00028C0E047B0F1000A18DDB7EB0A070FD0A9
:101700000120D8F80830D344A3EB0A03A5EB0A055F
:10171000C8F80830002BD2D1002003B0BDE8F08F0C
:101720002146484600F0B2FA0028EAD0B4F90C305D
:1017300043F04003A3814FF0FF3003B0BDE8F08FCA
:1017400000207047756833460836002DFAD0D3F86C
:1017500000B02A460A21584600F090F9002865D0CA
:101760000130A0EB0B07AEE722699A4214D36569FA
:10177000BD4211D86FF00043BB4228BF3B4693FBEC
:10178000F5F3524605FB03F34846A56A216AA847CC
:10179000051ECBDD7F1B7BE7B94228BF39460D46CE
:1017A000184651462A46FEF7E9FDA1682368491B01
:1017B0002B44A16023600029ECD12146484600F06B
:1017C00065FA0028E6D0B1E7BB463A4652E75946EB
:1017D0000192FEF7D3FD019AA36892469B1AA3607B
:1017E00023681344236088E759465246FEF7C6FD36
:1017F0002368214653444846236000F047FA0028F6
:101800003FF47BAF92E7484600F084F90346002896
:101810007FF426AF48462169FFF75AF90C22B4F944
:101820000C30C9F8002023F0800381E76A1C1746BA
:101830004AE70C22B4F90C30C9F8002078E700BF61
:1018400000FCFF7F2DE9F8434FF0000980460F466A
:101850001646D6E90154013D10D4A389012B08D9BD
:10186000B4F90E30013304D021464046B84749EA66
:101870000009013D6B1C04F16804EED13668002EAE
:10188000E7D14846BDE8F88310B50C46B1F90E1013
:1018900009F001F8002803DB636D0344636510BDA4
:1018A000A38923F48053A38110BD00BF002070479B
:1018B0002DE9F0410C46B1F90C101F46CB05054649
:1018C00016460BD421F48051A1813B46324628466E
:1018D000B4F90E10BDE8F04108F0E4BFB4F90E1001
:1018E0000223002208F0DCFFB4F90C10EAE700BF85
:1018F00010B50C46B1F90E1008F0D2FFB4F90C3057
:10190000421C0EBF23F4805343F480536065A381CF
:1019100010BD00BFB1F90E1008F0C6BFF8B50646FD
:101920000D46144610B1036A002B37D0A269A38973
:10193000A2601A0719D52369BBB122686169D31A5D
:10194000EDB299422F4620DD0133A1680139A16033
:10195000511C2160157062699A420DD0A389DB0782
:1019600001D50A2D08D03846F8BD2146304600F092
:1019700023F838B92369E0E72146304600F086F9BC
:101980000028F0D04FF0FF37EDE72146304600F059
:101990007DF90028F6D101232268D6E7FFF78CFDF8
:1019A000C4E700BF03460A46024908681946FFF724
:1019B000B5BF00BF000C002038B52F4B05461B6893
:1019C0000C4613B11A6A002A4BD0B4F90C30180730
:1019D0001CD5226922B313F0010107D000206169F0
:1019E000A0604942A1613AB1002038BD980758BFB4
:1019F0006169A160002AF7D1190658BF1046F4D5D5
:101A000043F04003A3814FF0FF3038BDD9062CD5F9
:101A10005A0712D4226943F00803A381002ADAD1BD
:101A200003F42071B1F5007FD5D02146284600F09F
:101A30006DF9B4F90C302269CDE7616B51B104F155
:101A40004402914204D02846FFF742F8B4F90C3022
:101A5000002262630021226923F02403C4E90021EB
:101A6000D9E71846FFF728FDAFE7092243F0400306
:101A70002A60A381C7E700BF000C00205FFA81FC49
:101A8000810744D00346511E22B909E09A0709D0C4
:101A9000013905D31846027801336245F6D1704703
:101AA00000207047184603290CD80029F8D00346B7
:101AB000014401E08B42F3D0184613F8012B624534
:101AC000F8D1704710B50CEB0C24024604EB04442B
:101AD00002E00439032915D9104652F8043B63404B
:101AE000A3F1013E2EEA030313F0803FF1D0034639
:101AF000014401E08B4208D0184613F8012B6245DF
:101B0000F8D110BD10460029F1D1002010BD1146BA
:101B1000C9E700BF2DE9F041144641B30AB30646B8
:101B20000D4600F07BF98442074602D8B4EB500F13
:101B300013D821463046FEF709FF804650B1BC421B
:101B40002246294628BF3A46FEF72EFE2946304651
:101B5000FEF7BEFF4046BDE8F081A8464046BDE81E
:101B6000F081A046FEF7B4FF4046BDE8F081114683
:101B7000BDE8F041FEF7EABEF8B5B1F90C300C460D
:101B80001E07074639D44A68002A53DDE56A002D4E
:101B900031D000223E683A6013F48052216A55D158
:101BA00001233846A847451C024663D0B4F90C30DF
:101BB000E56A216A580705D56368D21A636B0BB1D1
:101BC000236CD21A00233846A847421C40D000227A
:101BD000236962602360A389DB0400D56065616BC3
:101BE0003E6041B104F14403994202D03846FEF709
:101BF0006FFF002363630020F8BD0E69002EFAD04A
:101C00009B0718BF00230D6808BF4B690E60AD1B12
:101C10008B600CE02B463246D4F828C03846216A47
:101C2000E047B0F1000CA5EB0C05664406DD002D85
:101C3000F0DCE0E70A6C002AA8DCDCE7B4F90C3041
:101C400043F040034FF0FF30A381F8BD626DB1E770
:101C50003968B4F90C301D29F2D80B4ACA40D507AF
:101C6000EED50022626022692260DA04B7D500292D
:101C7000B4D0B4E73B68002B98D01D2B01D0162BB5
:101C8000DCD13E60B7E700BF0100402038B50B69EA
:101C9000CBB10C46054608B1036ABBB1B4F90C30B0
:101CA0008BB1626ED00701D4990512D52846214622
:101CB000FFF762FF636E0546DA0702D4A3899B052E
:101CC0000BD5284638BD0025284638BDFFF7F4FB64
:101CD000E4E7A06DFEF7F2FEE8E7A06DFEF7F6FE82
:101CE000EFE700BF014618B1044B1868FFF7CEBFFD
:101CF000034A04490448FFF7A5BD00BF000C0020BB
:101D0000500C00208D1C0008040C002070B5B1F9A7
:101D10000C300C46990796B007D5012204F1470311
:101D2000C4E90432236016B070BDB4F90E10054644
:101D3000002929DB6A4608F0C6FD002822DB4FF4A3
:101D400080612846019EFEF701FE88B3A38906F450
:101D5000704643F08003A3814FF48063B6F5005FC3
:101D6000C4E904032060DED12846B4F90E1008F05F
:101D7000B6FD0028D7D0A38923F0030343F0010365
:101D8000A381D0E7B4F90C3013F0800F14BF4026C4
:101D90004FF4806628463146FEF7D8FD40B1A3894E
:101DA000C4E9040643F080032060A38116B070BD2F
:101DB000B4F90C309A05B6D4012123F0030304F1E1
:101DC000470243F00203C4E90421A3812260AAE789
:101DD00070B50C46B1F90E10154600291E4696B096
:101DE0000FDB6A4608F06FFD00280ADB019B4FF409
:101DF000806203F47043A3F50053B3FA83F35B09E5
:101E000007E0A289002312F0800F14BF40224FF494
:101E10008062002033602A6016B070BD51F8043C27
:101E2000181F002BBCBF0B58C0187047034B1A7803
:101E300042F001021A70186801F0EFBBB4300020C4
:101E400008B501F0E8FB044B186018B9BDE808407C
:101E5000FFF7ECBF08BD00BFB430002070B54FF0F5
:101E600080442025FFF7ECFF012220214FF0804025
:101E700008F094FF204601224FF40071A56108F09C
:101E80008DFF4FF400730D4EA361304601220421F3
:101E900008F084FF0423B3614FF4003308480122A3
:101EA0008361022108F07AFF2A462046802108F04B
:101EB00075FFBDE8704001F0FCBB00BF000C0040A6
:101EC00000040040F7B506461C46142000231746C0
:101ED0000F4A019100FB03F112F801C08D18BCF10B
:101EE000000F10D10123535406F00AFD640068600E
:101EF000032201A905F11100AF60EC602E74FEF71A
:101F000053FC03B0F0BD0133632BE3D1F9E700BF0D
:101F1000F82800201FB54FF6FF74ADF804408DF887
:101F2000064001990323FA220020FFF7CBFFADF80A
:101F300008408DF80A4002990323FA220120FFF796
:101F4000C1FF0323FA220220ADF80C408DF80E40A9
:101F5000039904B0BDE81040FFF7B4BF73B5044661
:101F60000D4600F0ADF9064628B347F62A039C4219
:101F700017D847F626039C4209D8B4F5A44F48D099
:101F800045F202239C4266D0304602B070BDA4F5F3
:101F9000F044283C6B79022C26D8DFE804F02C10A2
:101FA000190047F603439C42EED16B79394C23B1BB
:101FB00006F0A6FC20600026E6E72360FBE7002B86
:101FC000E2D004F04BFEFF28DED1FFF7A3FFDBE7F2
:101FD000002BD9D004F042FE3328D5D8FFF79AFF62
:101FE000332004F033FEE6E7002BCDD004F0B0FD43
:101FF0009F28C9D9E9E7002BC6D004F0A9FD2828FD
:10200000C2D8FFF787FF00221146104603F0DEF921
:10201000BAE76B79002BCED04FF6FF731E4CADF8AC
:1020200004308DF80630FA22032337200199FFF798
:1020300049FF207800F05FFA022806D1002000F066
:10204000A3F9002000F01FFEB5E7207800F053FA56
:102050000328B0D1F2E76B79002BACD04FF6FF73B9
:102060000D4CADF804308DF80630FA2203233820E9
:102070000199FFF727FF207800F03DFA02289AD057
:10208000207800F038FA032895D0022000F07CF97F
:102090000220D7E7501400208814002037B5002410
:1020A0004FF6FF75ADF804508DF80650E0B20323EB
:1020B000FA2201990134FFF705FF632CF2D10120C8
:1020C00003B030BD70B500252E46144C2378F3B113
:1020D000606806F0CAFBA36898420FD306F010FCB4
:1020E000E368606033B9267066600023207C1A467E
:1020F00019460AE0013BE360002BF4D0E368207C42
:10210000DB07F2D5E37CA27C617C03F0EDF80135BE
:10211000632D04F11404D9D170BD00BFF82800204C
:1021200010B50B4C01F05CFA03F0A6F8204601F064
:102130006AFA2378204643F08003237001F065FAA1
:10214000FFF7ACFF18B1BDE81040FFF787BE10BD28
:10215000B830002038B500F047F80446002839D0E0
:102160001E4D286848B106F080FB40F6B83398420F
:1021700003D9FFF7D5FF00232B6006F051F910F0CB
:10218000020318BFFF23164D17BF002018461A463A
:10219000194604BF1A46194603F0A6F8287800F03D
:1021A000AAF9022818D0287800F0A5F9032813D03E
:1021B0000C4B1B78DB060FD5FF231A46194601206E
:1021C00003F092F8002302201A46194603F08CF817
:1021D000FFF778FF204638BD0023EEE750140020BB
:1021E00088140020B83000202DE9F04F1A4C074623
:1021F00085B02078884600F07EF948B3207800F05A
:102200007AF90025DFF854A00190002405EB0516AB
:102210005FFA85FB564416F8019BB94511D3C145B9
:102220000FD28DF80C408DF80DB00399019801F094
:10223000FDFB012805D90023FF221946484603F07B
:1022400053F80134E4B2112CE5D10135062DDCD16F
:10225000002005B0BDE8F08F871400205C0C002042
:1022600004280DD805290BD8102A09D8662301EBBC
:10227000011103FB0010034B024433F812007047B6
:102280000120704712BC0008042808D839B9054B52
:1022900082F0010202EB400033F810007047012089
:1022A000704700BFFEBB0008012070470120704747
:1022B00008B5FFF7FBFF08BD0120704701207047FC
:1022C000012070477047704708B5FFF7FCFF08BD55
:1022D000012070477047704713B502AB03E9030054
:1022E0000F4B1B78B3B99DF8053073B16AB100F09C
:1022F00075FD04460146009800F032FD2046009925
:1023000002B0BDE8104001F091BB009800F048FD1C
:102310000446F3E7009800F061FD0099F0E700BF84
:102320005C140020034610B400885C880A4640EA2A
:102330000440998810BCFFF7CFBF10B504460121B7
:10234000FFF7F0FF2146FFF7AFFF30B10121204634
:10235000FFF7E8FF2146FFF7ABFF00F0010010BDDB
:1023600038B500210446FFF7DDFF05462146FFF79B
:10237000A9FF21462846FFF7A7FF38BD012303FA2E
:1023800000F0C0B200F051BC10B504460120A040DE
:10239000C0B201F036F92046BDE81040FFF7EEBFAD
:1023A0000120704708B5FFF7FBFF08BD10B50446D4
:1023B00000F0EAFB2046FFF78BFF2046FFF7F2FF15
:1023C000BDE8104046F2A81007F06BBC08B501202C
:1023D000FFF7ECFFBDE8084006F0E0BA08B50020C2
:1023E000FFF7E4FFBDE8084006F0FEBA38B501216A
:1023F0000546FFF797FF29460446FFF75FFF0028D1
:1024000052D029462046FFF7A9FD00284CD0294686
:10241000204605F05CFE002846D02946204605F0FF
:1024200073FD002840D02946204605F08BF8D8B32C
:102430002946204605F060F8B0B32946204602F050
:1024400039F988B32946204602F040F960B329469D
:10245000204605F0A7FD38B32946204601F0F6FBDB
:1024600010B36B797BB147F65A439C4223D00ED808
:1024700047F601439C421BD047F603439C4215D0CC
:10248000B4F5F84F0ED02846FFF716FF0DE047F6DB
:102490005B439C4212D047F65C439C42F3D101F06F
:1024A0005FF8F0E7FFF792FF002038BD01F09AF8DF
:1024B000FFF794FFF8E701F05FF8E4E701F05FF859
:1024C000E1E708B5FFF706FF06F0ADF904F096F96D
:1024D00000F034F8BDE80840012004F057BA08B510
:1024E00000F031F8002004F051FAFFF7F4FEBDE8E7
:1024F000084006F09DB90246030906BF1846134678
:1025000004209A081EBF13460230C0B25B081CBFED
:102510000130C0B2704701207047704738B505469A
:10252000FFF7F9FF044610B12846FFF7F6FF2046F3
:1025300038BD704708B5FFF7F1FF08BD08B50020AA
:10254000FFF7F8FF08BD08B505F060FFFFF7F2FFE1
:1025500008BD000010B505F059FF074B04461A7876
:10256000824207D0187006F0CBF9044B1860204661
:10257000FFF7E0FF10BD00BF5414002058140020E6
:102580001FB56C4684E803009DF805300BB100F0E0
:10259000E3FE0023ADF80E3094E80300ADF80C1014
:1025A000C9B2029002AC29B994E8030000F02EFEF3
:1025B00004B010BD2046FFF7C0FE0028F4D1F7E7B5
:1025C0000379012B02D1008800F028BC704708B5C0
:1025D00029B105F04DF9BDE8084005F027BA05F02E
:1025E00099F9F8E710B50446002840D0031FDBB284
:1025F000A02B0ED805F0A4FF20B1204606F02EF83F
:1026000000F042FF204606F00BF8BDE8104000F055
:102610003BBF00F12003DBB2072B07D800F0070413
:102620000120A040C0B200F071FEEEE700F15B03B4
:10263000DBB2022B05D8BDE81040243880B205F08B
:1026400015BF00F15803DBB21A2B06D8BDE81040C5
:10265000074A32F8130005F025BF3334E4B2122CD8
:1026600005D805F005F9BDE8104005F0DFB910BD4B
:102670000EC0000808B50346A0B3021FD2B2A02ABC
:1026800005D805F0EBFFBDE8084000F0FDBE00F105
:102690002002D2B2072A07D800F007030120984091
:1026A000C0B200F03BFEEEE700F15B02D2B2022ABC
:1026B00004D8BDE80840002005F0D8BE00F158025B
:1026C000D2B21A2A04D8BDE80840002005F0EABEBC
:1026D0003333DBB2122B05D805F01CF9BDE80840F6
:1026E00005F0A4B908BD000038B50C460546FFF753
:1026F00079FF94B140F2E73309494FF47A72A4FBB1
:102700000141E01841F100010023FDF76FFD07F0E2
:10271000C8FA2846FFF7AEFF38BD0120F7E700BF33
:10272000A086010008B539280CBF50210021FFF711
:10273000DBFF08BD08B528B100F0E8FDBDE80840A2
:1027400000F0A2BE08BD08B528B100F0E7FDBDE865
:10275000084000F099BE08BD2DE9F843877981460D
:102760000C46457900F0C2FD3F09064608B32E46E7
:10277000FDB1C4F3072303F0F002402A0CD0E1B20C
:1027800001F12002D2B2072A25D903F0E003202B61
:1027900002D101291FD907B3A54B5E7816F00406B4
:1027A00007D0022000F0ACFE00F0A0FD80F0010692
:1027B000F6B2C4F303330B2B3DD8DFE813F010005F
:1027C000100054005400AE00C5003C003C00CA009C
:1027D0002D01420142010026EBE73E46E9E7C4F342
:1027E0000723C4F303270F2B88BF3F01E4B285B151
:1027F00057B104F12003DBB2072B384600D92CB9BE
:1028000000F084FD00F040FE20464CE000F094FD16
:10281000F8E72046FFF72EFF6FB104F12003DBB28B
:10282000072B384600D914B900F078FD01E000F01C
:102830008BFD00F029FE002E00F0598100F04EFDC6
:1028400010F0010040F0538189F8050000F040FDD0
:1028500000F020FA484600F061F900F039FDBDE8CB
:10286000F84300F021BAC4F3072303F0F003C4F3E4
:102870000328202BE4B218BF4FEA08182CB1012C12
:1028800034D0002D3CD0DFB1BEE7694B5B785907EF
:1028900014D45DB1B8F1000F04D0404600F036FD0D
:1028A00000F0F2FD0020FFF79DFEC4E72846FFF789
:1028B000E1FEB8F1000FBED04046B5E755B11FB9F3
:1028C0004046FFF737FFB6E7012FB4D1404600F08E
:1028D00063FDB0E7002FAED14046FFF734FF40461E
:1028E00000F068FD404600F043FDA4E715B1052F58
:1028F000A1D8E5E7042F9ED84046FFF724FF9AE7CA
:10290000002FF9D0392C0CBF4FF4FA50012007F0FA
:10291000C8F92046FFF7AEFE8DE714F4406FC4F30C
:10292000812307D0012B86D165B1C4F3090005F0DE
:10293000B9FD80E725B1C4F3090005F097FD7AE7FA
:102940002846FAE72846F2E72946E0B2FFF73FFEBD
:1029500071E714F4407F2ED1F5B914F0100018BFC0
:102960000F20C4F342134FEA8303DBB21CBF98402D
:10297000C04304F00F0202FA03F2C4F3812418BF2B
:10298000C0B2D2B2022C40EA02000ED0032C0FD00B
:10299000012C07D000F054F905F038FDBDE8F843EC
:1029A000FFF7C8BD00F044F9F6E700F051F9F3E78E
:1029B00000F03BF9F0E7C4F301220DB3D207EBD5E9
:1029C00014F0100018BF0F20C4F342134FEA830322
:1029D000DBB21CBF9840C04304F00F0202FA03F2BE
:1029E000C4F3812418BFC0B2D2B2022C40EA020064
:1029F0000CD0032C0DD0012C05D000F071F9CBE7E1
:102A0000012AC9D9DCE700F063F9C5E700F070F9E5
:102A1000C2E700F02BF9BFE7E6B2C4F303244DB1DF
:102A2000204600F037F93046FFF784FEB4E700BFD8
:102A3000B83000203046FFF786FE204600F034F91B
:102A4000AAE7E6B2A6F1F003042B38D8DFE803F0DA
:102A500003210D141D0035B1042F9DD8C4F30420AB
:102A600000F02CF998E7052FF7E7C4F30420002DB8
:102A7000E4D100F00FF98FE725B1C4F3042000F092
:102A800002F989E700F0FCF886E71A4B5B785B07F0
:102A900004D4C4F30420002DD0D0EAE72DB10321E3
:102AA000C4F3042000F00AFD76E7012000F028FDC1
:102AB000012F7FF671AF022000F022FD6CE73DB1DF
:102AC0001FB13046FFF78EFD66E7C4F30420D0E760
:102AD00057B1392E0CBF4FF4FA50012007F0E1F83E
:102AE0003046FFF7C7FD57E7C4F30420A6E7BDE86B
:102AF000F88300BFB830002038B50188044640791B
:102B000000F098F9054600F0FBF800F08DF8294632
:102B10002046BDE83840FFF71FBE0000037910B51E
:102B20000446B3B1FFF762FC68B900F0DFFB80B187
:102B3000637973B1074B5B785B070AD5BDE810403A
:102B4000022000F0DDBC2046FFF7D6FF2046FFF74D
:102B500007FC10BDB830002008B5002005F086FC49
:102B6000002005F09FFC00F0F7FB00F08DFC04F066
:102B700079FFBDE8084004F059BF08B505F08CFDA9
:102B8000BDE80840FFF7E8BF08B500F0CFFBBDE89F
:102B90000840FFF7F2BFC0F30333062BC2B213D0D5
:102BA00094BF0E33063303F00F03012B10D8F02A25
:102BB00010D004D8E72A8CBF002001207047F42AE7
:102BC00014BF002001207047E72A03D9F12AF7E754
:102BD000002070470120704708B50346007930B1E6
:102BE000188800F01BF9BDE80840FFF7D4BF08BD06
:102BF00082B002AB03E9030002B0704782B002ABBF
:102C000003E9030002B07047704708B5FFF7FCFF07
:102C100008BD704708B5FFF7FCFFFFF7F6FF014B53
:102C2000187008BD881400207047FFF7F3BF00003C
:102C3000024B1B781843FFF7EDBF00BF881400203C
:102C4000024B1B781840FFF7E5BF00BF8814002037
:102C5000024B1B785840FFF7DDBF00BF88140020EF
:102C6000704708B5FFF7FCFF08BD704708B5FFF7D0
:102C7000FCFFFFF7F6FF014B187008BD871400201A
:102C80000020FFF7F3BF012303FA00F0C0B2FFF703
:102C9000EDBF00000123034A834010781843C0B2FF
:102CA000FFF7E4BF871400200123034A8340107814
:102CB00020EA0300FFF7DABF871400200123034A4C
:102CC000834010785840C0B2FFF7D0BF871400206F
:102CD000024B1B781843FFF7C9BF00BF87140020C1
:102CE000024B1B781840FFF7C1BF00BF87140020BC
:102CF000024B1B785840FFF7B9BF00BF8714002074
:102D0000704701F00703C90830B501EB4101012408
:102D100001390A4400219C40E4B212F8015F20FA14
:102D200001F343F300036B40234001315D4003296D
:102D30001570F2D130BD002210B500F00704C008B4
:102D400000EB4000014410468B5CE34003F00103BC
:102D5000934001321843032AC0B2F5D110BD0000E0
:102D600017B40C46C1B2C0F3072005280AD81029B1
:102D70000ED801EB0011084A0144204603B010BCF4
:102D8000FFF7BFBF031DDBB2012B01D8034AF4E7F5
:102D900003B010BC704700BF601400205D14002019
:102DA000C3B2C0F30720052882B008D8102B0DD875
:102DB00003EB00130749184402B0FFF7BCBF04300F
:102DC000C0B2012802D818460349F5E7002002B036
:102DD000704700BF601400205D14002073B5042408
:102DE0000C4BADF804001E780B4B1B781E4346FAC3
:102DF00004F3DB0705D4013CF9D20025284602B0D4
:102E000070BDE5B22846019900F02DFE80B2012880
:102E1000F1D0F3E7871400208814002007B5ADF83F
:102E200004000198FFF7DAFF019903B05DF804EBA5
:102E300000F019BE13B5104BADF804101B782BB180
:102E4000019802B0BDE81040FFF7E8BF70B10198EB
:102E5000FFF7C4FF044601460198FFF781FF2046B3
:102E6000019902B0BDE8104000F0FDBD0198FFF7E8
:102E700097FF0446F3E700BF5C14002010B501245F
:102E800004FA02F204FA01F11143CAB2014091427C
:102E900004FA03F406BF2043C0B2A04310BD0000F3
:102EA00008B513460A46014603480078FFF7E6FFD7
:102EB000BDE80840FFF7DABE87140020F8B50C4BD8
:102EC0000C4E1C780C4D3378A34200D1F8BD05EBB5
:102ED000C40335F834005F889A88D98840EA0740EF
:102EE00042EA01410134FFF789FE04F00704EAE7F2
:102EF000891400208A1400208C140020064B10B482
:102F000018885C889A88D98840EA044042EA0141DE
:102F100010BCFFF773BE00BFCC140020194AF8B5EF
:102F200093790F2B0AD8537943B1174B17491B7864
:102F30000D7816885788164CAB4200D1F8BD04EBCB
:102F4000C3010879D0B134F83300B04216D14879C2
:102F5000A0B94888C01B80B2C7280FD80120937938
:102F600060F3071393718B7960F3071305488B7136
:102F7000FFF7D4FDBDE8F840FFF7A0BF013303F031
:102F80000703D9E7CC140020891400208A140020FC
:102F90008C140020F0B50D4B0D4C1B7826780D4C91
:102FA000B34201D10020F0BD04EBC3056F788F421E
:102FB00006D114F83370874202D16D79954203D15E
:102FC000013303F00703EBE70120ECE7891400204D
:102FD0008A1400208C1400202DE9FF47E94604469E
:102FE000894D014606224846FDF7DEFB2B7994F811
:102FF000008061786779B4F802A02279C3B9002A09
:1030000000F0C780002F00F0F6802046FFF7E4FDB7
:10301000002800F0F080082221462846FDF7C4FB76
:103020002846FFF7CDFAFFF779FFFFF767FFB0E01B
:103030006B886E79AAEB03039BB2002E00F0AB8085
:10304000C72B00F28480002A00F0A380AB79288887
:103050000F2B22884ED8904211D1002F45D101224A
:1030600062F30713AB71FFF749FF2846FFF756FDE0
:10307000AB79A3710025284604B0BDE8F087A7BB53
:103080003A464046FFF786FF4046FFF783FF054676
:103090000028EFD10098FFF7C1FEC0F30332032AE6
:1030A000C3B208D8012A10D910F4706F12D0A279D7
:1030B0000F2A0FD8DFE7063202F00F02012A0ED9DD
:1030C0002046FFF72BFD3546D5E710F4706F01D091
:1030D000002BD0D02033DBB2072BCCD9F0E7EF2B7D
:1030E000C9D90F33DBB2022BF7E7AB7943F0010309
:1030F000AB71BFE790420AD14FB92046A371FFF7E9
:103100000DFD082221462846FDF74EFB8DE720469F
:10311000FFF762FD00286ED0002F6CD0AB791F2B1B
:103120000FD92A8802A8ADF808202A79ADF80AA09C
:103130008DF80C2000228DF80E308DF80D20FFF751
:10314000EDFC082221463048FDF72EFB6BE7AB79FA
:103150000F2B0ED899E80300FFF74AFD2846FFF72A
:10316000DDFC082200212846FDF786F9FFF7C6FEA0
:1031700080E772B1298822889142C8D1002FC6D138
:103180002046A371FFF7CAFC082239462846FDF7FE
:1031900073F901256FE7C72B31D8002AF9D057B34F
:1031A0002A8823889A421DD1AB79DA0714D40F2BD1
:1031B00012D9A37103F0F003F02B06D0A379C3F367
:1031C0000312013262F30713A3712046FFF7A6FC36
:1031D000082221460C4897E7082221460A48FDF7B5
:1031E000E3FAD6E72046FFF7F7FC0028A9D1AB7930
:1031F00043F00103AB712046FFF790FCC9E799E863
:103200000300FFF7F5FCACE7CC140020F0B585B067
:103210006C4684E803002046FFF7DEFE284F064692
:10322000284D68B19DF804301BB194E80300FFF706
:10323000E5FC254C28783B78834226D105B0F0BDCB
:1032400002AB94E8030083E803009DF8041038788B
:103250002A780029EDD0441C04F0070494420AD0D7
:103260001946194B082203EBC000FDF79DFA3C708C
:10327000FFF724FEDDE7FFF787FC082231461348FD
:103280003E702E70FDF7F8F8D3E704EBC000FFF7AF
:10329000A3FE0028D2D02B7834F8330004EBC3030C
:1032A0005E889A88D98840EA064042EA0141FFF7E1
:1032B000A5FC2B78013303F007032B70BAE700BF9E
:1032C0008A140020891400208C140020CC140020C3
:1032D000014B1878C0087047FC140020024B187886
:1032E00000F00700704700BFFC140020034B187863
:1032F00010F0070018BF0120704700BFFC14002029
:10330000014B1878704700BF28150020024B1A782F
:1033100010431870704700BF28150020024A137828
:1033200023EA000313707047281500200022014B88
:103330001A70704728150020024B1A781043187035
:10334000704700BF27150020024A137823EA0003C4
:1033500013707047271500200022014B1A70704728
:1033600027150020704708B5FFF7FCFF08BD0000D7
:1033700008B5054A1378034204D023EA0000107010
:10338000FFF7F1FF08BD00BFFD140020704708B52E
:10339000FFF7FCFF08BD000010B505490B7830EAC7
:1033A000030403D003430B70FFF7F1FF10BD00BF10
:1033B000FE14002008B5054A1378034204D023EA1E
:1033C00000001070FFF7E3FF08BD00BFFE140020EF
:1033D00008B5044B1A781AB100201870FFF7D7FF10
:1033E00008BD00BFFE14002010B5084B1C78084B28
:1033F0001B781C43074B1B782BB11C4305F07AF854
:1034000008B1FFF7E5FF204610BD00BF28150020DA
:1034100027150020FE14002038B50B4C2568FFF757
:10342000E3FF28702468082220460849FCF778FF4B
:1034300048B1214608220548FDF7B6F92046BDE807
:10344000384004F0F1BF38BDD80D0020F41400203E
:1034500038B50B4C2568FFF7C7FF68702468202239
:1034600020460849FCF75CFF48B121462022054868
:10347000FDF79AF92046BDE8384004F0DFBF38BDBB
:10348000D40D0020D414002008B504F0B7FF40B1DB
:10349000064B93F90030002B03DABDE80840FFF734
:1034A000D7BFBDE80840FFF7B7BF00BFB830002066
:1034B000704708B5FFF7FCFF08BD0000094A10B5CA
:1034C000527852070AD5084C41EAC0012170FFF733
:1034D000E1FB2078C008FFF7ECFF10BDBDE810400D
:1034E000FFF7D8BBB8300020FC140020002008B53E
:1034F000024B1870FFF7DDFF08BD00BFFC14002071
:1035000008B50A4A137823EA0000107042070CD16C
:1035100098420AD0064B5B785B0706D5C008FFF7D8
:10352000C3FBBDE80840FFF7E1BF08BDFC14002065
:10353000B83000200246094808B54378C3F380013B
:10354000914209D062F38203437000F05EF8BDE857
:1035500008400220FFF7D4BF08BD00BFB8300020EC
:10356000044B5878C0F3800080F0010000F00100A7
:10357000FFF7E0BFB83000200120FFF7DBBF0020DD
:10358000FFF7D8BF002000F0BABB08B5002000F05C
:10359000B2FBFFF7F7FF08BD07B500F067FB00F0CF
:1035A00072FB002368468DF8003000F083FB012099
:1035B0000A4B187000F085FB4FF4A05301A8ADF83A
:1035C000043000F089FB01F057FE04F05BFDFFF7CB
:1035D000DCFF01F045FE03B05DF804FB8814002019
:1035E000FFF7DABF00F054BB08B500F042FB18B19A
:1035F000BDE8084004F016BD08BD00F054BB00F063
:103600005DBB00F05EBB00F060BB00F065BB00F08E
:1036100067BB00F069BB00F06BBB00F06CBB00F057
:1036200072BB000073B505F0A1F90B4D04462B8861
:1036300083420ED00026ADF8006005F097F9ADF892
:103640000460ADF8020002AB13E90300FEF798FF37
:103650002C8002B070BD00BF2A150020014B1868F5
:1036600005F003B94C15002008B505F049F9024BE7
:103670001860024B186008BD4C150020481500204A
:1036800008B505F03DF9024B1860024B186008BD03
:103690004C150020441500207047704708B5FFF70F
:1036A000FCFF08BD704708B5FFF7FCFFFFF7F6FF0A
:1036B00008BD7047704708B5FFF7FCFFFEF7CEFB6B
:1036C00008BD01207047000008B5054800F022FB46
:1036D00000F00CFDFFF7E0FFBDE80840FFF7E3BF97
:1036E000493C00080120704708B5FFF7FBFF08BD03
:1036F00070477047704708B5FFF7FAFFFFF7F9FF0B
:10370000FFF7F8FF08BD000008B5FFF76DFF08B927
:10371000FFF766FF0848FFF770FF0848FFF773FFE1
:1037200003F013FDFFF76BFFFFF77FFA044B1878E8
:10373000BDE80840FFF795BA50150020B8300020CA
:103740008714002008B505F0D9F804F0AFFC03F0A9
:10375000E5FA00F097FBFFF7D7FFFEF7EAFE03F06C
:10376000E7F80548037843F080030370FFF74DFF47
:10377000BDE80840FFF79FBFB83000202DE9F04FAB
:1037800085B0FFF79EFF78B9FFF74CFF03F036F8DE
:1037900003F01AFB08B1FFF773FF04F08BF905B0D3
:1037A000BDE8F04FFEF7D6BE2F4F00F085FB3E463A
:1037B0000024E0B256F8045B00F0BCFA052C50D0AF
:1037C000854204F10104F4D0284B1B789B0701D5F6
:1037D00000F0B6FAFFF788FF002600905FFA86F93E
:1037E000484600F0A7FA57F8043B0546984232D005
:1037F00000244FF00108434001930DF1080A019B9A
:1038000013EA080F1FD0009B15EA080F14BF4FF0F2
:10381000010B4FF0000B8BB18DF808408DF809902B
:1038200005F0A4F84FF00103ADF80A008DF80C3054
:103830008DF80DB09AE80300FEF7A2FE5A46214625
:10384000484601F07FFE0134E4B2112C4FEA4808EB
:10385000D5D147F8045C0136062EBFD1FFF704FF2F
:1038600094E78542B0D18FE72C1500205015002039
:1038700038B500F003F9B0F5A44F044643D2B0F5D3
:10388000A04F80F0AE80DF2816D8CC2800F28C80C4
:10389000A7280AD8A42879D8012804D0031F9BB2EE
:1038A000A12B28BF0024204638BDA0F1A8039BB25D
:1038B0001A2B71D90024F6E7B0F5804F19D2B0F574
:1038C000005F80F0A180E728EDD9A0F580739BB25E
:1038D000B3F5F85FEED2C0F3072000F053F90546C8
:1038E000E0B200F0CBF82D0205F4F85540EA0504EB
:1038F00050E0C0B200F0C2F804F47064204340F419
:10390000204084B2CFE7B0F5A54F22D245F25F2325
:10391000984253D845F23F2398420FD845F21F23CF
:10392000984244D8012300F00304C0F38502A34069
:1039300043EA421343F40D439CB2B4E7012300F081
:103940000304C0F38202A34043EA421343F40C434E
:10395000F2E745F2BF2398420AD845F29F239842E6
:1039600000F01F0035D84AF2F40343EA00249AE736
:10397000A0F5A543403B9BB21F2B9BD8040204F447
:10398000F85444F4204444F0F0048CE7A0F12404FB
:1039900044F48044A4B286E7234B5834E4B233F8AD
:1039A000144044F488447EE740F4A044F2E74AF22D
:1039B000F10300F01F0443EA042474E7012300F03C
:1039C0000304C0F38202A34043EA421343F40A43D0
:1039D000B2E700F0D7F8040204F4F85444F40054B9
:1039E00061E700F01F0000F0CDF8C30648BF0001FA
:1039F000C4F343144FEA04244CBF00F0F00000B2BB
:103A0000044344F41044C5E7C0F3042000F0BAF8BE
:103A10000546E0B200F032F82D0205F4F8550543F2
:103A200045F40055ACB23EE744C00008CBB2C1F348
:103A30000721052982B005D8102B11D81A4602B0EB
:103A400003F015BCFD2905D153B90122194602B076
:103A500003F01ABCFC2903D113B91A461946F6E73C
:103A6000002002B0704707B5ADF804100199FFF7C8
:103A7000DDFF03B05DF804EBFFF7FABEE7284FD88F
:103A8000DF2807D8312864D00ED8292857D02A2813
:103A900066D07047A0F1E003072B41D8DFE803F0C0
:103AA0001540232831403C41392804D0822802D0D7
:103AB00035283FD07047324B1A7892071FD15B7878
:103AC00013F0080F18BF292070472D4A1378D90723
:103AD0004DD4527812F0010F22D013F0100F14BF02
:103AE0000020E3207047264B1B7813F0040FF3E708
:103AF000234A137859073CD45278D207EDD5E020F9
:103B000070471F4B5A7891070AD51B7813F0100F96
:103B100014BF0020E7207047194B1B781A07F5D413
:103B20007047174A1378190725D452789107EDD5B5
:103B3000E4207047124B1B7813F0200FC2E7104BA4
:103B40001A78920619D45B7813F0080F18BF392041
:103B500070470B4B1B7813F0400F18BF2A2070479B
:103B6000074B1B7813F0400F18BF312070473920E6
:103B70007047E2207047E62070473520D0E700BF4D
:103B8000B830002010B52F4C21784B0713D500F02A
:103B90001402A2F1040C00F01803DCF1000242EB65
:103BA0000C02A3F1080CDCF1000343EB0C039A4276
:103BB00018BF80F00C000B0713D500F01402A2F11F
:103BC000140C00F01803DCF1000242EB0C02A3F12C
:103BD000180CDCF1000343EB0C039A4218BF80F091
:103BE0000C006478E30713D500F0110202F1FF3CEA
:103BF00000F01803DCF1000242EB0C02A3F1080C08
:103C0000DCF1000343EB0C039A4218BF80F009007B
:103C1000A30711D500F0110200F01803A2F111045E
:103C20006242A3F1180C6241DCF1000343EB0C0388
:103C30009A4218BF80F00900CB0648BF00F0E700A9
:103C400010BD00BFB830002000207047A0F5A5438C
:103C5000603B1F2B10B507D84C791CB900F01F0032
:103C6000FEF792FB204610BD0124FBE7002000F088
:103C70003FBA08B5002000F0B6F94FF6E363C31A67
:103C80005842584108BD4FF6E361002000F012BAD7
:103C900008B5002000F02CFABDE808404FF6FF718F
:103CA000002000F007BA10B50446022000F08CF99D
:103CB000207010BD0178022000F0EEB9032000F062
:103CC00083B90146032000F0E7B910B5044604208B
:103CD00000F089F9208010BD0188042000F0EAB9C5
:103CE0000822172100F006BA0822172100F0BAB9FD
:103CF0000F2000F087B901460F2000F0E9B9014616
:103D0000132000F0E5B901460E2000F0C5B90020EF
:103D100070470000014B1860704700BFDC0D0020A9
:103D2000704708B5FFF7FCFF08BD704708B5FFF7FF
:103D3000FCFF08BD014B53F820007047D430002031
:103D400070474FF4346005F025BE00BF00BF00BFD0
:103D500000BF00BF00BF00BF00BF00BF00BF00BF6B
:103D600000BF00BF00BF00BF00BF00BF00BF00BF5B
:103D700000BF00BF00BF00BF00BF704708B5FFF71E
:103D8000E0FF08BD08B5302383F31188012100F05E
:103D90000F039940202220F00F0006F0FFFF0023C0
:103DA00083F3118808BD000038B511240B4D55F878
:103DB000040B421C01D0FFF7E5FF013C14F0FF04A7
:103DC000F5D10624064D55F8040B431C01D0FFF72E
:103DD000D9FF013C14F0FF04F5D138BD7CC00008C8
:103DE000C0C000082DE9F843DFF89080054658F878
:103DF00021300E465C1C17463ED0302282F31188DB
:103E0000012223F00F0903F00F0302FA03F4214605
:103E10004846240406F0C2FFC9F81840002484F381
:103E20001188FFF792FF6FEA070EDFF854C0291FD1
:103E300014355CF8042B51F8043F501C19D022F0C3
:103E40000F00006902F00F0220FA02F2D20710D42C
:103E500001243B438D420B60EBD158F82600431CF4
:103E600001D0FFF78FFF21463046BDE8F843FFF74A
:103E700085BF0EEA0303EDE7BDE8F8837CC00008C8
:103E8000C0C0000810B51824FFF78EFF224600219D
:103E90000748FCF7F1FA224600210648FCF7ECFA45
:103EA000062000F03FF8BDE81040FFF73ABF00BF22
:103EB000D4300020BC30002070B586B0182200211C
:103EC0006846FCF7D9FA002401252A46E1B2684683
:103ED0000134FFF787FF112C4FEA4505F5D1182271
:103EE00069460E48FCF71CFA002814BF012600267C
:103EF00007D06C46094D0FCC0FC594E8030085E848
:103F00000300334606220649044800F00DF8044633
:103F1000FFF70CFF204606B070BD00BFBC3000208C
:103F2000D4300020704700002DE9F84307460E46C4
:103F300015461C46DFF850804BB1012388F800304D
:103F400004F0DEFC114B18600020BDE8F88398F8FF
:103F50000090B9F1000FF7D00C4B186804F085FC05
:103F60000028F1D0AD002A4639463046FCF7D8F992
:103F700028B12A4639463046FCF716FC4C46002349
:103F8000204688F80030E0E758150020541500203E
:103F9000FFF7F4BB08B504F076FC05F039F8FFF73D
:103FA00093FB05F037F8FFF7CDFB05F041F805F07E
:103FB00045F8FFF7EDFF05F063F805F003F803F0AF
:103FC000F5F8FFF798FBF2E7002307B50146012259
:103FD0000DF107008DF8073000F08CF89DF8070010
:103FE00003B05DF804FB002307B5014602220DF182
:103FF0000600ADF8063000F07DF8BDF8060003B00D
:104000005DF804FB07B50422002301460DEB020016
:10401000019300F06FF8019803B05DF804FB07B559
:1040200001228DF8071001460DF1070000F067F836
:1040300003B05DF804FB07B50222ADF80610014697
:104040000DF1060000F05BF803B05DF804FB07B566
:104050000422019101460DEB020000F050F803B07C
:104060005DF804FBF8B505461446D31D23F007039D
:1040700000AFADEB030D68460E4600F03BF822465C
:1040800069462846FCF74CF920B1224631462846BD
:1040900000F035F8BD46F8BD38B50C460546FFF7CB
:1040A00093FFA04205D021462846BDE83840FFF7DF
:1040B000B6BF38BD38B50C460546FFF794FFA042A1
:1040C00005D021462846BDE83840FFF7B4BF38BDCB
:1040D00038B50C460546FFF795FFA04205D02146AE
:1040E0002846BDE83840FFF7B2BF38BD00F018B928
:1040F00000F03CB80B460146184600F051B80B469C
:104100000146184600F09EB808B5064B4FF4006211
:1041100000211846FCF7B0F940F60802C0F8002864
:1041200008BD00BF6015002010B5064C94F8043897
:1041300033B900F06CF910B1012084F8040810BD07
:104140000220FCE76015002010B5074C94F80438F5
:104150003BB100F066F918B10023012084F804385F
:1041600010BD0220FCE700BF6015002038B5FFF746
:10417000DBFF044618B9FFF7E7FF204638BD00F023
:1041800048F90546FFF7C0FF012C06D1FFF7DCFF19
:1041900000280CBF002505F001052C46EDE70000C6
:1041A00008B5034608469918B1F5006F05D80449CB
:1041B0001944FCF7F9FA012008BD0020FCE700BF14
:1041C000601500200000000070B500F022F90446E0
:1041D00018B3FFF7A9FF4FF480720546124900207B
:1041E00000F03CF9104E044678B10DA3D3E900234A
:1041F0004FF40061304602F056FD02460B464FF484
:10420000006000F064F94400E4B2012D01D1FFF731
:104210009BFF40F60803C6F80038204670BD00BF7B
:1042200025232284E49CF2CB60150020044BD3F8B4
:104230000038B3F5805F01D3FFF7C6BF0120704798
:10424000601500202DE9F04F8318B3F5006F044688
:104250000E46154685B01DD8DFF8BCB000EB0B0745
:1042600039463046FCF75CF8002844D02A463146EF
:104270003846FCF799FAFFF757FF824640B14FF0F6
:1042800000084FF0000955B9FFF7D0FF034638E0AA
:10429000FFF75AFF0023184605B0BDE8F08F052D43
:1042A0002F4628BF0527C4F3024343EAC703CDE9DD
:1042B00002893A468DF808303146230A0DF10B0089
:1042C0008DF809308DF80A40FCF76EFADDE902231B
:1042D000DBF8000800F0FBF890B1DBF80038083399
:1042E000CBF80038FFF7A2FF0128034605D1ED1BEC
:1042F0003C443E44C7E70123CDE710F0FD0F00D05A
:104300000023BAF1010FC6D10193FFF71DFF00286A
:10431000C0D0019BBFE700BF601500200000000077
:104320007FB5FFF7F1FE00F06DF828B9FFF7ECFE5E
:104330000024204604B070BD4FF480720020304944
:1043400000F071F82E4C002843D02BA3D3E90023B2
:104350004FF40061204602F0A6FC06460D464FF4DD
:10436000006002A900F077F8DDE902239D4208BF52
:10437000964201D0FFF7C8FE40F608056946284678
:1043800000F069F848B3DDE9003253EA02011ED0BB
:1043900013F0C00FCDE9023205F10805D9B21BD1E7
:1043A00003F47F40C3F3074318430B0403F4E023F3
:1043B0001843CA0800EBD101B1F5006F0CD80DF11C
:1043C0000B012044FCF7F0F9B5F5805FD6D1012050
:1043D00003E0FFF799FEA9E70020C4F8005838B9B8
:1043E000FFF7F2FE04460028A3D1FFF78DFEA0E7F9
:1043F000FFF71CFFF6E700BF25232284E49CF2CBE5
:104400006015002008B500F0E3F8012008BD012088
:10441000704708B5002000F0DDF8B0FA80F04009E0
:1044200008BD0120704738B5D5002A460C4600F07B
:10443000EEF818B921462544A94203D1B0FA80F01C
:10444000400938BDD1E90023D243DB4341F8082BB2
:1044500041F8043CF0E70122FFF7E5BF2DE9F04306
:104460000646884615460027C1B06B46202DAE464D
:1044700028BF4FF0200E1C469C4608EBC70277442D
:1044800008EBC7094A4511D10024744513D14FEAFE
:10449000C4094A466146304600F0D7F8A8B92D1B3A
:1044A0004E44E2D1012041B0BDE8F083F2E80201C0
:1044B000E4E80201E6E7D3E90002C043D24343F84F
:1044C000080B43F8042C0134DFE70020EBE707B5C5
:1044D000CDE9002369460122FFF7C0FF03B05DF874
:1044E00004FB0000002208231146014804F0FEBA34
:1044F0000C08004008B5FFF7F5FF30B1062004F0C6
:1045000005FB04F03BFB002008BD4FF0FF30FBE74C
:10451000F7B51F464BBA090C064615468DF8040040
:10452000ADF806308DF80510FFF7DCFFE8B1042187
:104530000DEB010004F00EFB044648B945B1022E14
:104540000BD0032E0ED12846B9B204F00DFB044661
:1045500004F014FB204603B0F0BD2846B9B204F0C5
:10456000F9FAF4E74FF0FF34F2E74FF0FF34F1E7E8
:1045700010B5FFF7B7FF88B1052004F0C7FA04F0C3
:10458000D7FA044604F0FAFA002C05DB14F0010F08
:104590000CBF00246FF00304204610BD4FF0FF3421
:1045A000FAE710B5044604F0ABF94FF47A7303FB55
:1045B000040404F0A5F9A04204D2FFF7D9FF031DBB
:1045C000F7D010BD6FF00100FBE70120FFF7E9BF56
:1045D00004F00EBA00F58033B3F5002F10B5044691
:1045E00012D283B283B9FFF7F0FF78B9FFF782FFE9
:1045F00060B9034602462146D820FFF789FF28B953
:10460000BDE81040FFF7E1BF4FF0FF3010BD2DE9CE
:10461000F04107460D461646FFF7D7FF0446804691
:1046200038B1324600212846FBF726FF2046BDE878
:10463000F08133462A4639460320FFF769FF0446D6
:104640000028F3D032464146EDE72DE9F041074618
:104650008846164676B9FFF7B8FF044638B9FFF723
:1046600041FF20B3042004F051FA04F087FA2046F9
:10467000BDE8F081FDB2C5F58075B54228BF35466D
:10468000FFF7A3FF04460028F1D1FFF733FF0446EC
:104690000028ECD12B46424639460220FFF738FF6E
:1046A00004460028E3D1A8442F44761BD2E74FF0FC
:1046B000FF34DCE74B793BB1A0F5F04020380A2805
:1046C00094BF0020012070470120704738B54D7914
:1046D000044615B10125284638BDFEF711FE00F04D
:1046E0002203A4F5F04040380C28F3D8DFE800F0AE
:1046F000070A0D1014191D22262B2F34380002F042
:104700008DF9E8E702F0A2F9E5E702F072F9E2E7D5
:1047100023B102F0F5F9DEE7002BFAD002F0DCF964
:10472000D9E723B102F036FAD5E7002BFAD002F030
:104730001FFAD0E723B102F055FACCE7002BFAD0EC
:1047400002F03CFAC7E723B102F074FAC3E7002B8A
:10475000FAD002F05BFABEE723B102F09FFABAE7A3
:10476000002BFAD002F08CFAB5E7000030B510F457
:104770007F4F85B00190C0F30725C0F307420DD1EC
:1047800009B12F4B9A5C11461346002061F30700D4
:1047900063F30F2062F3174005B030BD9DF804406D
:1047A000002937D0264B995C0620FF2360435A1B13
:1047B000B0FBF3F06FF05403434303EB440303EB0C
:1047C0004303DBB203FB05F4C3F1FF036B43241285
:1047D0001B12C4F1FF04C3F1FF034A434C434B4394
:1047E000C2F30722C4F30724C3F30723C9B2062880
:1047F00023D801A555F820F08B4700081948000878
:104800001F48000829480008334800083B480008B2
:104810008B4700081146C7E70B462146B5E7084617
:1048200011461A460346B0E708462346114602469B
:10483000ABE7084619461346F9E713462246A4E7B4
:10484000F0C00008012184B004B0FFF78FBF012839
:1048500030B501D8C0B230BDB0F5F75F88BFFF22D8
:104860004FF001049EBF42090832D2B2A31859107A
:10487000C3F34705C3F34F035B439BB2984206D291
:10488000013DEAB29442F1D9013CE0B2E3E7FF29ED
:1048900002D00135ECB2F5E70846DCE7074B188893
:1048A00000EB402200EB820000F55850193080B236
:1048B000188000EB1020C0B2704700BFEC0D002044
:1048C00008B50146FFF7EAFF4843C0F3072008BDDB
:1048D00010F0400216BFC3430346DBB210B503F02D
:1048E0000F0102B10131094CC3F3011304EB430280
:1048F000527814F813304A4303EB2213DBB202065A
:1049000044BF5B42DBB283F0800010BDD8C000081A
:104910001FB5C0F3074401905008FFF7D9FFA0F17D
:1049200080035BB2002BBCBFC0F1800043B200200B
:104930005B00DBB204FB03331B128DF80630019BD6
:10494000DAB262F30700C3F3072262F30F20C3F366
:10495000074363F3174004B010BD0000144B84B04C
:1049600003EB4103E521019093F86630C0F3072083
:104970004B43C2EB13231C33002BB8BF5B42A0EBAD
:10498000C3031BB223EAE37300FB033300201B12B3
:104990008DF80530019BDAB262F30700C3F30722FA
:1049A00062F30F20C3F3074363F3174004B070476B
:1049B0005C0C0020144B84B003EB4103E521019013
:1049C00093F86630C0F307404B43C2EB13231C330C
:1049D000002BB8BF5B42A0EBC3031BB223EAE37317
:1049E00000FB033300201B128DF80630019BDAB266
:1049F00062F30700C3F3072262F30F20C3F30743F8
:104A000063F3174004B070475C0C002084B0019041
:104A100000208DF80420019BDAB262F30700C3F393
:104A2000072262F30F20C3F3074363F3174004B078
:104A30007047000084B0019000200B4B03EB410352
:104A400093F866309B1A8DF80430019BDAB262F35A
:104A50000700C3F3072262F30F20C3F3074363F396
:104A6000174004B0704700BF5C0C002084B0019078
:104A700000200B4B03EB410393F867309B1A8DF832
:104A80000430019BDAB262F30700C3F3072262F33A
:104A90000F20C3F3074363F3174004B0704700BF10
:104AA0005C0C002030B5134B85B03031019003EB26
:104AB0004104E57903EB4103A5F1200464B29B793D
:104AC000002CBCBFC5F120056CB29A1A2244C0B2BA
:104AD00010448DF804000020019BDAB262F3070055
:104AE000C3F3072262F30F20C3F3074363F31740B6
:104AF00005B030BD5C0C002084B0019000209DF812
:104B0000102003EB430302EB53038DF80430019BA9
:104B1000DAB262F30700C3F3072262F30F20C3F394
:104B2000074363F3174004B070471FB592B201907A
:104B300048B2002802FB02F2BCBF494248B2C0F1B1
:104B4000380000FB002080B21C46FFF780FE00EB1F
:104B50004000044400208DF80440019BDAB262F367
:104B60000700C3F3072262F30F20C3F3074363F385
:104B7000174004B010BD000084B0019003F1300074
:104B8000104B03EB4003D8799B792038703B4B43A3
:104B900002FB003200209DF80430002AB8BF7F32AB
:104BA00003EBE2138DF80430019BDAB262F30700E5
:104BB000C3F3072262F30F20C3F3074363F31740E5
:104BC00004B070475C0C002084B0019003F1300009
:104BD000104B03EB4003D8799B792038703B4B4353
:104BE00002FB003200209DF80430002AB8BF3F329B
:104BF00003EBA2138DF80430019BDAB262F30700D5
:104C0000C3F3072262F30F20C3F3074363F3174094
:104C100004B070475C0C00201FB5164C3033019077
:104C200004EB4304E379A479203B5343A4F17002DD
:104C300052B2002ABCBFC4F1700462B2C2F13802A1
:104C400001FB023111EB410148BF7F31C0B200EBE3
:104C5000E1108DF804000020019BDAB262F3070036
:104C6000C3F3072262F30F20C3F3074363F3174034
:104C700004B010BD5C0C00201FB5C4B201905008F8
:104C8000FFF726FE0D22A0F180035BB2002BBCBF14
:104C9000C0F1800043B200205B00DBB2534304EB61
:104CA00013248DF80440019BDAB262F30700C3F3CA
:104CB000072262F30F20C3F3074363F3174004B0E6
:104CC00010BD000030B50D4685B00190C4B210464D
:104CD000FFF7FEFD124901EB450191F86630C2185D
:104CE000D2B2A2F180035BB2002BBCBFC2F1800242
:104CF00053B20D2200205B00DBB2534304EB1324BC
:104D00008DF80440019BDAB262F30700C3F3072277
:104D100062F30F20C3F3074363F3174005B030BDC0
:104D20005C0C0020114B84B0019003EB410393F81D
:104D30006610C0B28B1A5BB2002BBCBF521A53B2C2
:104D40001922DBB2534300EB13208DF8040000203E
:104D5000019BDAB262F30700C3F3072262F30F206C
:104D6000C3F3074363F3174004B070475C0C0020A3
:104D7000C94384B00190C9B2C0F3074000FB0111E0
:104D8000002009128DF80610019BDAB262F30700C9
:104D9000C3F3072262F30F20C3F3074363F3174003
:104DA00004B07047C94384B0C9B2019001EB8111CE
:104DB000C0B200EB11208DF804000020019BDAB294
:104DC00062F30700C3F3072262F30F20C3F3074324
:104DD00063F3174004B0704784B003EB8302BDF85F
:104DE0001030019013449BB2FF2B28BFFF23DB43FD
:104DF000C0F30740DBB20344FF2B28BFFF23002092
:104E00008DF80630019BDAB262F30700C3F3072284
:104E100062F30F20C3F3074363F3174004B07047F6
:104E200000291FB5B8BF4942002AB8BF524209B293
:104E3000090112B2FF294FEA0212A8BFFF21FF2A7F
:104E4000A8BFFF22BDF8184009B2234412B29BB29A
:104E50009142D4BF5B189B189BB2FF2B28BFFF2346
:104E6000DB430190DBB2C0F307400344FF2B28BFB4
:104E7000FF2300208DF80630019BDAB262F30700B1
:104E8000C3F3072262F30F20C3F3074363F3174012
:104E900004B010BD1FB5482B0190C0F3074030D8B7
:104EA000BDF81840E31A9BB2FF2B28BFFF2308313F
:104EB00089B2102905D902F1080189B2112928BF48
:104EC000FF23DB43DBB21844002AB8BF0332FF28BC
:104ED00028BFFF208DF8060000200B49497801EB20
:104EE000A2028DF80420019BDAB262F30700C3F33B
:104EF000072262F30F20C3F3074363F3174004B0A4
:104F000010BDFF23D3E700BFF030002084B0BDF810
:104F10001020C0F30741D31A9BB2FF2B28BFFF23F9
:104F2000DBB2DA43D2B21144FF2928BFFF2101903E
:104F3000034400208DF804308DF80610019BDAB28E
:104F400062F30700C3F3072262F30F20C3F30743A2
:104F500063F3174004B0704784B0BDF8102001908F
:104F6000D31A9BB2FF2B28BFFF23DB43C0F30740BC
:104F7000DBB20344FF2B28BFFF2300208DF806304F
:104F8000019BDAB262F30700C3F3072262F30F203A
:104F9000C3F3074363F3174004B07047024B1A781A
:104FA00010431870704700BFBA1E002010B50446A9
:104FB00010B9C90FC80110BD80EAE072A2EBE0721F
:104FC00012B2002901EB02030CDB891A490191FBA3
:104FD000F3F1C1F120014BB2D8B2002CBCBF40426A
:104FE000C0B2E8E75B01521A93FBF2F3C3F160032E
:104FF0005BB2F1E730B5C0F3072585B0EB1A01903D
:105000001046DCB2FFF7D2FFC0EB801300EB830049
:1050100023180020DBB205FB03331B128DF805308B
:10502000019BDAB262F30700C3F3072262F30F2099
:10503000C3F3074363F3174005B030BD30B5C0F389
:10504000074585B0EB1A01901046DCB2FFF7AEFFC2
:10505000C0EB801300EB830023180020DBB205FBBC
:1050600003331B128DF80630019BDAB262F307009E
:10507000C3F3072262F30F20C3F3074363F3174020
:1050800005B030BD30B585B0C0F3072501909DF85F
:1050900020001C1A1046FFF789FF2C44E4B2231AA3
:1050A0000020DBB205FB03331B128DF80530019B9A
:1050B000DAB262F30700C3F3072262F30F20C3F3EF
:1050C000074363F3174005B030BD30B585B0C0F37A
:1050D000074501909DF820001C1A1046FFF766FF57
:1050E0002C44E4B2231A0020DBB205FB03331B126D
:1050F0008DF80630019BDAB262F30700C3F3072292
:1051000062F30F20C3F3074363F3174005B030BDCC
:105110001FB5019010461C46FFF748FF03190020F9
:105120008DF80430019BDAB262F30700C3F3072263
:1051300062F30F20C3F3074363F3174004B010BDBD
:105140001FB501909DF818001C1A1046FFF72EFF9E
:10515000E4B2241A00208DF80440019BDAB262F315
:105160000700C3F3072262F30F20C3F3074363F37F
:10517000174004B010BD84B004B0FFF763BB00005B
:105180002DE9F74FDFF8D0A000EB00180AEB080379
:105190005B5C0746FF2B0E462BD000252F4A904420
:1051A0004FF0000B05EB051403F130090AEB040185
:1051B0000AEB4909144411F801EBBEF1FF0F0ED0C0
:1051C000E8B2874218D15FFA8BF0864214D118F802
:1051D00006002030FF2828BFFF2008F806000BF14A
:1051E000010BBBF1110F04F10104E4D10135062DCF
:1051F000D6D103B0BDE8F08F0EF1300E0AEB4E0EA3
:105200009EF806C099F806009EF807E0A0EB0C0097
:1052100099F807C00191ACEB0E0C1FFA8CFC0CFB4B
:105220000CFC00FB00C080B20093FFF710FB2828A5
:10523000009B0199094AD2D8C0F1280080B21028F9
:1052400028BF102094F800C0C0B26044FF2828BFD7
:10525000FF202070C3E700BF5C0C0020E91E002087
:1052600008B50348FEF7D5F90022024B1A7008BDB5
:10527000F0300020BA1E002010B5094C052320464E
:105280000322084900F8013BFBF78EFA4FF47F43F5
:105290002046A380FEF7BDF90022034B1A7010BD13
:1052A000F0300020F8BA0008BA1E00200020704735
:1052B00070B504460E461546FFF7F8FF054B04EBA4
:1052C000041423449B5DFF2B1EBF2B540130C0B23E
:1052D00070BD00BF5C0C0020014BDB68184700BFAD
:1052E000E0C00008704700002DE9F0410C4615466B
:1052F0001E46054B5F68FFF7F5FF33462A462146F9
:10530000BC46BDE8F0416047E0C0000813B5124B51
:105310000446034493F81C3119421BD0FFF7BEFA30
:105320008DF800008020FFF7CBFA0C4B7F30DB7844
:105330008DF801008DF802300098FFF71CFFC0F3D4
:105340000743C0F30722C1B2204602B0BDE81040B7
:10535000FFF7CABF02B010BD5C0C0020F030002087
:1053600037B5184B0546034493F81C31194227D032
:10537000154C0322611C6846FBF716FA032064787B
:10538000FFF79EFA4FF4B47204F1B403B3FBF2F1E9
:1053900002FB11331B1B48BF03339B1000FB03446C
:1053A0008DF800400098FFF7E6FEC0F30743C0F316
:1053B0000722C1B2284603B0BDE83040FFF794BFD2
:1053C00003B030BD5C0C0020F0300020014B9B6826
:1053D000184700BFE0C000082DE9F04F534B87B0DD
:1053E000DC78534E04EB44034FEAA30B9B08019374
:1053F000FF23B3FBF4F3009383785BB100221146E3
:105400001046FFF7E3FF662200214A48FBF734F815
:10541000002333700025484FDFF818A13B78013393
:105420003B70A4EB0B030293D0464FF00009327897
:105430005FFA89F31A4362D10393FAF72BFF3F4BCC
:105440009842039B5BDC8AF800402946184604AA70
:10545000FFF72EFF90B198F80020019B9DF81000F7
:105460009A425BD9A2EB0B030BFB03F3029A93FB6B
:10547000F2F32246DBB21946FFF736FF09F10109C4
:10548000B9F1060F08F11108D1D10135EDB2112D96
:105490000AF1010AC8D13B78009A934204BF002365
:1054A0003B7033780133DBB21C2B3DD900233370C2
:1054B000234E05233546671E304629461122052B0B
:1054C00004D190F800C0644508BF077011F811CCF2
:1054D000013AA44524BF01F8117C0C7012F0FF02C0
:1054E00001F1010100F10100E9D1013B13F0FF03DB
:1054F000A5F11105E0D1002007B0BDE8F08F98F8C4
:105500000020002AA1D094429FD939780098814286
:1055100004BF02F1FF3288F8002096E76243B2FB35
:10552000FBF20023D2B2A6E73370E4E7F0300020AC
:10553000B91E0020E91E0020B81E00205455550554
:105540003E1F00202DE9F04F85B0074688461546DE
:10555000FEF7C8F8814600284DD0002D4ED04146B8
:10556000384602AAFFF7A4FE0446334E337823449C
:10557000082B22DDC4F1080A611C52463144701C1C
:10558000FBF712F904F109015246314406F1090012
:10559000FBF70AF906EB44014FEA4A02193106F11A
:1055A0001900FBF701F904F111015246314406F1EB
:1055B0001100FBF7F9F886F800A000221146964684
:1055C00002AB96F800B0DFF870C00193D0B200EBE8
:1055D0000B038442DBB213D811B1174B5C441C702F
:1055E0004DB1164B1B7803F0FC037C2B03D14146D5
:1055F0003846FFF7C5FD05B0BDE8F08F2C46B4E78F
:1056000001990F4E11F801AB0CEB030001910AF167
:10561000300106EB41018E790C33C9790CEB430361
:1056200041724670494680F811A083F801E083F882
:1056300002E00132CAE700BFBB1E0020F0300020AC
:105640005C0C0020012070470120704708B5FFF76F
:10565000FBFF08BD08B5FFF7F5FFFFF7F7FF08BD33
:1056600000EBC00300EB4300C3B2002003F11302C0
:10567000D2B25B2A63F30700134628BF5B2382B0D4
:1056800063F30F2002B070472DE9F04F074689B051
:1056900000780291FFF7E4FFDFF8BC802F4A98F80A
:1056A000043015885B0803FB05552D4BC4B2C0F3CD
:1056B000072BC5F3072503EB440603F58E79E3B208
:1056C0009B4507D8BBF15A0F8CBF0020012009B0C1
:1056D000BDE8F08F19F804207B781A4238D096F88C
:1056E000661096F8672070391FFA81FA0AFB0AF0F3
:1056F000203A92B202FB020080B20392FFF7A7F8B1
:105700000095034698F801C098F8020098F803E065
:10571000039A4CEA002012B20FFA8AF1DDF808C0B1
:1057200040EA0E40E047C0F307238DF81C00C0F3A9
:1057300007408DF81D308DF81E000798FFF71BFD00
:10574000C0F30743C0F30722C1B22046FFF7CCFDE8
:1057500002360134B3E700BFF0300020F8300020FB
:105760005C0C00200149FFF78FBF00BF8550000887
:105770000149FFF789BF00BFCB5000080149FFF77F
:1057800083BF00BFF94A00080149FFF77DBF00BF92
:10579000415100082DE9F04F074685B00078FFF72A
:1057A0005FFF8A46DFF89880264A98F8043015880B
:1057B0005B0803FB0555244BC4B2C0F3072BC5F3AC
:1057C000072503EB440603F58E79E3B29B4507D822
:1057D000BBF15A0F8CBF0020012005B0BDE8F08F4F
:1057E00019F804207B781A4226D098F8023098F8ED
:1057F000010098F803C096F8672096F8661040EA12
:105800000320203A70392B4640EA0C40D047C0F3C1
:1058100007238DF80C00C0F307408DF80D308DF88C
:105820000E000398FFF7A7FCC0F30743C0F307225D
:10583000C1B22046FFF758FD02360134C5E700BF6C
:10584000F0300020F83000205C0C00200149FFF708
:10585000A1BF00BFF54F00080149FFF79BBF00BF84
:105860003D5000080149FFF795BF00BF2B4B0008D2
:105870000149FFF78FBF00BF115100082DE9FF4715
:1058800006460078FFF7ECFE88461F4F1F4B3D7918
:105890001B88AD0802355D43DFF874A0C0F307290B
:1058A000C5F30725C4B2E1B2894507D8B9F15A0F4B
:1058B0008CBF0020012004B0BDE8F0871AF8042056
:1058C00073781A421DD0BA787B78F87843EA0223BD
:1058D00043EA00402A46C047C0F307238DF80C0076
:1058E000C0F307408DF80D308DF80E000398FFF7D8
:1058F00042FCC0F30743C0F30722C1B22046FFF7C2
:10590000F3FC0134CFE700BFF0300020F830002076
:10591000780D00200149FFF7B1BF00BF1149000811
:105920000149FFF7ABBF00BF5D4900080149FFF720
:10593000A5BF00BFB54900080149FFF79FBF00BFE1
:105940000D4A00080149FFF799BF00BF354A00081A
:105950000149FFF793BF00BF6D4A00080149FFF7F7
:105960008DBF00BFA54A00080149FFF787BF00BFF0
:10597000794C00080149FFF781BF00BFC54C000802
:105980000149FFF77BBF00BF254D00082DE9F04F0F
:10599000804689B00078FFF763FEDFF8A8902A4AB6
:1059A00099F8043014889B0803FB0444C4F30724CB
:1059B000C6B2C0F3072504F14000C0B28A46FEF724
:1059C00087FF803843B220460393FEF781FFDFF85C
:1059D0007CB0A0F180077FB2F3B29D4206D85A2D69
:1059E0008CBF0020012009B0BDE8F08F1BF8061025
:1059F00098F80120114222D0009499F8022099F8D9
:105A0000010099F803C040EA022003993A4640EAAF
:105A10000C40D047C0F307238DF81C00C0F30740AB
:105A20008DF81D308DF81E000798FFF7A4FBC0F31A
:105A30000743C0F30722C1B23046FFF755FC0136D9
:105A4000CAE700BFF0300020F8300020780D0020B9
:105A50000149FFF79BBF00BF794B00080149FFF7E1
:105A600095BF00BFC94B00080149FFF78FBF00BFBA
:105A7000194C00082DE9F04F334D074685B00078EA
:105A8000FFF7EEFD2B794FF6FF760133FF2B28BF92
:105A9000FF238846B6FBF3F6DFF8B0B0DFF8B0A01E
:105AA000C0F30729C4B2E0B2814507D8B9F15A0F53
:105AB0008CBF0020012005B0BDE8F08F1BF804204A
:105AC0007B781A422ED09AF80030DFF888C0013B6C
:105AD0005BB21A0628D531462B79AA780133FF2B01
